{"project/contracts/GiwaForecastMarket.sol":{"GiwaForecastMarket":{"abi":[{"inputs":[{"internalType":"address","name":"collateralToken_","type":"address"},{"internalType":"address","name":"feeRecipient_","type":"address"},{"internalType":"uint16","name":"feeBps_","type":"uint16"}],"stateMutability":"nonpayable","type":"constructor"},{"inputs":[],"name":"AlreadyClaimed","type":"error"},{"inputs":[],"name":"InsufficientLiquidity","type":"error"},{"inputs":[],"name":"InsufficientShares","type":"error"},{"inputs":[],"name":"InvalidAddress","type":"error"},{"inputs":[],"name":"InvalidAmount","type":"error"},{"inputs":[],"name":"InvalidFee","type":"error"},{"inputs":[],"name":"InvalidMarket","type":"error"},{"inputs":[],"name":"MarketAlreadyResolved","type":"error"},{"inputs":[],"name":"MarketClosed","type":"error"},{"inputs":[],"name":"MarketNotClosed","type":"error"},{"inputs":[],"name":"MarketNotResolved","type":"error"},{"inputs":[],"name":"NotOwner","type":"error"},{"inputs":[],"name":"NotResolver","type":"error"},{"inputs":[],"name":"NothingToClaim","type":"error"},{"inputs":[],"name":"OnlyCreator","type":"error"},{"inputs":[],"name":"ReentrancyGuardReentrantCall","type":"error"},{"inputs":[],"name":"ResidualAlreadyClaimed","type":"error"},{"inputs":[{"internalType":"address","name":"token","type":"address"}],"name":"SafeERC20FailedOperation","type":"error"},{"anonymous":false,"inputs":[{"indexed":true,"internalType":"uint256","name":"marketId","type":"uint256"},{"indexed":true,"internalType":"address","name":"creator","type":"address"},{"indexed":false,"internalType":"uint256","name":"payout","type":"uint256"}],"name":"CreatorResidualClaimed","type":"event"},{"anonymous":false,"inputs":[{"indexed":true,"internalType":"address","name":"previousRecipient","type":"address"},{"indexed":true,"internalType":"address","name":"newRecipient","type":"address"}],"name":"FeeRecipientUpdated","type":"event"},{"anonymous":false,"inputs":[{"indexed":true,"internalType":"uint256","name":"marketId","type":"uint256"},{"indexed":true,"internalType":"address","name":"creator","type":"address"},{"indexed":true,"internalType":"address","name":"resolver","type":"address"},{"indexed":false,"internalType":"string","name":"question","type":"string"},{"indexed":false,"internalType":"uint64","name":"closeTime","type":"uint64"},{"indexed":false,"internalType":"uint256","name":"seedLiquidity","type":"uint256"}],"name":"MarketCreated","type":"event"},{"anonymous":false,"inputs":[{"indexed":true,"internalType":"uint256","name":"marketId","type":"uint256"},{"indexed":true,"internalType":"enum GiwaForecastMarket.Outcome","name":"outcome","type":"uint8"},{"indexed":false,"internalType":"uint256","name":"winningUserShares","type":"uint256"}],"name":"MarketResolved","type":"event"},{"anonymous":false,"inputs":[{"indexed":true,"internalType":"address","name":"previousOwner","type":"address"},{"indexed":true,"internalType":"address","name":"newOwner","type":"address"}],"name":"OwnershipTransferred","type":"event"},{"anonymous":false,"inputs":[{"indexed":true,"internalType":"uint256","name":"marketId","type":"uint256"},{"indexed":true,"internalType":"address","name":"user","type":"address"},{"indexed":false,"internalType":"uint256","name":"payout","type":"uint256"}],"name":"PayoutClaimed","type":"event"},{"anonymous":false,"inputs":[{"indexed":true,"internalType":"uint256","name":"marketId","type":"uint256"},{"indexed":true,"internalType":"address","name":"trader","type":"address"},{"indexed":true,"internalType":"enum GiwaForecastMarket.Outcome","name":"outcome","type":"uint8"},{"indexed":false,"internalType":"uint256","name":"collateralIn","type":"uint256"},{"indexed":false,"internalType":"uint256","name":"fee","type":"uint256"},{"indexed":false,"internalType":"uint256","name":"sharesOut","type":"uint256"}],"name":"SharesBought","type":"event"},{"anonymous":false,"inputs":[{"indexed":true,"internalType":"uint256","name":"marketId","type":"uint256"},{"indexed":true,"internalType":"address","name":"trader","type":"address"},{"indexed":true,"internalType":"enum GiwaForecastMarket.Outcome","name":"outcome","type":"uint8"},{"indexed":false,"internalType":"uint256","name":"sharesIn","type":"uint256"},{"indexed":false,"internalType":"uint256","name":"grossCollateralOut","type":"uint256"},{"indexed":false,"internalType":"uint256","name":"fee","type":"uint256"},{"indexed":false,"internalType":"uint256","name":"netCollateralOut","type":"uint256"}],"name":"SharesSold","type":"event"},{"inputs":[{"internalType":"uint256","name":"marketId","type":"uint256"},{"internalType":"enum GiwaForecastMarket.Outcome","name":"outcome","type":"uint8"},{"internalType":"uint256","name":"collateralIn","type":"uint256"}],"name":"buy","outputs":[{"internalType":"uint256","name":"sharesOut","type":"uint256"}],"stateMutability":"nonpayable","type":"function"},{"inputs":[{"internalType":"uint256","name":"marketId","type":"uint256"}],"name":"claimCreatorResidual","outputs":[{"internalType":"uint256","name":"payout","type":"uint256"}],"stateMutability":"nonpayable","type":"function"},{"inputs":[{"internalType":"uint256","name":"marketId","type":"uint256"}],"name":"claimPayout","outputs":[{"internalType":"uint256","name":"payout","type":"uint256"}],"stateMutability":"nonpayable","type":"function"},{"inputs":[],"name":"collateralToken","outputs":[{"internalType":"contract IERC20","name":"","type":"address"}],"stateMutability":"view","type":"function"},{"inputs":[{"internalType":"string","name":"question","type":"string"},{"internalType":"string","name":"category","type":"string"},{"internalType":"uint64","name":"closeTime","type":"uint64"},{"internalType":"address","name":"resolver","type":"address"},{"internalType":"uint256","name":"seedLiquidity","type":"uint256"}],"name":"createMarket","outputs":[{"internalType":"uint256","name":"marketId","type":"uint256"}],"stateMutability":"nonpayable","type":"function"},{"inputs":[],"name":"feeBps","outputs":[{"internalType":"uint16","name":"","type":"uint16"}],"stateMutability":"view","type":"function"},{"inputs":[],"name":"feeRecipient","outputs":[{"internalType":"address","name":"","type":"address"}],"stateMutability":"view","type":"function"},{"inputs":[{"internalType":"uint256","name":"marketId","type":"uint256"}],"name":"getMarket","outputs":[{"components":[{"internalType":"string","name":"question","type":"string"},{"internalType":"string","name":"category","type":"string"},{"internalType":"uint64","name":"closeTime","type":"uint64"},{"internalType":"address","name":"resolver","type":"address"},{"internalType":"address","name":"creator","type":"address"},{"internalType":"uint256","name":"yesReserve","type":"uint256"},{"internalType":"uint256","name":"noReserve","type":"uint256"},{"internalType":"uint256","name":"collateralPool","type":"uint256"},{"internalType":"uint256","name":"yesUserShares","type":"uint256"},{"internalType":"uint256","name":"noUserShares","type":"uint256"},{"internalType":"uint256","name":"winningUserShares","type":"uint256"},{"internalType":"bool","name":"resolved","type":"bool"},{"internalType":"enum GiwaForecastMarket.Outcome","name":"resolvedOutcome","type":"uint8"},{"internalType":"bool","name":"residualClaimed","type":"bool"}],"internalType":"struct GiwaForecastMarket.Market","name":"","type":"tuple"}],"stateMutability":"view","type":"function"},{"inputs":[{"internalType":"uint256","name":"marketId","type":"uint256"},{"internalType":"address","name":"user","type":"address"}],"name":"getPosition","outputs":[{"internalType":"uint256","name":"yesShares","type":"uint256"},{"internalType":"uint256","name":"noShares","type":"uint256"},{"internalType":"bool","name":"hasClaimed","type":"bool"}],"stateMutability":"view","type":"function"},{"inputs":[{"internalType":"uint256","name":"marketId","type":"uint256"}],"name":"getYesPriceE18","outputs":[{"internalType":"uint256","name":"","type":"uint256"}],"stateMutability":"view","type":"function"},{"inputs":[],"name":"marketCount","outputs":[{"internalType":"uint256","name":"","type":"uint256"}],"stateMutability":"view","type":"function"},{"inputs":[],"name":"owner","outputs":[{"internalType":"address","name":"","type":"address"}],"stateMutability":"view","type":"function"},{"inputs":[{"internalType":"uint256","name":"","type":"uint256"},{"internalType":"address","name":"","type":"address"}],"name":"payoutClaimed","outputs":[{"internalType":"bool","name":"","type":"bool"}],"stateMutability":"view","type":"function"},{"inputs":[{"internalType":"uint256","name":"marketId","type":"uint256"},{"internalType":"enum GiwaForecastMarket.Outcome","name":"outcome","type":"uint8"},{"internalType":"uint256","name":"collateralIn","type":"uint256"}],"name":"quoteBuy","outputs":[{"internalType":"uint256","name":"sharesOut","type":"uint256"},{"internalType":"uint256","name":"fee","type":"uint256"},{"internalType":"uint256","name":"yesPriceE18","type":"uint256"}],"stateMutability":"view","type":"function"},{"inputs":[{"internalType":"uint256","name":"marketId","type":"uint256"},{"internalType":"enum GiwaForecastMarket.Outcome","name":"outcome","type":"uint8"},{"internalType":"uint256","name":"sharesIn","type":"uint256"}],"name":"quoteSell","outputs":[{"internalType":"uint256","name":"netCollateralOut","type":"uint256"},{"internalType":"uint256","name":"fee","type":"uint256"},{"internalType":"uint256","name":"yesPriceE18","type":"uint256"}],"stateMutability":"view","type":"function"},{"inputs":[{"internalType":"uint256","name":"marketId","type":"uint256"},{"internalType":"enum GiwaForecastMarket.Outcome","name":"outcome","type":"uint8"}],"name":"resolveMarket","outputs":[],"stateMutability":"nonpayable","type":"function"},{"inputs":[{"internalType":"uint256","name":"marketId","type":"uint256"},{"internalType":"enum GiwaForecastMarket.Outcome","name":"outcome","type":"uint8"},{"internalType":"uint256","name":"sharesIn","type":"uint256"}],"name":"sell","outputs":[{"internalType":"uint256","name":"netCollateralOut","type":"uint256"}],"stateMutability":"nonpayable","type":"function"},{"inputs":[{"internalType":"address","name":"newRecipient","type":"address"}],"name":"setFeeRecipient","outputs":[],"stateMutability":"nonpayable","type":"function"},{"inputs":[{"internalType":"address","name":"newOwner","type":"address"}],"name":"transferOwnership","outputs":[],"stateMutability":"nonpayable","type":"function"}],"evm":{"bytecode":{"linkReferences":{},"object":"60c060405234801561000f575f5ffd5b50604051613c2a380380613c2a8339818101604052810190610031919061031d565b600161004f61004461025660201b60201c565b61027f60201b60201c565b5f01819055505f73ffffffffffffffffffffffffffffffffffffffff168373ffffffffffffffffffffffffffffffffffffffff1614806100ba57505f73ffffffffffffffffffffffffffffffffffffffff168273ffffffffffffffffffffffffffffffffffffffff16145b156100f1576040517fe6c4247b00000000000000000000000000000000000000000000000000000000815260040160405180910390fd5b6101f48161ffff161115610131576040517f58d620b300000000000000000000000000000000000000000000000000000000815260040160405180910390fd5b8273ffffffffffffffffffffffffffffffffffffffff1660808173ffffffffffffffffffffffffffffffffffffffff16815250508160015f6101000a81548173ffffffffffffffffffffffffffffffffffffffff021916908373ffffffffffffffffffffffffffffffffffffffff1602179055508061ffff1660a08161ffff1681525050335f5f6101000a81548173ffffffffffffffffffffffffffffffffffffffff021916908373ffffffffffffffffffffffffffffffffffffffff1602179055503373ffffffffffffffffffffffffffffffffffffffff165f73ffffffffffffffffffffffffffffffffffffffff167f8be0079c531659141344cd1fd0a4f28419497f9722a3daafe3b4186f6b6457e060405160405180910390a350505061036d565b5f7f9b779b17422d0df92223018b32b4d1fa46e071723d6817e2486d003becc55f005f1b905090565b5f819050919050565b5f5ffd5b5f73ffffffffffffffffffffffffffffffffffffffff82169050919050565b5f6102b58261028c565b9050919050565b6102c5816102ab565b81146102cf575f5ffd5b50565b5f815190506102e0816102bc565b92915050565b5f61ffff82169050919050565b6102fc816102e6565b8114610306575f5ffd5b50565b5f81519050610317816102f3565b92915050565b5f5f5f6060848603121561033457610333610288565b5b5f610341868287016102d2565b9350506020610352868287016102d2565b925050604061036386828701610309565b9150509250925092565b60805160a05161384f6103db5f395f81816104250152818161053d01528181610e2f015281816116bc015261241f01525f81816105c70152818161063c01528181610e9801528181610f0c0152818161113a0152818161152e0152818161160e015261182b015261384f5ff3fe608060405234801561000f575f5ffd5b506004361061011f575f3560e01c8063b6c77d67116100ab578063e74b981b1161006f578063e74b981b1461036b578063eb44fdd314610387578063ec979082146103b7578063ed5a13a2146103d5578063f2fde38b146104075761011f565b8063b6c77d671461028b578063d21fb764146102bd578063d29f541d146102ed578063dda8744d1461031f578063df55406e1461034f5761011f565b806381723535116100f257806381723535146101bf5780638a69614e146101ef5780638da5cb5b1461021f5780639d42026f1461023d578063b2016bd41461026d5761011f565b806324a9d8531461012357806339b618111461014157806346904840146101715780635f90dc6e1461018f575b5f5ffd5b61012b610423565b6040516101389190612bbd565b60405180910390f35b61015b60048036038101906101569190612c34565b610447565b6040516101689190612c93565b60405180910390f35b610179610966565b6040516101869190612ceb565b60405180910390f35b6101a960048036038101906101a49190612c34565b61098b565b6040516101b69190612c93565b60405180910390f35b6101d960048036038101906101d49190612d04565b610fcb565b6040516101e69190612c93565b60405180910390f35b61020960048036038101906102049190612d04565b6111dc565b6040516102169190612c93565b60405180910390f35b6102276115cf565b6040516102349190612ceb565b60405180910390f35b61025760048036038101906102529190612d04565b6115f3565b6040516102649190612c93565b60405180910390f35b61027561160c565b6040516102829190612d8a565b60405180910390f35b6102a560048036038101906102a09190612c34565b611630565b6040516102b493929190612da3565b60405180910390f35b6102d760048036038101906102d29190612ea0565b61171b565b6040516102e49190612c93565b60405180910390f35b61030760048036038101906103029190612f57565b611bdf565b60405161031693929190612faf565b60405180910390f35b61033960048036038101906103349190612f57565b611cec565b6040516103469190612fe4565b60405180910390f35b61036960048036038101906103649190612ffd565b611d16565b005b6103856004803603810190610380919061303b565b611f6f565b005b6103a1600480360381019061039c9190612d04565b61211c565b6040516103ae91906132b7565b60405180910390f35b6103bf6123e7565b6040516103cc9190612c93565b60405180910390f35b6103ef60048036038101906103ea9190612c34565b6123ed565b6040516103fe93929190612da3565b60405180910390f35b610421600480360381019061041c919061303b565b6124f0565b005b7f000000000000000000000000000000000000000000000000000000000000000081565b5f61045061269b565b5f61045a856126bd565b905080600a015f9054906101000a900460ff16156104a4576040517faa43cb2d00000000000000000000000000000000000000000000000000000000815260040160405180910390fd5b806002015f9054906101000a900467ffffffffffffffff1667ffffffffffffffff1642106104fe576040517f0b5f6bf000000000000000000000000000000000000000000000000000000000815260040160405180910390fd5b5f8303610537576040517f2c5211c600000000000000000000000000000000000000000000000000000000815260040160405180910390fd5b5f6127107f000000000000000000000000000000000000000000000000000000000000000061ffff168561056b9190613304565b6105759190613372565b90505f818561058491906133a2565b90505f81036105bf576040517f2c5211c600000000000000000000000000000000000000000000000000000000815260040160405180910390fd5b61060c3330877f000000000000000000000000000000000000000000000000000000000000000073ffffffffffffffffffffffffffffffffffffffff1661271c909392919063ffffffff16565b5f8211156106815761068060015f9054906101000a900473ffffffffffffffffffffffffffffffffffffffff16837f000000000000000000000000000000000000000000000000000000000000000073ffffffffffffffffffffffffffffffffffffffff166127719092919063ffffffff16565b5b5f5f600181111561069557610694613112565b5b8760018111156106a8576106a7613112565b5b036107c2576106c082856005015486600401546127c4565b9050836004015481106106ff576040517fbb55fd2700000000000000000000000000000000000000000000000000000000815260040160405180910390fd5b81846005015f82825461071291906133d5565b9250508190555080846004015f82825461072c91906133a2565b92505081905550808261073f91906133d5565b94508460045f8a81526020019081526020015f205f3373ffffffffffffffffffffffffffffffffffffffff1673ffffffffffffffffffffffffffffffffffffffff1681526020019081526020015f205f82825461079c91906133d5565b9250508190555084846007015f8282546107b691906133d5565b925050819055506108d3565b6107d582856004015486600501546127c4565b905083600501548110610814576040517fbb55fd2700000000000000000000000000000000000000000000000000000000815260040160405180910390fd5b81846004015f82825461082791906133d5565b9250508190555080846005015f82825461084191906133a2565b92505081905550808261085491906133d5565b94508460055f8a81526020019081526020015f205f3373ffffffffffffffffffffffffffffffffffffffff1673ffffffffffffffffffffffffffffffffffffffff1681526020019081526020015f205f8282546108b191906133d5565b9250508190555084846008015f8282546108cb91906133d5565b925050819055505b81846006015f8282546108e691906133d5565b92505081905550866001811115610900576108ff613112565b5b3373ffffffffffffffffffffffffffffffffffffffff16897f9be864738dd20c4cee14975891a144fe600ee582661407c3532c0ff0251216dc89878a60405161094b93929190612da3565b60405180910390a45050505061095f612815565b9392505050565b60015f9054906101000a900473ffffffffffffffffffffffffffffffffffffffff1681565b5f61099461269b565b5f61099e856126bd565b905080600a015f9054906101000a900460ff16156109e8576040517faa43cb2d00000000000000000000000000000000000000000000000000000000815260040160405180910390fd5b806002015f9054906101000a900467ffffffffffffffff1667ffffffffffffffff164210610a42576040517f0b5f6bf000000000000000000000000000000000000000000000000000000000815260040160405180910390fd5b5f8303610a7b576040517f2c5211c600000000000000000000000000000000000000000000000000000000815260040160405180910390fd5b5f5f6001811115610a8f57610a8e613112565b5b856001811115610aa257610aa1613112565b5b03610c4b578360045f8881526020019081526020015f205f3373ffffffffffffffffffffffffffffffffffffffff1673ffffffffffffffffffffffffffffffffffffffff1681526020019081526020015f20541015610b2d576040517f3999656700000000000000000000000000000000000000000000000000000000815260040160405180910390fd5b610b40826004015483600501548661282f565b90505f811480610b54575081600501548110155b15610b8b576040517fbb55fd2700000000000000000000000000000000000000000000000000000000815260040160405180910390fd5b8360045f8881526020019081526020015f205f3373ffffffffffffffffffffffffffffffffffffffff1673ffffffffffffffffffffffffffffffffffffffff1681526020019081526020015f205f828254610be691906133a2565b9250508190555083826007015f828254610c0091906133a2565b925050819055508084610c1391906133a2565b826004015f828254610c2591906133d5565b9250508190555080826005015f828254610c3f91906133a2565b92505081905550610deb565b8360055f8881526020019081526020015f205f3373ffffffffffffffffffffffffffffffffffffffff1673ffffffffffffffffffffffffffffffffffffffff1681526020019081526020015f20541015610cd1576040517f3999656700000000000000000000000000000000000000000000000000000000815260040160405180910390fd5b610ce4826005015483600401548661282f565b90505f811480610cf8575081600401548110155b15610d2f576040517fbb55fd2700000000000000000000000000000000000000000000000000000000815260040160405180910390fd5b8360055f8881526020019081526020015f205f3373ffffffffffffffffffffffffffffffffffffffff1673ffffffffffffffffffffffffffffffffffffffff1681526020019081526020015f205f828254610d8a91906133a2565b9250508190555083826008015f828254610da491906133a2565b925050819055508084610db791906133a2565b826005015f828254610dc991906133d5565b9250508190555080826004015f828254610de391906133a2565b925050819055505b8160060154811115610e29576040517fbb55fd2700000000000000000000000000000000000000000000000000000000815260040160405180910390fd5b5f6127107f000000000000000000000000000000000000000000000000000000000000000061ffff1683610e5d9190613304565b610e679190613372565b90508082610e7591906133a2565b935081836006015f828254610e8a91906133a2565b92505081905550610edc33857f000000000000000000000000000000000000000000000000000000000000000073ffffffffffffffffffffffffffffffffffffffff166127719092919063ffffffff16565b5f811115610f5157610f5060015f9054906101000a900473ffffffffffffffffffffffffffffffffffffffff16827f000000000000000000000000000000000000000000000000000000000000000073ffffffffffffffffffffffffffffffffffffffff166127719092919063ffffffff16565b5b856001811115610f6457610f63613112565b5b3373ffffffffffffffffffffffffffffffffffffffff16887fb62a4504befd6b99464affdb6bd0d6528dd160f73ce088071d37c731e650d7798886868a604051610fb19493929190613408565b60405180910390a4505050610fc4612815565b9392505050565b5f610fd461269b565b5f610fde836126bd565b905080600a015f9054906101000a900460ff16611027576040517f2e96c72600000000000000000000000000000000000000000000000000000000815260040160405180910390fd5b806003015f9054906101000a900473ffffffffffffffffffffffffffffffffffffffff1673ffffffffffffffffffffffffffffffffffffffff163373ffffffffffffffffffffffffffffffffffffffff16146110af576040517f47bc7cc800000000000000000000000000000000000000000000000000000000815260040160405180910390fd5b80600a0160029054906101000a900460ff16156110f8576040517f738c807b00000000000000000000000000000000000000000000000000000000815260040160405180910390fd5b600181600a0160026101000a81548160ff0219169083151502179055508060090154816006015461112991906133a2565b91505f82111561117f5761117e33837f000000000000000000000000000000000000000000000000000000000000000073ffffffffffffffffffffffffffffffffffffffff166127719092919063ffffffff16565b5b3373ffffffffffffffffffffffffffffffffffffffff16837f3e6a65695df4386c7d851e9604846372769fb1f6e1f21650ad0085600b68c6f7846040516111c69190612c93565b60405180910390a3506111d7612815565b919050565b5f6111e561269b565b5f6111ef836126bd565b905080600a015f9054906101000a900460ff16611238576040517f2e96c72600000000000000000000000000000000000000000000000000000000815260040160405180910390fd5b60065f8481526020019081526020015f205f3373ffffffffffffffffffffffffffffffffffffffff1673ffffffffffffffffffffffffffffffffffffffff1681526020019081526020015f205f9054906101000a900460ff16156112c8576040517f646cf55800000000000000000000000000000000000000000000000000000000815260040160405180910390fd5b600160065f8581526020019081526020015f205f3373ffffffffffffffffffffffffffffffffffffffff1673ffffffffffffffffffffffffffffffffffffffff1681526020019081526020015f205f6101000a81548160ff0219169083151502179055505f600181111561133f5761133e613112565b5b81600a0160019054906101000a900460ff16600181111561136357611362613112565b5b146113ba5760055f8481526020019081526020015f205f3373ffffffffffffffffffffffffffffffffffffffff1673ffffffffffffffffffffffffffffffffffffffff1681526020019081526020015f2054611408565b60045f8481526020019081526020015f205f3373ffffffffffffffffffffffffffffffffffffffff1673ffffffffffffffffffffffffffffffffffffffff1681526020019081526020015f20545b91505f8203611443576040517f969bf72800000000000000000000000000000000000000000000000000000000815260040160405180910390fd5b5f600181111561145657611455613112565b5b81600a0160019054906101000a900460ff16600181111561147a57611479613112565b5b036114d5575f60045f8581526020019081526020015f205f3373ffffffffffffffffffffffffffffffffffffffff1673ffffffffffffffffffffffffffffffffffffffff1681526020019081526020015f2081905550611527565b5f60055f8581526020019081526020015f205f3373ffffffffffffffffffffffffffffffffffffffff1673ffffffffffffffffffffffffffffffffffffffff1681526020019081526020015f20819055505b61157233837f000000000000000000000000000000000000000000000000000000000000000073ffffffffffffffffffffffffffffffffffffffff166127719092919063ffffffff16565b3373ffffffffffffffffffffffffffffffffffffffff16837fe97cee5a4c0549d3fdc81e322b718ddf0aeb3418ec87dce4f9a7fb28d117c312846040516115b99190612c93565b60405180910390a3506115ca612815565b919050565b5f5f9054906101000a900473ffffffffffffffffffffffffffffffffffffffff1681565b5f611605611600836126bd565b6128d0565b9050919050565b7f000000000000000000000000000000000000000000000000000000000000000081565b5f5f5f5f61163d876126bd565b90505f850361165d575f5f611651836128d0565b93509350935050611712565b5f5f600181111561167157611670613112565b5b87600181111561168457611683613112565b5b146116a15761169c826005015483600401548861282f565b6116b5565b6116b4826004015483600501548861282f565b5b90506127107f000000000000000000000000000000000000000000000000000000000000000061ffff16826116ea9190613304565b6116f49190613372565b9350838161170291906133a2565b945061170d826128d0565b925050505b93509350939050565b5f61172461269b565b5f888890501480611738575060f088889050115b1561176f576040517f2c5211c600000000000000000000000000000000000000000000000000000000815260040160405180910390fd5b428467ffffffffffffffff161115806117b357505f73ffffffffffffffffffffffffffffffffffffffff168373ffffffffffffffffffffffffffffffffffffffff16145b156117ea576040517fe6c4247b00000000000000000000000000000000000000000000000000000000815260040160405180910390fd5b5f8203611823576040517f2c5211c600000000000000000000000000000000000000000000000000000000815260040160405180910390fd5b6118703330847f000000000000000000000000000000000000000000000000000000000000000073ffffffffffffffffffffffffffffffffffffffff1661271c909392919063ffffffff16565b60025f815461187e9061344b565b9190508190559050604051806101c0016040528089898080601f0160208091040260200160405190810160405280939291908181526020018383808284375f81840152601f19601f82011690508083019250505050505050815260200187878080601f0160208091040260200160405190810160405280939291908181526020018383808284375f81840152601f19601f8201169050808301925050505050505081526020018567ffffffffffffffff1681526020018473ffffffffffffffffffffffffffffffffffffffff1681526020013373ffffffffffffffffffffffffffffffffffffffff1681526020018381526020018381526020018381526020015f81526020015f81526020015f81526020015f151581526020015f60018111156119ab576119aa613112565b5b81526020015f151581525060035f8381526020019081526020015f205f820151815f0190816119da91906136b3565b5060208201518160010190816119f091906136b3565b506040820151816002015f6101000a81548167ffffffffffffffff021916908367ffffffffffffffff16021790555060608201518160020160086101000a81548173ffffffffffffffffffffffffffffffffffffffff021916908373ffffffffffffffffffffffffffffffffffffffff1602179055506080820151816003015f6101000a81548173ffffffffffffffffffffffffffffffffffffffff021916908373ffffffffffffffffffffffffffffffffffffffff16021790555060a0820151816004015560c0820151816005015560e0820151816006015561010082015181600701556101208201518160080155610140820151816009015561016082015181600a015f6101000a81548160ff02191690831515021790555061018082015181600a0160016101000a81548160ff02191690836001811115611b3757611b36613112565b5b02179055506101a082015181600a0160026101000a81548160ff0219169083151502179055509050508273ffffffffffffffffffffffffffffffffffffffff163373ffffffffffffffffffffffffffffffffffffffff16827f597681e274cac1ad1a54a0ae01083e0a1429c2eeba20be8724a988d357207fae8b8b8988604051611bc494939291906137db565b60405180910390a4611bd4612815565b979650505050505050565b5f5f5f611beb856126bd565b5060045f8681526020019081526020015f205f8573ffffffffffffffffffffffffffffffffffffffff1673ffffffffffffffffffffffffffffffffffffffff1681526020019081526020015f205460055f8781526020019081526020015f205f8673ffffffffffffffffffffffffffffffffffffffff1673ffffffffffffffffffffffffffffffffffffffff1681526020019081526020015f205460065f8881526020019081526020015f205f8773ffffffffffffffffffffffffffffffffffffffff1673ffffffffffffffffffffffffffffffffffffffff1681526020019081526020015f205f9054906101000a900460ff169250925092509250925092565b6006602052815f5260405f20602052805f5260405f205f915091509054906101000a900460ff1681565b5f611d20836126bd565b905080600a015f9054906101000a900460ff1615611d6a576040517faa43cb2d00000000000000000000000000000000000000000000000000000000815260040160405180910390fd5b806002015f9054906101000a900467ffffffffffffffff1667ffffffffffffffff16421015611dc5576040517fa8a9eb6900000000000000000000000000000000000000000000000000000000815260040160405180910390fd5b8060020160089054906101000a900473ffffffffffffffffffffffffffffffffffffffff1673ffffffffffffffffffffffffffffffffffffffff163373ffffffffffffffffffffffffffffffffffffffff1614611e4e576040517fba2a9fc200000000000000000000000000000000000000000000000000000000815260040160405180910390fd5b600181600a015f6101000a81548160ff0219169083151502179055508181600a0160016101000a81548160ff02191690836001811115611e9157611e90613112565b5b02179055505f6001811115611ea957611ea8613112565b5b826001811115611ebc57611ebb613112565b5b14611ecb578060080154611ed1565b80600701545b8160090181905550806006015481600901541115611f1b576040517fbb55fd2700000000000000000000000000000000000000000000000000000000815260040160405180910390fd5b816001811115611f2e57611f2d613112565b5b837f661ce16e44a34377fc37c19874f4b1bec6e84b072cf8d318838fe17c20c58e448360090154604051611f629190612c93565b60405180910390a3505050565b5f5f9054906101000a900473ffffffffffffffffffffffffffffffffffffffff1673ffffffffffffffffffffffffffffffffffffffff163373ffffffffffffffffffffffffffffffffffffffff1614611ff4576040517f30cd747100000000000000000000000000000000000000000000000000000000815260040160405180910390fd5b5f73ffffffffffffffffffffffffffffffffffffffff168173ffffffffffffffffffffffffffffffffffffffff1603612059576040517fe6c4247b00000000000000000000000000000000000000000000000000000000815260040160405180910390fd5b5f60015f9054906101000a900473ffffffffffffffffffffffffffffffffffffffff1690508160015f6101000a81548173ffffffffffffffffffffffffffffffffffffffff021916908373ffffffffffffffffffffffffffffffffffffffff1602179055508173ffffffffffffffffffffffffffffffffffffffff168173ffffffffffffffffffffffffffffffffffffffff167faaebcf1bfa00580e41d966056b48521fa9f202645c86d4ddf28113e617c1b1d360405160405180910390a35050565b612124612af2565b61212d826126bd565b604051806101c00160405290815f82018054612148906134ec565b80601f0160208091040260200160405190810160405280929190818152602001828054612174906134ec565b80156121bf5780601f10612196576101008083540402835291602001916121bf565b820191905f5260205f20905b8154815290600101906020018083116121a257829003601f168201915b505050505081526020016001820180546121d8906134ec565b80601f0160208091040260200160405190810160405280929190818152602001828054612204906134ec565b801561224f5780601f106122265761010080835404028352916020019161224f565b820191905f5260205f20905b81548152906001019060200180831161223257829003601f168201915b50505050508152602001600282015f9054906101000a900467ffffffffffffffff1667ffffffffffffffff1667ffffffffffffffff1681526020016002820160089054906101000a900473ffffffffffffffffffffffffffffffffffffffff1673ffffffffffffffffffffffffffffffffffffffff1673ffffffffffffffffffffffffffffffffffffffff168152602001600382015f9054906101000a900473ffffffffffffffffffffffffffffffffffffffff1673ffffffffffffffffffffffffffffffffffffffff1673ffffffffffffffffffffffffffffffffffffffff168152602001600482015481526020016005820154815260200160068201548152602001600782015481526020016008820154815260200160098201548152602001600a82015f9054906101000a900460ff16151515158152602001600a820160019054906101000a900460ff1660018111156123af576123ae613112565b5b60018111156123c1576123c0613112565b5b8152602001600a820160029054906101000a900460ff1615151515815250509050919050565b60025481565b5f5f5f5f6123fa876126bd565b90505f850361241a575f5f61240e836128d0565b935093509350506124e7565b6127107f000000000000000000000000000000000000000000000000000000000000000061ffff168661244d9190613304565b6124579190613372565b92505f838661246691906133a2565b90505f600181111561247b5761247a613112565b5b87600181111561248e5761248d613112565b5b036124b8576124a681836005015484600401546127c4565b816124b191906133d5565b94506124d9565b6124cb81836004015484600501546127c4565b816124d691906133d5565b94505b6124e2826128d0565b925050505b93509350939050565b5f5f9054906101000a900473ffffffffffffffffffffffffffffffffffffffff1673ffffffffffffffffffffffffffffffffffffffff163373ffffffffffffffffffffffffffffffffffffffff1614612575576040517f30cd747100000000000000000000000000000000000000000000000000000000815260040160405180910390fd5b5f73ffffffffffffffffffffffffffffffffffffffff168173ffffffffffffffffffffffffffffffffffffffff16036125da576040517fe6c4247b00000000000000000000000000000000000000000000000000000000815260040160405180910390fd5b5f5f5f9054906101000a900473ffffffffffffffffffffffffffffffffffffffff169050815f5f6101000a81548173ffffffffffffffffffffffffffffffffffffffff021916908373ffffffffffffffffffffffffffffffffffffffff1602179055508173ffffffffffffffffffffffffffffffffffffffff168173ffffffffffffffffffffffffffffffffffffffff167f8be0079c531659141344cd1fd0a4f28419497f9722a3daafe3b4186f6b6457e060405160405180910390a35050565b6126a3612924565b60026126b56126b0612965565b61298e565b5f0181905550565b5f5f8214806126cd575060025482115b15612704576040517f9db8d5b100000000000000000000000000000000000000000000000000000000815260040160405180910390fd5b60035f8381526020019081526020015f209050919050565b61272a848484846001612997565b61276b57836040517f5274afe70000000000000000000000000000000000000000000000000000000081526004016127629190612ceb565b60405180910390fd5b50505050565b61277e8383836001612a08565b6127bf57826040517f5274afe70000000000000000000000000000000000000000000000000000000081526004016127b69190612ceb565b60405180910390fd5b505050565b5f5f8414806127d257505f83145b806127dc57505f82145b156127e9575f905061280e565b83836127f591906133d5565b84836128019190613304565b61280b9190613372565b90505b9392505050565b6001612827612822612965565b61298e565b5f0181905550565b5f5f82148061283d57505f84145b8061284757505f83145b15612854575f90506128c9565b5f82848661286291906133d5565b61286c91906133d5565b90505f8385600461287d9190613304565b6128879190613304565b82836128939190613304565b61289d91906133a2565b90505f6128a982612a6a565b9050600281846128b991906133a2565b6128c39190613372565b93505050505b9392505050565b5f5f826005015483600401546128e691906133d5565b90505f81036128f8575f91505061291f565b80670de0b6b3a764000084600501546129119190613304565b61291b9190613372565b9150505b919050565b61292c612ad6565b15612963576040517f3ee5aeb500000000000000000000000000000000000000000000000000000000815260040160405180910390fd5b565b5f7f9b779b17422d0df92223018b32b4d1fa46e071723d6817e2486d003becc55f005f1b905090565b5f819050919050565b5f5f6323b872dd60e01b9050604051815f525f1960601c87166004525f1960601c86166024528460445260205f60645f5f8c5af1925060015f511483166129f55783831516156129e9573d5f823e3d81fd5b5f883b113d1516831692505b806040525f606052505095945050505050565b5f5f63a9059cbb60e01b9050604051815f525f1960601c86166004528460245260205f60445f5f8b5af1925060015f51148316612a5c578383151615612a50573d5f823e3d81fd5b5f873b113d1516831692505b806040525050949350505050565b5f5f8203612a7a575f9050612ad1565b5f6002600184612a8a91906133d5565b612a949190613372565b90508291505b81811015612acf578091506002818285612ab49190613372565b612abe91906133d5565b612ac89190613372565b9050612a9a565b505b919050565b5f6002612ae9612ae4612965565b61298e565b5f015414905090565b604051806101c0016040528060608152602001606081526020015f67ffffffffffffffff1681526020015f73ffffffffffffffffffffffffffffffffffffffff1681526020015f73ffffffffffffffffffffffffffffffffffffffff1681526020015f81526020015f81526020015f81526020015f81526020015f81526020015f81526020015f151581526020015f6001811115612b9357612b92613112565b5b81526020015f151581525090565b5f61ffff82169050919050565b612bb781612ba1565b82525050565b5f602082019050612bd05f830184612bae565b92915050565b5f5ffd5b5f5ffd5b5f819050919050565b612bf081612bde565b8114612bfa575f5ffd5b50565b5f81359050612c0b81612be7565b92915050565b60028110612c1d575f5ffd5b50565b5f81359050612c2e81612c11565b92915050565b5f5f5f60608486031215612c4b57612c4a612bd6565b5b5f612c5886828701612bfd565b9350506020612c6986828701612c20565b9250506040612c7a86828701612bfd565b9150509250925092565b612c8d81612bde565b82525050565b5f602082019050612ca65f830184612c84565b92915050565b5f73ffffffffffffffffffffffffffffffffffffffff82169050919050565b5f612cd582612cac565b9050919050565b612ce581612ccb565b82525050565b5f602082019050612cfe5f830184612cdc565b92915050565b5f60208284031215612d1957612d18612bd6565b5b5f612d2684828501612bfd565b91505092915050565b5f819050919050565b5f612d52612d4d612d4884612cac565b612d2f565b612cac565b9050919050565b5f612d6382612d38565b9050919050565b5f612d7482612d59565b9050919050565b612d8481612d6a565b82525050565b5f602082019050612d9d5f830184612d7b565b92915050565b5f606082019050612db65f830186612c84565b612dc36020830185612c84565b612dd06040830184612c84565b949350505050565b5f5ffd5b5f5ffd5b5f5ffd5b5f5f83601f840112612df957612df8612dd8565b5b8235905067ffffffffffffffff811115612e1657612e15612ddc565b5b602083019150836001820283011115612e3257612e31612de0565b5b9250929050565b5f67ffffffffffffffff82169050919050565b612e5581612e39565b8114612e5f575f5ffd5b50565b5f81359050612e7081612e4c565b92915050565b612e7f81612ccb565b8114612e89575f5ffd5b50565b5f81359050612e9a81612e76565b92915050565b5f5f5f5f5f5f5f60a0888a031215612ebb57612eba612bd6565b5b5f88013567ffffffffffffffff811115612ed857612ed7612bda565b5b612ee48a828b01612de4565b9750975050602088013567ffffffffffffffff811115612f0757612f06612bda565b5b612f138a828b01612de4565b95509550506040612f268a828b01612e62565b9350506060612f378a828b01612e8c565b9250506080612f488a828b01612bfd565b91505092959891949750929550565b5f5f60408385031215612f6d57612f6c612bd6565b5b5f612f7a85828601612bfd565b9250506020612f8b85828601612e8c565b9150509250929050565b5f8115159050919050565b612fa981612f95565b82525050565b5f606082019050612fc25f830186612c84565b612fcf6020830185612c84565b612fdc6040830184612fa0565b949350505050565b5f602082019050612ff75f830184612fa0565b92915050565b5f5f6040838503121561301357613012612bd6565b5b5f61302085828601612bfd565b925050602061303185828601612c20565b9150509250929050565b5f602082840312156130505761304f612bd6565b5b5f61305d84828501612e8c565b91505092915050565b5f81519050919050565b5f82825260208201905092915050565b8281835e5f83830152505050565b5f601f19601f8301169050919050565b5f6130a882613066565b6130b28185613070565b93506130c2818560208601613080565b6130cb8161308e565b840191505092915050565b6130df81612e39565b82525050565b6130ee81612ccb565b82525050565b6130fd81612bde565b82525050565b61310c81612f95565b82525050565b7f4e487b71000000000000000000000000000000000000000000000000000000005f52602160045260245ffd5b600281106131505761314f613112565b5b50565b5f8190506131608261313f565b919050565b5f61316f82613153565b9050919050565b61317f81613165565b82525050565b5f6101c083015f8301518482035f8601526131a0828261309e565b915050602083015184820360208601526131ba828261309e565b91505060408301516131cf60408601826130d6565b5060608301516131e260608601826130e5565b5060808301516131f560808601826130e5565b5060a083015161320860a08601826130f4565b5060c083015161321b60c08601826130f4565b5060e083015161322e60e08601826130f4565b506101008301516132436101008601826130f4565b506101208301516132586101208601826130f4565b5061014083015161326d6101408601826130f4565b50610160830151613282610160860182613103565b50610180830151613297610180860182613176565b506101a08301516132ac6101a0860182613103565b508091505092915050565b5f6020820190508181035f8301526132cf8184613185565b905092915050565b7f4e487b71000000000000000000000000000000000000000000000000000000005f52601160045260245ffd5b5f61330e82612bde565b915061331983612bde565b925082820261332781612bde565b9150828204841483151761333e5761333d6132d7565b5b5092915050565b7f4e487b71000000000000000000000000000000000000000000000000000000005f52601260045260245ffd5b5f61337c82612bde565b915061338783612bde565b92508261339757613396613345565b5b828204905092915050565b5f6133ac82612bde565b91506133b783612bde565b92508282039050818111156133cf576133ce6132d7565b5b92915050565b5f6133df82612bde565b91506133ea83612bde565b9250828201905080821115613402576134016132d7565b5b92915050565b5f60808201905061341b5f830187612c84565b6134286020830186612c84565b6134356040830185612c84565b6134426060830184612c84565b95945050505050565b5f61345582612bde565b91507fffffffffffffffffffffffffffffffffffffffffffffffffffffffffffffffff8203613487576134866132d7565b5b600182019050919050565b7f4e487b71000000000000000000000000000000000000000000000000000000005f52604160045260245ffd5b7f4e487b71000000000000000000000000000000000000000000000000000000005f52602260045260245ffd5b5f600282049050600182168061350357607f821691505b602082108103613516576135156134bf565b5b50919050565b5f819050815f5260205f209050919050565b5f6020601f8301049050919050565b5f82821b905092915050565b5f600883026135787fffffffffffffffffffffffffffffffffffffffffffffffffffffffffffffffff8261353d565b613582868361353d565b95508019841693508086168417925050509392505050565b5f6135b46135af6135aa84612bde565b612d2f565b612bde565b9050919050565b5f819050919050565b6135cd8361359a565b6135e16135d9826135bb565b848454613549565b825550505050565b5f5f905090565b6135f86135e9565b6136038184846135c4565b505050565b5b818110156136265761361b5f826135f0565b600181019050613609565b5050565b601f82111561366b5761363c8161351c565b6136458461352e565b81016020851015613654578190505b6136686136608561352e565b830182613608565b50505b505050565b5f82821c905092915050565b5f61368b5f1984600802613670565b1980831691505092915050565b5f6136a3838361367c565b9150826002028217905092915050565b6136bc82613066565b67ffffffffffffffff8111156136d5576136d4613492565b5b6136df82546134ec565b6136ea82828561362a565b5f60209050601f83116001811461371b575f8415613709578287015190505b6137138582613698565b86555061377a565b601f1984166137298661351c565b5f5b828110156137505784890151825560018201915060208501945060208101905061372b565b8683101561376d5784890151613769601f89168261367c565b8355505b6001600288020188555050505b505050505050565b5f82825260208201905092915050565b828183375f83830152505050565b5f6137ab8385613782565b93506137b8838584613792565b6137c18361308e565b840190509392505050565b6137d581612e39565b82525050565b5f6060820190508181035f8301526137f48186886137a0565b905061380360208301856137cc565b6138106040830184612c84565b9594505050505056fea26469706673582212206918db86c5401c727098af9c50ec3f210e41c3559771d9ba39b245d0c86fc0ca64736f6c634300081c0033","opcodes":"PUSH1 0xC0 PUSH1 0x40 MSTORE CALLVALUE DUP1 ISZERO PUSH2 0xF JUMPI PUSH0 PUSH0 REVERT JUMPDEST POP PUSH1 0x40 MLOAD PUSH2 0x3C2A CODESIZE SUB DUP1 PUSH2 0x3C2A DUP4 CODECOPY DUP2 DUP2 ADD PUSH1 0x40 MSTORE DUP2 ADD SWAP1 PUSH2 0x31 SWAP2 SWAP1 PUSH2 0x31D JUMP JUMPDEST PUSH1 0x1 PUSH2 0x4F PUSH2 0x44 PUSH2 0x256 PUSH1 0x20 SHL PUSH1 0x20 SHR JUMP JUMPDEST PUSH2 0x27F PUSH1 0x20 SHL PUSH1 0x20 SHR JUMP JUMPDEST PUSH0 ADD DUP2 SWAP1 SSTORE POP PUSH0 PUSH20 0xFFFFFFFFFFFFFFFFFFFFFFFFFFFFFFFFFFFFFFFF AND DUP4 PUSH20 0xFFFFFFFFFFFFFFFFFFFFFFFFFFFFFFFFFFFFFFFF AND EQ DUP1 PUSH2 0xBA JUMPI POP PUSH0 PUSH20 0xFFFFFFFFFFFFFFFFFFFFFFFFFFFFFFFFFFFFFFFF AND DUP3 PUSH20 0xFFFFFFFFFFFFFFFFFFFFFFFFFFFFFFFFFFFFFFFF AND EQ JUMPDEST ISZERO PUSH2 0xF1 JUMPI PUSH1 0x40 MLOAD PUSH32 0xE6C4247B00000000000000000000000000000000000000000000000000000000 DUP2 MSTORE PUSH1 0x4 ADD PUSH1 0x40 MLOAD DUP1 SWAP2 SUB SWAP1 REVERT JUMPDEST PUSH2 0x1F4 DUP2 PUSH2 0xFFFF AND GT ISZERO PUSH2 0x131 JUMPI PUSH1 0x40 MLOAD PUSH32 0x58D620B300000000000000000000000000000000000000000000000000000000 DUP2 MSTORE PUSH1 0x4 ADD PUSH1 0x40 MLOAD DUP1 SWAP2 SUB SWAP1 REVERT JUMPDEST DUP3 PUSH20 0xFFFFFFFFFFFFFFFFFFFFFFFFFFFFFFFFFFFFFFFF AND PUSH1 0x80 DUP2 PUSH20 0xFFFFFFFFFFFFFFFFFFFFFFFFFFFFFFFFFFFFFFFF AND DUP2 MSTORE POP POP DUP2 PUSH1 0x1 PUSH0 PUSH2 0x100 EXP DUP2 SLOAD DUP2 PUSH20 0xFFFFFFFFFFFFFFFFFFFFFFFFFFFFFFFFFFFFFFFF MUL NOT AND SWAP1 DUP4 PUSH20 0xFFFFFFFFFFFFFFFFFFFFFFFFFFFFFFFFFFFFFFFF AND MUL OR SWAP1 SSTORE POP DUP1 PUSH2 0xFFFF AND PUSH1 0xA0 DUP2 PUSH2 0xFFFF AND DUP2 MSTORE POP POP CALLER PUSH0 PUSH0 PUSH2 0x100 EXP DUP2 SLOAD DUP2 PUSH20 0xFFFFFFFFFFFFFFFFFFFFFFFFFFFFFFFFFFFFFFFF MUL NOT AND SWAP1 DUP4 PUSH20 0xFFFFFFFFFFFFFFFFFFFFFFFFFFFFFFFFFFFFFFFF AND MUL OR SWAP1 SSTORE POP CALLER PUSH20 0xFFFFFFFFFFFFFFFFFFFFFFFFFFFFFFFFFFFFFFFF AND PUSH0 PUSH20 0xFFFFFFFFFFFFFFFFFFFFFFFFFFFFFFFFFFFFFFFF AND PUSH32 0x8BE0079C531659141344CD1FD0A4F28419497F9722A3DAAFE3B4186F6B6457E0 PUSH1 0x40 MLOAD PUSH1 0x40 MLOAD DUP1 SWAP2 SUB SWAP1 LOG3 POP POP POP PUSH2 0x36D JUMP JUMPDEST PUSH0 PUSH32 0x9B779B17422D0DF92223018B32B4D1FA46E071723D6817E2486D003BECC55F00 PUSH0 SHL SWAP1 POP SWAP1 JUMP JUMPDEST PUSH0 DUP2 SWAP1 POP SWAP2 SWAP1 POP JUMP JUMPDEST PUSH0 PUSH0 REVERT JUMPDEST PUSH0 PUSH20 0xFFFFFFFFFFFFFFFFFFFFFFFFFFFFFFFFFFFFFFFF DUP3 AND SWAP1 POP SWAP2 SWAP1 POP JUMP JUMPDEST PUSH0 PUSH2 0x2B5 DUP3 PUSH2 0x28C JUMP JUMPDEST SWAP1 POP SWAP2 SWAP1 POP JUMP JUMPDEST PUSH2 0x2C5 DUP2 PUSH2 0x2AB JUMP JUMPDEST DUP2 EQ PUSH2 0x2CF JUMPI PUSH0 PUSH0 REVERT JUMPDEST POP JUMP JUMPDEST PUSH0 DUP2 MLOAD SWAP1 POP PUSH2 0x2E0 DUP2 PUSH2 0x2BC JUMP JUMPDEST SWAP3 SWAP2 POP POP JUMP JUMPDEST PUSH0 PUSH2 0xFFFF DUP3 AND SWAP1 POP SWAP2 SWAP1 POP JUMP JUMPDEST PUSH2 0x2FC DUP2 PUSH2 0x2E6 JUMP JUMPDEST DUP2 EQ PUSH2 0x306 JUMPI PUSH0 PUSH0 REVERT JUMPDEST POP JUMP JUMPDEST PUSH0 DUP2 MLOAD SWAP1 POP PUSH2 0x317 DUP2 PUSH2 0x2F3 JUMP JUMPDEST SWAP3 SWAP2 POP POP JUMP JUMPDEST PUSH0 PUSH0 PUSH0 PUSH1 0x60 DUP5 DUP7 SUB SLT ISZERO PUSH2 0x334 JUMPI PUSH2 0x333 PUSH2 0x288 JUMP JUMPDEST JUMPDEST PUSH0 PUSH2 0x341 DUP7 DUP3 DUP8 ADD PUSH2 0x2D2 JUMP JUMPDEST SWAP4 POP POP PUSH1 0x20 PUSH2 0x352 DUP7 DUP3 DUP8 ADD PUSH2 0x2D2 JUMP JUMPDEST SWAP3 POP POP PUSH1 0x40 PUSH2 0x363 DUP7 DUP3 DUP8 ADD PUSH2 0x309 JUMP JUMPDEST SWAP2 POP POP SWAP3 POP SWAP3 POP SWAP3 JUMP JUMPDEST PUSH1 0x80 MLOAD PUSH1 0xA0 MLOAD PUSH2 0x384F PUSH2 0x3DB PUSH0 CODECOPY PUSH0 DUP2 DUP2 PUSH2 0x425 ADD MSTORE DUP2 DUP2 PUSH2 0x53D ADD MSTORE DUP2 DUP2 PUSH2 0xE2F ADD MSTORE DUP2 DUP2 PUSH2 0x16BC ADD MSTORE PUSH2 0x241F ADD MSTORE PUSH0 DUP2 DUP2 PUSH2 0x5C7 ADD MSTORE DUP2 DUP2 PUSH2 0x63C ADD MSTORE DUP2 DUP2 PUSH2 0xE98 ADD MSTORE DUP2 DUP2 PUSH2 0xF0C ADD MSTORE DUP2 DUP2 PUSH2 0x113A ADD MSTORE DUP2 DUP2 PUSH2 0x152E ADD MSTORE DUP2 DUP2 PUSH2 0x160E ADD MSTORE PUSH2 0x182B ADD MSTORE PUSH2 0x384F PUSH0 RETURN INVALID PUSH1 0x80 PUSH1 0x40 MSTORE CALLVALUE DUP1 ISZERO PUSH2 0xF JUMPI PUSH0 PUSH0 REVERT JUMPDEST POP PUSH1 0x4 CALLDATASIZE LT PUSH2 0x11F JUMPI PUSH0 CALLDATALOAD PUSH1 0xE0 SHR DUP1 PUSH4 0xB6C77D67 GT PUSH2 0xAB JUMPI DUP1 PUSH4 0xE74B981B GT PUSH2 0x6F JUMPI DUP1 PUSH4 0xE74B981B EQ PUSH2 0x36B JUMPI DUP1 PUSH4 0xEB44FDD3 EQ PUSH2 0x387 JUMPI DUP1 PUSH4 0xEC979082 EQ PUSH2 0x3B7 JUMPI DUP1 PUSH4 0xED5A13A2 EQ PUSH2 0x3D5 JUMPI DUP1 PUSH4 0xF2FDE38B EQ PUSH2 0x407 JUMPI PUSH2 0x11F JUMP JUMPDEST DUP1 PUSH4 0xB6C77D67 EQ PUSH2 0x28B JUMPI DUP1 PUSH4 0xD21FB764 EQ PUSH2 0x2BD JUMPI DUP1 PUSH4 0xD29F541D EQ PUSH2 0x2ED JUMPI DUP1 PUSH4 0xDDA8744D EQ PUSH2 0x31F JUMPI DUP1 PUSH4 0xDF55406E EQ PUSH2 0x34F JUMPI PUSH2 0x11F JUMP JUMPDEST DUP1 PUSH4 0x81723535 GT PUSH2 0xF2 JUMPI DUP1 PUSH4 0x81723535 EQ PUSH2 0x1BF JUMPI DUP1 PUSH4 0x8A69614E EQ PUSH2 0x1EF JUMPI DUP1 PUSH4 0x8DA5CB5B EQ PUSH2 0x21F JUMPI DUP1 PUSH4 0x9D42026F EQ PUSH2 0x23D JUMPI DUP1 PUSH4 0xB2016BD4 EQ PUSH2 0x26D JUMPI PUSH2 0x11F JUMP JUMPDEST DUP1 PUSH4 0x24A9D853 EQ PUSH2 0x123 JUMPI DUP1 PUSH4 0x39B61811 EQ PUSH2 0x141 JUMPI DUP1 PUSH4 0x46904840 EQ PUSH2 0x171 JUMPI DUP1 PUSH4 0x5F90DC6E EQ PUSH2 0x18F JUMPI JUMPDEST PUSH0 PUSH0 REVERT JUMPDEST PUSH2 0x12B PUSH2 0x423 JUMP JUMPDEST PUSH1 0x40 MLOAD PUSH2 0x138 SWAP2 SWAP1 PUSH2 0x2BBD JUMP JUMPDEST PUSH1 0x40 MLOAD DUP1 SWAP2 SUB SWAP1 RETURN JUMPDEST PUSH2 0x15B PUSH1 0x4 DUP1 CALLDATASIZE SUB DUP2 ADD SWAP1 PUSH2 0x156 SWAP2 SWAP1 PUSH2 0x2C34 JUMP JUMPDEST PUSH2 0x447 JUMP JUMPDEST PUSH1 0x40 MLOAD PUSH2 0x168 SWAP2 SWAP1 PUSH2 0x2C93 JUMP JUMPDEST PUSH1 0x40 MLOAD DUP1 SWAP2 SUB SWAP1 RETURN JUMPDEST PUSH2 0x179 PUSH2 0x966 JUMP JUMPDEST PUSH1 0x40 MLOAD PUSH2 0x186 SWAP2 SWAP1 PUSH2 0x2CEB JUMP JUMPDEST PUSH1 0x40 MLOAD DUP1 SWAP2 SUB SWAP1 RETURN JUMPDEST PUSH2 0x1A9 PUSH1 0x4 DUP1 CALLDATASIZE SUB DUP2 ADD SWAP1 PUSH2 0x1A4 SWAP2 SWAP1 PUSH2 0x2C34 JUMP JUMPDEST PUSH2 0x98B JUMP JUMPDEST PUSH1 0x40 MLOAD PUSH2 0x1B6 SWAP2 SWAP1 PUSH2 0x2C93 JUMP JUMPDEST PUSH1 0x40 MLOAD DUP1 SWAP2 SUB SWAP1 RETURN JUMPDEST PUSH2 0x1D9 PUSH1 0x4 DUP1 CALLDATASIZE SUB DUP2 ADD SWAP1 PUSH2 0x1D4 SWAP2 SWAP1 PUSH2 0x2D04 JUMP JUMPDEST PUSH2 0xFCB JUMP JUMPDEST PUSH1 0x40 MLOAD PUSH2 0x1E6 SWAP2 SWAP1 PUSH2 0x2C93 JUMP JUMPDEST PUSH1 0x40 MLOAD DUP1 SWAP2 SUB SWAP1 RETURN JUMPDEST PUSH2 0x209 PUSH1 0x4 DUP1 CALLDATASIZE SUB DUP2 ADD SWAP1 PUSH2 0x204 SWAP2 SWAP1 PUSH2 0x2D04 JUMP JUMPDEST PUSH2 0x11DC JUMP JUMPDEST PUSH1 0x40 MLOAD PUSH2 0x216 SWAP2 SWAP1 PUSH2 0x2C93 JUMP JUMPDEST PUSH1 0x40 MLOAD DUP1 SWAP2 SUB SWAP1 RETURN JUMPDEST PUSH2 0x227 PUSH2 0x15CF JUMP JUMPDEST PUSH1 0x40 MLOAD PUSH2 0x234 SWAP2 SWAP1 PUSH2 0x2CEB JUMP JUMPDEST PUSH1 0x40 MLOAD DUP1 SWAP2 SUB SWAP1 RETURN JUMPDEST PUSH2 0x257 PUSH1 0x4 DUP1 CALLDATASIZE SUB DUP2 ADD SWAP1 PUSH2 0x252 SWAP2 SWAP1 PUSH2 0x2D04 JUMP JUMPDEST PUSH2 0x15F3 JUMP JUMPDEST PUSH1 0x40 MLOAD PUSH2 0x264 SWAP2 SWAP1 PUSH2 0x2C93 JUMP JUMPDEST PUSH1 0x40 MLOAD DUP1 SWAP2 SUB SWAP1 RETURN JUMPDEST PUSH2 0x275 PUSH2 0x160C JUMP JUMPDEST PUSH1 0x40 MLOAD PUSH2 0x282 SWAP2 SWAP1 PUSH2 0x2D8A JUMP JUMPDEST PUSH1 0x40 MLOAD DUP1 SWAP2 SUB SWAP1 RETURN JUMPDEST PUSH2 0x2A5 PUSH1 0x4 DUP1 CALLDATASIZE SUB DUP2 ADD SWAP1 PUSH2 0x2A0 SWAP2 SWAP1 PUSH2 0x2C34 JUMP JUMPDEST PUSH2 0x1630 JUMP JUMPDEST PUSH1 0x40 MLOAD PUSH2 0x2B4 SWAP4 SWAP3 SWAP2 SWAP1 PUSH2 0x2DA3 JUMP JUMPDEST PUSH1 0x40 MLOAD DUP1 SWAP2 SUB SWAP1 RETURN JUMPDEST PUSH2 0x2D7 PUSH1 0x4 DUP1 CALLDATASIZE SUB DUP2 ADD SWAP1 PUSH2 0x2D2 SWAP2 SWAP1 PUSH2 0x2EA0 JUMP JUMPDEST PUSH2 0x171B JUMP JUMPDEST PUSH1 0x40 MLOAD PUSH2 0x2E4 SWAP2 SWAP1 PUSH2 0x2C93 JUMP JUMPDEST PUSH1 0x40 MLOAD DUP1 SWAP2 SUB SWAP1 RETURN JUMPDEST PUSH2 0x307 PUSH1 0x4 DUP1 CALLDATASIZE SUB DUP2 ADD SWAP1 PUSH2 0x302 SWAP2 SWAP1 PUSH2 0x2F57 JUMP JUMPDEST PUSH2 0x1BDF JUMP JUMPDEST PUSH1 0x40 MLOAD PUSH2 0x316 SWAP4 SWAP3 SWAP2 SWAP1 PUSH2 0x2FAF JUMP JUMPDEST PUSH1 0x40 MLOAD DUP1 SWAP2 SUB SWAP1 RETURN JUMPDEST PUSH2 0x339 PUSH1 0x4 DUP1 CALLDATASIZE SUB DUP2 ADD SWAP1 PUSH2 0x334 SWAP2 SWAP1 PUSH2 0x2F57 JUMP JUMPDEST PUSH2 0x1CEC JUMP JUMPDEST PUSH1 0x40 MLOAD PUSH2 0x346 SWAP2 SWAP1 PUSH2 0x2FE4 JUMP JUMPDEST PUSH1 0x40 MLOAD DUP1 SWAP2 SUB SWAP1 RETURN JUMPDEST PUSH2 0x369 PUSH1 0x4 DUP1 CALLDATASIZE SUB DUP2 ADD SWAP1 PUSH2 0x364 SWAP2 SWAP1 PUSH2 0x2FFD JUMP JUMPDEST PUSH2 0x1D16 JUMP JUMPDEST STOP JUMPDEST PUSH2 0x385 PUSH1 0x4 DUP1 CALLDATASIZE SUB DUP2 ADD SWAP1 PUSH2 0x380 SWAP2 SWAP1 PUSH2 0x303B JUMP JUMPDEST PUSH2 0x1F6F JUMP JUMPDEST STOP JUMPDEST PUSH2 0x3A1 PUSH1 0x4 DUP1 CALLDATASIZE SUB DUP2 ADD SWAP1 PUSH2 0x39C SWAP2 SWAP1 PUSH2 0x2D04 JUMP JUMPDEST PUSH2 0x211C JUMP JUMPDEST PUSH1 0x40 MLOAD PUSH2 0x3AE SWAP2 SWAP1 PUSH2 0x32B7 JUMP JUMPDEST PUSH1 0x40 MLOAD DUP1 SWAP2 SUB SWAP1 RETURN JUMPDEST PUSH2 0x3BF PUSH2 0x23E7 JUMP JUMPDEST PUSH1 0x40 MLOAD PUSH2 0x3CC SWAP2 SWAP1 PUSH2 0x2C93 JUMP JUMPDEST PUSH1 0x40 MLOAD DUP1 SWAP2 SUB SWAP1 RETURN JUMPDEST PUSH2 0x3EF PUSH1 0x4 DUP1 CALLDATASIZE SUB DUP2 ADD SWAP1 PUSH2 0x3EA SWAP2 SWAP1 PUSH2 0x2C34 JUMP JUMPDEST PUSH2 0x23ED JUMP JUMPDEST PUSH1 0x40 MLOAD PUSH2 0x3FE SWAP4 SWAP3 SWAP2 SWAP1 PUSH2 0x2DA3 JUMP JUMPDEST PUSH1 0x40 MLOAD DUP1 SWAP2 SUB SWAP1 RETURN JUMPDEST PUSH2 0x421 PUSH1 0x4 DUP1 CALLDATASIZE SUB DUP2 ADD SWAP1 PUSH2 0x41C SWAP2 SWAP1 PUSH2 0x303B JUMP JUMPDEST PUSH2 0x24F0 JUMP JUMPDEST STOP JUMPDEST PUSH32 0x0 DUP2 JUMP JUMPDEST PUSH0 PUSH2 0x450 PUSH2 0x269B JUMP JUMPDEST PUSH0 PUSH2 0x45A DUP6 PUSH2 0x26BD JUMP JUMPDEST SWAP1 POP DUP1 PUSH1 0xA ADD PUSH0 SWAP1 SLOAD SWAP1 PUSH2 0x100 EXP SWAP1 DIV PUSH1 0xFF AND ISZERO PUSH2 0x4A4 JUMPI PUSH1 0x40 MLOAD PUSH32 0xAA43CB2D00000000000000000000000000000000000000000000000000000000 DUP2 MSTORE PUSH1 0x4 ADD PUSH1 0x40 MLOAD DUP1 SWAP2 SUB SWAP1 REVERT JUMPDEST DUP1 PUSH1 0x2 ADD PUSH0 SWAP1 SLOAD SWAP1 PUSH2 0x100 EXP SWAP1 DIV PUSH8 0xFFFFFFFFFFFFFFFF AND PUSH8 0xFFFFFFFFFFFFFFFF AND TIMESTAMP LT PUSH2 0x4FE JUMPI PUSH1 0x40 MLOAD PUSH32 0xB5F6BF000000000000000000000000000000000000000000000000000000000 DUP2 MSTORE PUSH1 0x4 ADD PUSH1 0x40 MLOAD DUP1 SWAP2 SUB SWAP1 REVERT JUMPDEST PUSH0 DUP4 SUB PUSH2 0x537 JUMPI PUSH1 0x40 MLOAD PUSH32 0x2C5211C600000000000000000000000000000000000000000000000000000000 DUP2 MSTORE PUSH1 0x4 ADD PUSH1 0x40 MLOAD DUP1 SWAP2 SUB SWAP1 REVERT JUMPDEST PUSH0 PUSH2 0x2710 PUSH32 0x0 PUSH2 0xFFFF AND DUP6 PUSH2 0x56B SWAP2 SWAP1 PUSH2 0x3304 JUMP JUMPDEST PUSH2 0x575 SWAP2 SWAP1 PUSH2 0x3372 JUMP JUMPDEST SWAP1 POP PUSH0 DUP2 DUP6 PUSH2 0x584 SWAP2 SWAP1 PUSH2 0x33A2 JUMP JUMPDEST SWAP1 POP PUSH0 DUP2 SUB PUSH2 0x5BF JUMPI PUSH1 0x40 MLOAD PUSH32 0x2C5211C600000000000000000000000000000000000000000000000000000000 DUP2 MSTORE PUSH1 0x4 ADD PUSH1 0x40 MLOAD DUP1 SWAP2 SUB SWAP1 REVERT JUMPDEST PUSH2 0x60C CALLER ADDRESS DUP8 PUSH32 0x0 PUSH20 0xFFFFFFFFFFFFFFFFFFFFFFFFFFFFFFFFFFFFFFFF AND PUSH2 0x271C SWAP1 SWAP4 SWAP3 SWAP2 SWAP1 PUSH4 0xFFFFFFFF AND JUMP JUMPDEST PUSH0 DUP3 GT ISZERO PUSH2 0x681 JUMPI PUSH2 0x680 PUSH1 0x1 PUSH0 SWAP1 SLOAD SWAP1 PUSH2 0x100 EXP SWAP1 DIV PUSH20 0xFFFFFFFFFFFFFFFFFFFFFFFFFFFFFFFFFFFFFFFF AND DUP4 PUSH32 0x0 PUSH20 0xFFFFFFFFFFFFFFFFFFFFFFFFFFFFFFFFFFFFFFFF AND PUSH2 0x2771 SWAP1 SWAP3 SWAP2 SWAP1 PUSH4 0xFFFFFFFF AND JUMP JUMPDEST JUMPDEST PUSH0 PUSH0 PUSH1 0x1 DUP2 GT ISZERO PUSH2 0x695 JUMPI PUSH2 0x694 PUSH2 0x3112 JUMP JUMPDEST JUMPDEST DUP8 PUSH1 0x1 DUP2 GT ISZERO PUSH2 0x6A8 JUMPI PUSH2 0x6A7 PUSH2 0x3112 JUMP JUMPDEST JUMPDEST SUB PUSH2 0x7C2 JUMPI PUSH2 0x6C0 DUP3 DUP6 PUSH1 0x5 ADD SLOAD DUP7 PUSH1 0x4 ADD SLOAD PUSH2 0x27C4 JUMP JUMPDEST SWAP1 POP DUP4 PUSH1 0x4 ADD SLOAD DUP2 LT PUSH2 0x6FF JUMPI PUSH1 0x40 MLOAD PUSH32 0xBB55FD2700000000000000000000000000000000000000000000000000000000 DUP2 MSTORE PUSH1 0x4 ADD PUSH1 0x40 MLOAD DUP1 SWAP2 SUB SWAP1 REVERT JUMPDEST DUP2 DUP5 PUSH1 0x5 ADD PUSH0 DUP3 DUP3 SLOAD PUSH2 0x712 SWAP2 SWAP1 PUSH2 0x33D5 JUMP JUMPDEST SWAP3 POP POP DUP2 SWAP1 SSTORE POP DUP1 DUP5 PUSH1 0x4 ADD PUSH0 DUP3 DUP3 SLOAD PUSH2 0x72C SWAP2 SWAP1 PUSH2 0x33A2 JUMP JUMPDEST SWAP3 POP POP DUP2 SWAP1 SSTORE POP DUP1 DUP3 PUSH2 0x73F SWAP2 SWAP1 PUSH2 0x33D5 JUMP JUMPDEST SWAP5 POP DUP5 PUSH1 0x4 PUSH0 DUP11 DUP2 MSTORE PUSH1 0x20 ADD SWAP1 DUP2 MSTORE PUSH1 0x20 ADD PUSH0 KECCAK256 PUSH0 CALLER PUSH20 0xFFFFFFFFFFFFFFFFFFFFFFFFFFFFFFFFFFFFFFFF AND PUSH20 0xFFFFFFFFFFFFFFFFFFFFFFFFFFFFFFFFFFFFFFFF AND DUP2 MSTORE PUSH1 0x20 ADD SWAP1 DUP2 MSTORE PUSH1 0x20 ADD PUSH0 KECCAK256 PUSH0 DUP3 DUP3 SLOAD PUSH2 0x79C SWAP2 SWAP1 PUSH2 0x33D5 JUMP JUMPDEST SWAP3 POP POP DUP2 SWAP1 SSTORE POP DUP5 DUP5 PUSH1 0x7 ADD PUSH0 DUP3 DUP3 SLOAD PUSH2 0x7B6 SWAP2 SWAP1 PUSH2 0x33D5 JUMP JUMPDEST SWAP3 POP POP DUP2 SWAP1 SSTORE POP PUSH2 0x8D3 JUMP JUMPDEST PUSH2 0x7D5 DUP3 DUP6 PUSH1 0x4 ADD SLOAD DUP7 PUSH1 0x5 ADD SLOAD PUSH2 0x27C4 JUMP JUMPDEST SWAP1 POP DUP4 PUSH1 0x5 ADD SLOAD DUP2 LT PUSH2 0x814 JUMPI PUSH1 0x40 MLOAD PUSH32 0xBB55FD2700000000000000000000000000000000000000000000000000000000 DUP2 MSTORE PUSH1 0x4 ADD PUSH1 0x40 MLOAD DUP1 SWAP2 SUB SWAP1 REVERT JUMPDEST DUP2 DUP5 PUSH1 0x4 ADD PUSH0 DUP3 DUP3 SLOAD PUSH2 0x827 SWAP2 SWAP1 PUSH2 0x33D5 JUMP JUMPDEST SWAP3 POP POP DUP2 SWAP1 SSTORE POP DUP1 DUP5 PUSH1 0x5 ADD PUSH0 DUP3 DUP3 SLOAD PUSH2 0x841 SWAP2 SWAP1 PUSH2 0x33A2 JUMP JUMPDEST SWAP3 POP POP DUP2 SWAP1 SSTORE POP DUP1 DUP3 PUSH2 0x854 SWAP2 SWAP1 PUSH2 0x33D5 JUMP JUMPDEST SWAP5 POP DUP5 PUSH1 0x5 PUSH0 DUP11 DUP2 MSTORE PUSH1 0x20 ADD SWAP1 DUP2 MSTORE PUSH1 0x20 ADD PUSH0 KECCAK256 PUSH0 CALLER PUSH20 0xFFFFFFFFFFFFFFFFFFFFFFFFFFFFFFFFFFFFFFFF AND PUSH20 0xFFFFFFFFFFFFFFFFFFFFFFFFFFFFFFFFFFFFFFFF AND DUP2 MSTORE PUSH1 0x20 ADD SWAP1 DUP2 MSTORE PUSH1 0x20 ADD PUSH0 KECCAK256 PUSH0 DUP3 DUP3 SLOAD PUSH2 0x8B1 SWAP2 SWAP1 PUSH2 0x33D5 JUMP JUMPDEST SWAP3 POP POP DUP2 SWAP1 SSTORE POP DUP5 DUP5 PUSH1 0x8 ADD PUSH0 DUP3 DUP3 SLOAD PUSH2 0x8CB SWAP2 SWAP1 PUSH2 0x33D5 JUMP JUMPDEST SWAP3 POP POP DUP2 SWAP1 SSTORE POP JUMPDEST DUP2 DUP5 PUSH1 0x6 ADD PUSH0 DUP3 DUP3 SLOAD PUSH2 0x8E6 SWAP2 SWAP1 PUSH2 0x33D5 JUMP JUMPDEST SWAP3 POP POP DUP2 SWAP1 SSTORE POP DUP7 PUSH1 0x1 DUP2 GT ISZERO PUSH2 0x900 JUMPI PUSH2 0x8FF PUSH2 0x3112 JUMP JUMPDEST JUMPDEST CALLER PUSH20 0xFFFFFFFFFFFFFFFFFFFFFFFFFFFFFFFFFFFFFFFF AND DUP10 PUSH32 0x9BE864738DD20C4CEE14975891A144FE600EE582661407C3532C0FF0251216DC DUP10 DUP8 DUP11 PUSH1 0x40 MLOAD PUSH2 0x94B SWAP4 SWAP3 SWAP2 SWAP1 PUSH2 0x2DA3 JUMP JUMPDEST PUSH1 0x40 MLOAD DUP1 SWAP2 SUB SWAP1 LOG4 POP POP POP POP PUSH2 0x95F PUSH2 0x2815 JUMP JUMPDEST SWAP4 SWAP3 POP POP POP JUMP JUMPDEST PUSH1 0x1 PUSH0 SWAP1 SLOAD SWAP1 PUSH2 0x100 EXP SWAP1 DIV PUSH20 0xFFFFFFFFFFFFFFFFFFFFFFFFFFFFFFFFFFFFFFFF AND DUP2 JUMP JUMPDEST PUSH0 PUSH2 0x994 PUSH2 0x269B JUMP JUMPDEST PUSH0 PUSH2 0x99E DUP6 PUSH2 0x26BD JUMP JUMPDEST SWAP1 POP DUP1 PUSH1 0xA ADD PUSH0 SWAP1 SLOAD SWAP1 PUSH2 0x100 EXP SWAP1 DIV PUSH1 0xFF AND ISZERO PUSH2 0x9E8 JUMPI PUSH1 0x40 MLOAD PUSH32 0xAA43CB2D00000000000000000000000000000000000000000000000000000000 DUP2 MSTORE PUSH1 0x4 ADD PUSH1 0x40 MLOAD DUP1 SWAP2 SUB SWAP1 REVERT JUMPDEST DUP1 PUSH1 0x2 ADD PUSH0 SWAP1 SLOAD SWAP1 PUSH2 0x100 EXP SWAP1 DIV PUSH8 0xFFFFFFFFFFFFFFFF AND PUSH8 0xFFFFFFFFFFFFFFFF AND TIMESTAMP LT PUSH2 0xA42 JUMPI PUSH1 0x40 MLOAD PUSH32 0xB5F6BF000000000000000000000000000000000000000000000000000000000 DUP2 MSTORE PUSH1 0x4 ADD PUSH1 0x40 MLOAD DUP1 SWAP2 SUB SWAP1 REVERT JUMPDEST PUSH0 DUP4 SUB PUSH2 0xA7B JUMPI PUSH1 0x40 MLOAD PUSH32 0x2C5211C600000000000000000000000000000000000000000000000000000000 DUP2 MSTORE PUSH1 0x4 ADD PUSH1 0x40 MLOAD DUP1 SWAP2 SUB SWAP1 REVERT JUMPDEST PUSH0 PUSH0 PUSH1 0x1 DUP2 GT ISZERO PUSH2 0xA8F JUMPI PUSH2 0xA8E PUSH2 0x3112 JUMP JUMPDEST JUMPDEST DUP6 PUSH1 0x1 DUP2 GT ISZERO PUSH2 0xAA2 JUMPI PUSH2 0xAA1 PUSH2 0x3112 JUMP JUMPDEST JUMPDEST SUB PUSH2 0xC4B JUMPI DUP4 PUSH1 0x4 PUSH0 DUP9 DUP2 MSTORE PUSH1 0x20 ADD SWAP1 DUP2 MSTORE PUSH1 0x20 ADD PUSH0 KECCAK256 PUSH0 CALLER PUSH20 0xFFFFFFFFFFFFFFFFFFFFFFFFFFFFFFFFFFFFFFFF AND PUSH20 0xFFFFFFFFFFFFFFFFFFFFFFFFFFFFFFFFFFFFFFFF AND DUP2 MSTORE PUSH1 0x20 ADD SWAP1 DUP2 MSTORE PUSH1 0x20 ADD PUSH0 KECCAK256 SLOAD LT ISZERO PUSH2 0xB2D JUMPI PUSH1 0x40 MLOAD PUSH32 0x3999656700000000000000000000000000000000000000000000000000000000 DUP2 MSTORE PUSH1 0x4 ADD PUSH1 0x40 MLOAD DUP1 SWAP2 SUB SWAP1 REVERT JUMPDEST PUSH2 0xB40 DUP3 PUSH1 0x4 ADD SLOAD DUP4 PUSH1 0x5 ADD SLOAD DUP7 PUSH2 0x282F JUMP JUMPDEST SWAP1 POP PUSH0 DUP2 EQ DUP1 PUSH2 0xB54 JUMPI POP DUP2 PUSH1 0x5 ADD SLOAD DUP2 LT ISZERO JUMPDEST ISZERO PUSH2 0xB8B JUMPI PUSH1 0x40 MLOAD PUSH32 0xBB55FD2700000000000000000000000000000000000000000000000000000000 DUP2 MSTORE PUSH1 0x4 ADD PUSH1 0x40 MLOAD DUP1 SWAP2 SUB SWAP1 REVERT JUMPDEST DUP4 PUSH1 0x4 PUSH0 DUP9 DUP2 MSTORE PUSH1 0x20 ADD SWAP1 DUP2 MSTORE PUSH1 0x20 ADD PUSH0 KECCAK256 PUSH0 CALLER PUSH20 0xFFFFFFFFFFFFFFFFFFFFFFFFFFFFFFFFFFFFFFFF AND PUSH20 0xFFFFFFFFFFFFFFFFFFFFFFFFFFFFFFFFFFFFFFFF AND DUP2 MSTORE PUSH1 0x20 ADD SWAP1 DUP2 MSTORE PUSH1 0x20 ADD PUSH0 KECCAK256 PUSH0 DUP3 DUP3 SLOAD PUSH2 0xBE6 SWAP2 SWAP1 PUSH2 0x33A2 JUMP JUMPDEST SWAP3 POP POP DUP2 SWAP1 SSTORE POP DUP4 DUP3 PUSH1 0x7 ADD PUSH0 DUP3 DUP3 SLOAD PUSH2 0xC00 SWAP2 SWAP1 PUSH2 0x33A2 JUMP JUMPDEST SWAP3 POP POP DUP2 SWAP1 SSTORE POP DUP1 DUP5 PUSH2 0xC13 SWAP2 SWAP1 PUSH2 0x33A2 JUMP JUMPDEST DUP3 PUSH1 0x4 ADD PUSH0 DUP3 DUP3 SLOAD PUSH2 0xC25 SWAP2 SWAP1 PUSH2 0x33D5 JUMP JUMPDEST SWAP3 POP POP DUP2 SWAP1 SSTORE POP DUP1 DUP3 PUSH1 0x5 ADD PUSH0 DUP3 DUP3 SLOAD PUSH2 0xC3F SWAP2 SWAP1 PUSH2 0x33A2 JUMP JUMPDEST SWAP3 POP POP DUP2 SWAP1 SSTORE POP PUSH2 0xDEB JUMP JUMPDEST DUP4 PUSH1 0x5 PUSH0 DUP9 DUP2 MSTORE PUSH1 0x20 ADD SWAP1 DUP2 MSTORE PUSH1 0x20 ADD PUSH0 KECCAK256 PUSH0 CALLER PUSH20 0xFFFFFFFFFFFFFFFFFFFFFFFFFFFFFFFFFFFFFFFF AND PUSH20 0xFFFFFFFFFFFFFFFFFFFFFFFFFFFFFFFFFFFFFFFF AND DUP2 MSTORE PUSH1 0x20 ADD SWAP1 DUP2 MSTORE PUSH1 0x20 ADD PUSH0 KECCAK256 SLOAD LT ISZERO PUSH2 0xCD1 JUMPI PUSH1 0x40 MLOAD PUSH32 0x3999656700000000000000000000000000000000000000000000000000000000 DUP2 MSTORE PUSH1 0x4 ADD PUSH1 0x40 MLOAD DUP1 SWAP2 SUB SWAP1 REVERT JUMPDEST PUSH2 0xCE4 DUP3 PUSH1 0x5 ADD SLOAD DUP4 PUSH1 0x4 ADD SLOAD DUP7 PUSH2 0x282F JUMP JUMPDEST SWAP1 POP PUSH0 DUP2 EQ DUP1 PUSH2 0xCF8 JUMPI POP DUP2 PUSH1 0x4 ADD SLOAD DUP2 LT ISZERO JUMPDEST ISZERO PUSH2 0xD2F JUMPI PUSH1 0x40 MLOAD PUSH32 0xBB55FD2700000000000000000000000000000000000000000000000000000000 DUP2 MSTORE PUSH1 0x4 ADD PUSH1 0x40 MLOAD DUP1 SWAP2 SUB SWAP1 REVERT JUMPDEST DUP4 PUSH1 0x5 PUSH0 DUP9 DUP2 MSTORE PUSH1 0x20 ADD SWAP1 DUP2 MSTORE PUSH1 0x20 ADD PUSH0 KECCAK256 PUSH0 CALLER PUSH20 0xFFFFFFFFFFFFFFFFFFFFFFFFFFFFFFFFFFFFFFFF AND PUSH20 0xFFFFFFFFFFFFFFFFFFFFFFFFFFFFFFFFFFFFFFFF AND DUP2 MSTORE PUSH1 0x20 ADD SWAP1 DUP2 MSTORE PUSH1 0x20 ADD PUSH0 KECCAK256 PUSH0 DUP3 DUP3 SLOAD PUSH2 0xD8A SWAP2 SWAP1 PUSH2 0x33A2 JUMP JUMPDEST SWAP3 POP POP DUP2 SWAP1 SSTORE POP DUP4 DUP3 PUSH1 0x8 ADD PUSH0 DUP3 DUP3 SLOAD PUSH2 0xDA4 SWAP2 SWAP1 PUSH2 0x33A2 JUMP JUMPDEST SWAP3 POP POP DUP2 SWAP1 SSTORE POP DUP1 DUP5 PUSH2 0xDB7 SWAP2 SWAP1 PUSH2 0x33A2 JUMP JUMPDEST DUP3 PUSH1 0x5 ADD PUSH0 DUP3 DUP3 SLOAD PUSH2 0xDC9 SWAP2 SWAP1 PUSH2 0x33D5 JUMP JUMPDEST SWAP3 POP POP DUP2 SWAP1 SSTORE POP DUP1 DUP3 PUSH1 0x4 ADD PUSH0 DUP3 DUP3 SLOAD PUSH2 0xDE3 SWAP2 SWAP1 PUSH2 0x33A2 JUMP JUMPDEST SWAP3 POP POP DUP2 SWAP1 SSTORE POP JUMPDEST DUP2 PUSH1 0x6 ADD SLOAD DUP2 GT ISZERO PUSH2 0xE29 JUMPI PUSH1 0x40 MLOAD PUSH32 0xBB55FD2700000000000000000000000000000000000000000000000000000000 DUP2 MSTORE PUSH1 0x4 ADD PUSH1 0x40 MLOAD DUP1 SWAP2 SUB SWAP1 REVERT JUMPDEST PUSH0 PUSH2 0x2710 PUSH32 0x0 PUSH2 0xFFFF AND DUP4 PUSH2 0xE5D SWAP2 SWAP1 PUSH2 0x3304 JUMP JUMPDEST PUSH2 0xE67 SWAP2 SWAP1 PUSH2 0x3372 JUMP JUMPDEST SWAP1 POP DUP1 DUP3 PUSH2 0xE75 SWAP2 SWAP1 PUSH2 0x33A2 JUMP JUMPDEST SWAP4 POP DUP2 DUP4 PUSH1 0x6 ADD PUSH0 DUP3 DUP3 SLOAD PUSH2 0xE8A SWAP2 SWAP1 PUSH2 0x33A2 JUMP JUMPDEST SWAP3 POP POP DUP2 SWAP1 SSTORE POP PUSH2 0xEDC CALLER DUP6 PUSH32 0x0 PUSH20 0xFFFFFFFFFFFFFFFFFFFFFFFFFFFFFFFFFFFFFFFF AND PUSH2 0x2771 SWAP1 SWAP3 SWAP2 SWAP1 PUSH4 0xFFFFFFFF AND JUMP JUMPDEST PUSH0 DUP2 GT ISZERO PUSH2 0xF51 JUMPI PUSH2 0xF50 PUSH1 0x1 PUSH0 SWAP1 SLOAD SWAP1 PUSH2 0x100 EXP SWAP1 DIV PUSH20 0xFFFFFFFFFFFFFFFFFFFFFFFFFFFFFFFFFFFFFFFF AND DUP3 PUSH32 0x0 PUSH20 0xFFFFFFFFFFFFFFFFFFFFFFFFFFFFFFFFFFFFFFFF AND PUSH2 0x2771 SWAP1 SWAP3 SWAP2 SWAP1 PUSH4 0xFFFFFFFF AND JUMP JUMPDEST JUMPDEST DUP6 PUSH1 0x1 DUP2 GT ISZERO PUSH2 0xF64 JUMPI PUSH2 0xF63 PUSH2 0x3112 JUMP JUMPDEST JUMPDEST CALLER PUSH20 0xFFFFFFFFFFFFFFFFFFFFFFFFFFFFFFFFFFFFFFFF AND DUP9 PUSH32 0xB62A4504BEFD6B99464AFFDB6BD0D6528DD160F73CE088071D37C731E650D779 DUP9 DUP7 DUP7 DUP11 PUSH1 0x40 MLOAD PUSH2 0xFB1 SWAP5 SWAP4 SWAP3 SWAP2 SWAP1 PUSH2 0x3408 JUMP JUMPDEST PUSH1 0x40 MLOAD DUP1 SWAP2 SUB SWAP1 LOG4 POP POP POP PUSH2 0xFC4 PUSH2 0x2815 JUMP JUMPDEST SWAP4 SWAP3 POP POP POP JUMP JUMPDEST PUSH0 PUSH2 0xFD4 PUSH2 0x269B JUMP JUMPDEST PUSH0 PUSH2 0xFDE DUP4 PUSH2 0x26BD JUMP JUMPDEST SWAP1 POP DUP1 PUSH1 0xA ADD PUSH0 SWAP1 SLOAD SWAP1 PUSH2 0x100 EXP SWAP1 DIV PUSH1 0xFF AND PUSH2 0x1027 JUMPI PUSH1 0x40 MLOAD PUSH32 0x2E96C72600000000000000000000000000000000000000000000000000000000 DUP2 MSTORE PUSH1 0x4 ADD PUSH1 0x40 MLOAD DUP1 SWAP2 SUB SWAP1 REVERT JUMPDEST DUP1 PUSH1 0x3 ADD PUSH0 SWAP1 SLOAD SWAP1 PUSH2 0x100 EXP SWAP1 DIV PUSH20 0xFFFFFFFFFFFFFFFFFFFFFFFFFFFFFFFFFFFFFFFF AND PUSH20 0xFFFFFFFFFFFFFFFFFFFFFFFFFFFFFFFFFFFFFFFF AND CALLER PUSH20 0xFFFFFFFFFFFFFFFFFFFFFFFFFFFFFFFFFFFFFFFF AND EQ PUSH2 0x10AF JUMPI PUSH1 0x40 MLOAD PUSH32 0x47BC7CC800000000000000000000000000000000000000000000000000000000 DUP2 MSTORE PUSH1 0x4 ADD PUSH1 0x40 MLOAD DUP1 SWAP2 SUB SWAP1 REVERT JUMPDEST DUP1 PUSH1 0xA ADD PUSH1 0x2 SWAP1 SLOAD SWAP1 PUSH2 0x100 EXP SWAP1 DIV PUSH1 0xFF AND ISZERO PUSH2 0x10F8 JUMPI PUSH1 0x40 MLOAD PUSH32 0x738C807B00000000000000000000000000000000000000000000000000000000 DUP2 MSTORE PUSH1 0x4 ADD PUSH1 0x40 MLOAD DUP1 SWAP2 SUB SWAP1 REVERT JUMPDEST PUSH1 0x1 DUP2 PUSH1 0xA ADD PUSH1 0x2 PUSH2 0x100 EXP DUP2 SLOAD DUP2 PUSH1 0xFF MUL NOT AND SWAP1 DUP4 ISZERO ISZERO MUL OR SWAP1 SSTORE POP DUP1 PUSH1 0x9 ADD SLOAD DUP2 PUSH1 0x6 ADD SLOAD PUSH2 0x1129 SWAP2 SWAP1 PUSH2 0x33A2 JUMP JUMPDEST SWAP2 POP PUSH0 DUP3 GT ISZERO PUSH2 0x117F JUMPI PUSH2 0x117E CALLER DUP4 PUSH32 0x0 PUSH20 0xFFFFFFFFFFFFFFFFFFFFFFFFFFFFFFFFFFFFFFFF AND PUSH2 0x2771 SWAP1 SWAP3 SWAP2 SWAP1 PUSH4 0xFFFFFFFF AND JUMP JUMPDEST JUMPDEST CALLER PUSH20 0xFFFFFFFFFFFFFFFFFFFFFFFFFFFFFFFFFFFFFFFF AND DUP4 PUSH32 0x3E6A65695DF4386C7D851E9604846372769FB1F6E1F21650AD0085600B68C6F7 DUP5 PUSH1 0x40 MLOAD PUSH2 0x11C6 SWAP2 SWAP1 PUSH2 0x2C93 JUMP JUMPDEST PUSH1 0x40 MLOAD DUP1 SWAP2 SUB SWAP1 LOG3 POP PUSH2 0x11D7 PUSH2 0x2815 JUMP JUMPDEST SWAP2 SWAP1 POP JUMP JUMPDEST PUSH0 PUSH2 0x11E5 PUSH2 0x269B JUMP JUMPDEST PUSH0 PUSH2 0x11EF DUP4 PUSH2 0x26BD JUMP JUMPDEST SWAP1 POP DUP1 PUSH1 0xA ADD PUSH0 SWAP1 SLOAD SWAP1 PUSH2 0x100 EXP SWAP1 DIV PUSH1 0xFF AND PUSH2 0x1238 JUMPI PUSH1 0x40 MLOAD PUSH32 0x2E96C72600000000000000000000000000000000000000000000000000000000 DUP2 MSTORE PUSH1 0x4 ADD PUSH1 0x40 MLOAD DUP1 SWAP2 SUB SWAP1 REVERT JUMPDEST PUSH1 0x6 PUSH0 DUP5 DUP2 MSTORE PUSH1 0x20 ADD SWAP1 DUP2 MSTORE PUSH1 0x20 ADD PUSH0 KECCAK256 PUSH0 CALLER PUSH20 0xFFFFFFFFFFFFFFFFFFFFFFFFFFFFFFFFFFFFFFFF AND PUSH20 0xFFFFFFFFFFFFFFFFFFFFFFFFFFFFFFFFFFFFFFFF AND DUP2 MSTORE PUSH1 0x20 ADD SWAP1 DUP2 MSTORE PUSH1 0x20 ADD PUSH0 KECCAK256 PUSH0 SWAP1 SLOAD SWAP1 PUSH2 0x100 EXP SWAP1 DIV PUSH1 0xFF AND ISZERO PUSH2 0x12C8 JUMPI PUSH1 0x40 MLOAD PUSH32 0x646CF55800000000000000000000000000000000000000000000000000000000 DUP2 MSTORE PUSH1 0x4 ADD PUSH1 0x40 MLOAD DUP1 SWAP2 SUB SWAP1 REVERT JUMPDEST PUSH1 0x1 PUSH1 0x6 PUSH0 DUP6 DUP2 MSTORE PUSH1 0x20 ADD SWAP1 DUP2 MSTORE PUSH1 0x20 ADD PUSH0 KECCAK256 PUSH0 CALLER PUSH20 0xFFFFFFFFFFFFFFFFFFFFFFFFFFFFFFFFFFFFFFFF AND PUSH20 0xFFFFFFFFFFFFFFFFFFFFFFFFFFFFFFFFFFFFFFFF AND DUP2 MSTORE PUSH1 0x20 ADD SWAP1 DUP2 MSTORE PUSH1 0x20 ADD PUSH0 KECCAK256 PUSH0 PUSH2 0x100 EXP DUP2 SLOAD DUP2 PUSH1 0xFF MUL NOT AND SWAP1 DUP4 ISZERO ISZERO MUL OR SWAP1 SSTORE POP PUSH0 PUSH1 0x1 DUP2 GT ISZERO PUSH2 0x133F JUMPI PUSH2 0x133E PUSH2 0x3112 JUMP JUMPDEST JUMPDEST DUP2 PUSH1 0xA ADD PUSH1 0x1 SWAP1 SLOAD SWAP1 PUSH2 0x100 EXP SWAP1 DIV PUSH1 0xFF AND PUSH1 0x1 DUP2 GT ISZERO PUSH2 0x1363 JUMPI PUSH2 0x1362 PUSH2 0x3112 JUMP JUMPDEST JUMPDEST EQ PUSH2 0x13BA JUMPI PUSH1 0x5 PUSH0 DUP5 DUP2 MSTORE PUSH1 0x20 ADD SWAP1 DUP2 MSTORE PUSH1 0x20 ADD PUSH0 KECCAK256 PUSH0 CALLER PUSH20 0xFFFFFFFFFFFFFFFFFFFFFFFFFFFFFFFFFFFFFFFF AND PUSH20 0xFFFFFFFFFFFFFFFFFFFFFFFFFFFFFFFFFFFFFFFF AND DUP2 MSTORE PUSH1 0x20 ADD SWAP1 DUP2 MSTORE PUSH1 0x20 ADD PUSH0 KECCAK256 SLOAD PUSH2 0x1408 JUMP JUMPDEST PUSH1 0x4 PUSH0 DUP5 DUP2 MSTORE PUSH1 0x20 ADD SWAP1 DUP2 MSTORE PUSH1 0x20 ADD PUSH0 KECCAK256 PUSH0 CALLER PUSH20 0xFFFFFFFFFFFFFFFFFFFFFFFFFFFFFFFFFFFFFFFF AND PUSH20 0xFFFFFFFFFFFFFFFFFFFFFFFFFFFFFFFFFFFFFFFF AND DUP2 MSTORE PUSH1 0x20 ADD SWAP1 DUP2 MSTORE PUSH1 0x20 ADD PUSH0 KECCAK256 SLOAD JUMPDEST SWAP2 POP PUSH0 DUP3 SUB PUSH2 0x1443 JUMPI PUSH1 0x40 MLOAD PUSH32 0x969BF72800000000000000000000000000000000000000000000000000000000 DUP2 MSTORE PUSH1 0x4 ADD PUSH1 0x40 MLOAD DUP1 SWAP2 SUB SWAP1 REVERT JUMPDEST PUSH0 PUSH1 0x1 DUP2 GT ISZERO PUSH2 0x1456 JUMPI PUSH2 0x1455 PUSH2 0x3112 JUMP JUMPDEST JUMPDEST DUP2 PUSH1 0xA ADD PUSH1 0x1 SWAP1 SLOAD SWAP1 PUSH2 0x100 EXP SWAP1 DIV PUSH1 0xFF AND PUSH1 0x1 DUP2 GT ISZERO PUSH2 0x147A JUMPI PUSH2 0x1479 PUSH2 0x3112 JUMP JUMPDEST JUMPDEST SUB PUSH2 0x14D5 JUMPI PUSH0 PUSH1 0x4 PUSH0 DUP6 DUP2 MSTORE PUSH1 0x20 ADD SWAP1 DUP2 MSTORE PUSH1 0x20 ADD PUSH0 KECCAK256 PUSH0 CALLER PUSH20 0xFFFFFFFFFFFFFFFFFFFFFFFFFFFFFFFFFFFFFFFF AND PUSH20 0xFFFFFFFFFFFFFFFFFFFFFFFFFFFFFFFFFFFFFFFF AND DUP2 MSTORE PUSH1 0x20 ADD SWAP1 DUP2 MSTORE PUSH1 0x20 ADD PUSH0 KECCAK256 DUP2 SWAP1 SSTORE POP PUSH2 0x1527 JUMP JUMPDEST PUSH0 PUSH1 0x5 PUSH0 DUP6 DUP2 MSTORE PUSH1 0x20 ADD SWAP1 DUP2 MSTORE PUSH1 0x20 ADD PUSH0 KECCAK256 PUSH0 CALLER PUSH20 0xFFFFFFFFFFFFFFFFFFFFFFFFFFFFFFFFFFFFFFFF AND PUSH20 0xFFFFFFFFFFFFFFFFFFFFFFFFFFFFFFFFFFFFFFFF AND DUP2 MSTORE PUSH1 0x20 ADD SWAP1 DUP2 MSTORE PUSH1 0x20 ADD PUSH0 KECCAK256 DUP2 SWAP1 SSTORE POP JUMPDEST PUSH2 0x1572 CALLER DUP4 PUSH32 0x0 PUSH20 0xFFFFFFFFFFFFFFFFFFFFFFFFFFFFFFFFFFFFFFFF AND PUSH2 0x2771 SWAP1 SWAP3 SWAP2 SWAP1 PUSH4 0xFFFFFFFF AND JUMP JUMPDEST CALLER PUSH20 0xFFFFFFFFFFFFFFFFFFFFFFFFFFFFFFFFFFFFFFFF AND DUP4 PUSH32 0xE97CEE5A4C0549D3FDC81E322B718DDF0AEB3418EC87DCE4F9A7FB28D117C312 DUP5 PUSH1 0x40 MLOAD PUSH2 0x15B9 SWAP2 SWAP1 PUSH2 0x2C93 JUMP JUMPDEST PUSH1 0x40 MLOAD DUP1 SWAP2 SUB SWAP1 LOG3 POP PUSH2 0x15CA PUSH2 0x2815 JUMP JUMPDEST SWAP2 SWAP1 POP JUMP JUMPDEST PUSH0 PUSH0 SWAP1 SLOAD SWAP1 PUSH2 0x100 EXP SWAP1 DIV PUSH20 0xFFFFFFFFFFFFFFFFFFFFFFFFFFFFFFFFFFFFFFFF AND DUP2 JUMP JUMPDEST PUSH0 PUSH2 0x1605 PUSH2 0x1600 DUP4 PUSH2 0x26BD JUMP JUMPDEST PUSH2 0x28D0 JUMP JUMPDEST SWAP1 POP SWAP2 SWAP1 POP JUMP JUMPDEST PUSH32 0x0 DUP2 JUMP JUMPDEST PUSH0 PUSH0 PUSH0 PUSH0 PUSH2 0x163D DUP8 PUSH2 0x26BD JUMP JUMPDEST SWAP1 POP PUSH0 DUP6 SUB PUSH2 0x165D JUMPI PUSH0 PUSH0 PUSH2 0x1651 DUP4 PUSH2 0x28D0 JUMP JUMPDEST SWAP4 POP SWAP4 POP SWAP4 POP POP PUSH2 0x1712 JUMP JUMPDEST PUSH0 PUSH0 PUSH1 0x1 DUP2 GT ISZERO PUSH2 0x1671 JUMPI PUSH2 0x1670 PUSH2 0x3112 JUMP JUMPDEST JUMPDEST DUP8 PUSH1 0x1 DUP2 GT ISZERO PUSH2 0x1684 JUMPI PUSH2 0x1683 PUSH2 0x3112 JUMP JUMPDEST JUMPDEST EQ PUSH2 0x16A1 JUMPI PUSH2 0x169C DUP3 PUSH1 0x5 ADD SLOAD DUP4 PUSH1 0x4 ADD SLOAD DUP9 PUSH2 0x282F JUMP JUMPDEST PUSH2 0x16B5 JUMP JUMPDEST PUSH2 0x16B4 DUP3 PUSH1 0x4 ADD SLOAD DUP4 PUSH1 0x5 ADD SLOAD DUP9 PUSH2 0x282F JUMP JUMPDEST JUMPDEST SWAP1 POP PUSH2 0x2710 PUSH32 0x0 PUSH2 0xFFFF AND DUP3 PUSH2 0x16EA SWAP2 SWAP1 PUSH2 0x3304 JUMP JUMPDEST PUSH2 0x16F4 SWAP2 SWAP1 PUSH2 0x3372 JUMP JUMPDEST SWAP4 POP DUP4 DUP2 PUSH2 0x1702 SWAP2 SWAP1 PUSH2 0x33A2 JUMP JUMPDEST SWAP5 POP PUSH2 0x170D DUP3 PUSH2 0x28D0 JUMP JUMPDEST SWAP3 POP POP POP JUMPDEST SWAP4 POP SWAP4 POP SWAP4 SWAP1 POP JUMP JUMPDEST PUSH0 PUSH2 0x1724 PUSH2 0x269B JUMP JUMPDEST PUSH0 DUP9 DUP9 SWAP1 POP EQ DUP1 PUSH2 0x1738 JUMPI POP PUSH1 0xF0 DUP9 DUP9 SWAP1 POP GT JUMPDEST ISZERO PUSH2 0x176F JUMPI PUSH1 0x40 MLOAD PUSH32 0x2C5211C600000000000000000000000000000000000000000000000000000000 DUP2 MSTORE PUSH1 0x4 ADD PUSH1 0x40 MLOAD DUP1 SWAP2 SUB SWAP1 REVERT JUMPDEST TIMESTAMP DUP5 PUSH8 0xFFFFFFFFFFFFFFFF AND GT ISZERO DUP1 PUSH2 0x17B3 JUMPI POP PUSH0 PUSH20 0xFFFFFFFFFFFFFFFFFFFFFFFFFFFFFFFFFFFFFFFF AND DUP4 PUSH20 0xFFFFFFFFFFFFFFFFFFFFFFFFFFFFFFFFFFFFFFFF AND EQ JUMPDEST ISZERO PUSH2 0x17EA JUMPI PUSH1 0x40 MLOAD PUSH32 0xE6C4247B00000000000000000000000000000000000000000000000000000000 DUP2 MSTORE PUSH1 0x4 ADD PUSH1 0x40 MLOAD DUP1 SWAP2 SUB SWAP1 REVERT JUMPDEST PUSH0 DUP3 SUB PUSH2 0x1823 JUMPI PUSH1 0x40 MLOAD PUSH32 0x2C5211C600000000000000000000000000000000000000000000000000000000 DUP2 MSTORE PUSH1 0x4 ADD PUSH1 0x40 MLOAD DUP1 SWAP2 SUB SWAP1 REVERT JUMPDEST PUSH2 0x1870 CALLER ADDRESS DUP5 PUSH32 0x0 PUSH20 0xFFFFFFFFFFFFFFFFFFFFFFFFFFFFFFFFFFFFFFFF AND PUSH2 0x271C SWAP1 SWAP4 SWAP3 SWAP2 SWAP1 PUSH4 0xFFFFFFFF AND JUMP JUMPDEST PUSH1 0x2 PUSH0 DUP2 SLOAD PUSH2 0x187E SWAP1 PUSH2 0x344B JUMP JUMPDEST SWAP2 SWAP1 POP DUP2 SWAP1 SSTORE SWAP1 POP PUSH1 0x40 MLOAD DUP1 PUSH2 0x1C0 ADD PUSH1 0x40 MSTORE DUP1 DUP10 DUP10 DUP1 DUP1 PUSH1 0x1F ADD PUSH1 0x20 DUP1 SWAP2 DIV MUL PUSH1 0x20 ADD PUSH1 0x40 MLOAD SWAP1 DUP2 ADD PUSH1 0x40 MSTORE DUP1 SWAP4 SWAP3 SWAP2 SWAP1 DUP2 DUP2 MSTORE PUSH1 0x20 ADD DUP4 DUP4 DUP1 DUP3 DUP5 CALLDATACOPY PUSH0 DUP2 DUP5 ADD MSTORE PUSH1 0x1F NOT PUSH1 0x1F DUP3 ADD AND SWAP1 POP DUP1 DUP4 ADD SWAP3 POP POP POP POP POP POP POP DUP2 MSTORE PUSH1 0x20 ADD DUP8 DUP8 DUP1 DUP1 PUSH1 0x1F ADD PUSH1 0x20 DUP1 SWAP2 DIV MUL PUSH1 0x20 ADD PUSH1 0x40 MLOAD SWAP1 DUP2 ADD PUSH1 0x40 MSTORE DUP1 SWAP4 SWAP3 SWAP2 SWAP1 DUP2 DUP2 MSTORE PUSH1 0x20 ADD DUP4 DUP4 DUP1 DUP3 DUP5 CALLDATACOPY PUSH0 DUP2 DUP5 ADD MSTORE PUSH1 0x1F NOT PUSH1 0x1F DUP3 ADD AND SWAP1 POP DUP1 DUP4 ADD SWAP3 POP POP POP POP POP POP POP DUP2 MSTORE PUSH1 0x20 ADD DUP6 PUSH8 0xFFFFFFFFFFFFFFFF AND DUP2 MSTORE PUSH1 0x20 ADD DUP5 PUSH20 0xFFFFFFFFFFFFFFFFFFFFFFFFFFFFFFFFFFFFFFFF AND DUP2 MSTORE PUSH1 0x20 ADD CALLER PUSH20 0xFFFFFFFFFFFFFFFFFFFFFFFFFFFFFFFFFFFFFFFF AND DUP2 MSTORE PUSH1 0x20 ADD DUP4 DUP2 MSTORE PUSH1 0x20 ADD DUP4 DUP2 MSTORE PUSH1 0x20 ADD DUP4 DUP2 MSTORE PUSH1 0x20 ADD PUSH0 DUP2 MSTORE PUSH1 0x20 ADD PUSH0 DUP2 MSTORE PUSH1 0x20 ADD PUSH0 DUP2 MSTORE PUSH1 0x20 ADD PUSH0 ISZERO ISZERO DUP2 MSTORE PUSH1 0x20 ADD PUSH0 PUSH1 0x1 DUP2 GT ISZERO PUSH2 0x19AB JUMPI PUSH2 0x19AA PUSH2 0x3112 JUMP JUMPDEST JUMPDEST DUP2 MSTORE PUSH1 0x20 ADD PUSH0 ISZERO ISZERO DUP2 MSTORE POP PUSH1 0x3 PUSH0 DUP4 DUP2 MSTORE PUSH1 0x20 ADD SWAP1 DUP2 MSTORE PUSH1 0x20 ADD PUSH0 KECCAK256 PUSH0 DUP3 ADD MLOAD DUP2 PUSH0 ADD SWAP1 DUP2 PUSH2 0x19DA SWAP2 SWAP1 PUSH2 0x36B3 JUMP JUMPDEST POP PUSH1 0x20 DUP3 ADD MLOAD DUP2 PUSH1 0x1 ADD SWAP1 DUP2 PUSH2 0x19F0 SWAP2 SWAP1 PUSH2 0x36B3 JUMP JUMPDEST POP PUSH1 0x40 DUP3 ADD MLOAD DUP2 PUSH1 0x2 ADD PUSH0 PUSH2 0x100 EXP DUP2 SLOAD DUP2 PUSH8 0xFFFFFFFFFFFFFFFF MUL NOT AND SWAP1 DUP4 PUSH8 0xFFFFFFFFFFFFFFFF AND MUL OR SWAP1 SSTORE POP PUSH1 0x60 DUP3 ADD MLOAD DUP2 PUSH1 0x2 ADD PUSH1 0x8 PUSH2 0x100 EXP DUP2 SLOAD DUP2 PUSH20 0xFFFFFFFFFFFFFFFFFFFFFFFFFFFFFFFFFFFFFFFF MUL NOT AND SWAP1 DUP4 PUSH20 0xFFFFFFFFFFFFFFFFFFFFFFFFFFFFFFFFFFFFFFFF AND MUL OR SWAP1 SSTORE POP PUSH1 0x80 DUP3 ADD MLOAD DUP2 PUSH1 0x3 ADD PUSH0 PUSH2 0x100 EXP DUP2 SLOAD DUP2 PUSH20 0xFFFFFFFFFFFFFFFFFFFFFFFFFFFFFFFFFFFFFFFF MUL NOT AND SWAP1 DUP4 PUSH20 0xFFFFFFFFFFFFFFFFFFFFFFFFFFFFFFFFFFFFFFFF AND MUL OR SWAP1 SSTORE POP PUSH1 0xA0 DUP3 ADD MLOAD DUP2 PUSH1 0x4 ADD SSTORE PUSH1 0xC0 DUP3 ADD MLOAD DUP2 PUSH1 0x5 ADD SSTORE PUSH1 0xE0 DUP3 ADD MLOAD DUP2 PUSH1 0x6 ADD SSTORE PUSH2 0x100 DUP3 ADD MLOAD DUP2 PUSH1 0x7 ADD SSTORE PUSH2 0x120 DUP3 ADD MLOAD DUP2 PUSH1 0x8 ADD SSTORE PUSH2 0x140 DUP3 ADD MLOAD DUP2 PUSH1 0x9 ADD SSTORE PUSH2 0x160 DUP3 ADD MLOAD DUP2 PUSH1 0xA ADD PUSH0 PUSH2 0x100 EXP DUP2 SLOAD DUP2 PUSH1 0xFF MUL NOT AND SWAP1 DUP4 ISZERO ISZERO MUL OR SWAP1 SSTORE POP PUSH2 0x180 DUP3 ADD MLOAD DUP2 PUSH1 0xA ADD PUSH1 0x1 PUSH2 0x100 EXP DUP2 SLOAD DUP2 PUSH1 0xFF MUL NOT AND SWAP1 DUP4 PUSH1 0x1 DUP2 GT ISZERO PUSH2 0x1B37 JUMPI PUSH2 0x1B36 PUSH2 0x3112 JUMP JUMPDEST JUMPDEST MUL OR SWAP1 SSTORE POP PUSH2 0x1A0 DUP3 ADD MLOAD DUP2 PUSH1 0xA ADD PUSH1 0x2 PUSH2 0x100 EXP DUP2 SLOAD DUP2 PUSH1 0xFF MUL NOT AND SWAP1 DUP4 ISZERO ISZERO MUL OR SWAP1 SSTORE POP SWAP1 POP POP DUP3 PUSH20 0xFFFFFFFFFFFFFFFFFFFFFFFFFFFFFFFFFFFFFFFF AND CALLER PUSH20 0xFFFFFFFFFFFFFFFFFFFFFFFFFFFFFFFFFFFFFFFF AND DUP3 PUSH32 0x597681E274CAC1AD1A54A0AE01083E0A1429C2EEBA20BE8724A988D357207FAE DUP12 DUP12 DUP10 DUP9 PUSH1 0x40 MLOAD PUSH2 0x1BC4 SWAP5 SWAP4 SWAP3 SWAP2 SWAP1 PUSH2 0x37DB JUMP JUMPDEST PUSH1 0x40 MLOAD DUP1 SWAP2 SUB SWAP1 LOG4 PUSH2 0x1BD4 PUSH2 0x2815 JUMP JUMPDEST SWAP8 SWAP7 POP POP POP POP POP POP POP JUMP JUMPDEST PUSH0 PUSH0 PUSH0 PUSH2 0x1BEB DUP6 PUSH2 0x26BD JUMP JUMPDEST POP PUSH1 0x4 PUSH0 DUP7 DUP2 MSTORE PUSH1 0x20 ADD SWAP1 DUP2 MSTORE PUSH1 0x20 ADD PUSH0 KECCAK256 PUSH0 DUP6 PUSH20 0xFFFFFFFFFFFFFFFFFFFFFFFFFFFFFFFFFFFFFFFF AND PUSH20 0xFFFFFFFFFFFFFFFFFFFFFFFFFFFFFFFFFFFFFFFF AND DUP2 MSTORE PUSH1 0x20 ADD SWAP1 DUP2 MSTORE PUSH1 0x20 ADD PUSH0 KECCAK256 SLOAD PUSH1 0x5 PUSH0 DUP8 DUP2 MSTORE PUSH1 0x20 ADD SWAP1 DUP2 MSTORE PUSH1 0x20 ADD PUSH0 KECCAK256 PUSH0 DUP7 PUSH20 0xFFFFFFFFFFFFFFFFFFFFFFFFFFFFFFFFFFFFFFFF AND PUSH20 0xFFFFFFFFFFFFFFFFFFFFFFFFFFFFFFFFFFFFFFFF AND DUP2 MSTORE PUSH1 0x20 ADD SWAP1 DUP2 MSTORE PUSH1 0x20 ADD PUSH0 KECCAK256 SLOAD PUSH1 0x6 PUSH0 DUP9 DUP2 MSTORE PUSH1 0x20 ADD SWAP1 DUP2 MSTORE PUSH1 0x20 ADD PUSH0 KECCAK256 PUSH0 DUP8 PUSH20 0xFFFFFFFFFFFFFFFFFFFFFFFFFFFFFFFFFFFFFFFF AND PUSH20 0xFFFFFFFFFFFFFFFFFFFFFFFFFFFFFFFFFFFFFFFF AND DUP2 MSTORE PUSH1 0x20 ADD SWAP1 DUP2 MSTORE PUSH1 0x20 ADD PUSH0 KECCAK256 PUSH0 SWAP1 SLOAD SWAP1 PUSH2 0x100 EXP SWAP1 DIV PUSH1 0xFF AND SWAP3 POP SWAP3 POP SWAP3 POP SWAP3 POP SWAP3 POP SWAP3 JUMP JUMPDEST PUSH1 0x6 PUSH1 0x20 MSTORE DUP2 PUSH0 MSTORE PUSH1 0x40 PUSH0 KECCAK256 PUSH1 0x20 MSTORE DUP1 PUSH0 MSTORE PUSH1 0x40 PUSH0 KECCAK256 PUSH0 SWAP2 POP SWAP2 POP SWAP1 SLOAD SWAP1 PUSH2 0x100 EXP SWAP1 DIV PUSH1 0xFF AND DUP2 JUMP JUMPDEST PUSH0 PUSH2 0x1D20 DUP4 PUSH2 0x26BD JUMP JUMPDEST SWAP1 POP DUP1 PUSH1 0xA ADD PUSH0 SWAP1 SLOAD SWAP1 PUSH2 0x100 EXP SWAP1 DIV PUSH1 0xFF AND ISZERO PUSH2 0x1D6A JUMPI PUSH1 0x40 MLOAD PUSH32 0xAA43CB2D00000000000000000000000000000000000000000000000000000000 DUP2 MSTORE PUSH1 0x4 ADD PUSH1 0x40 MLOAD DUP1 SWAP2 SUB SWAP1 REVERT JUMPDEST DUP1 PUSH1 0x2 ADD PUSH0 SWAP1 SLOAD SWAP1 PUSH2 0x100 EXP SWAP1 DIV PUSH8 0xFFFFFFFFFFFFFFFF AND PUSH8 0xFFFFFFFFFFFFFFFF AND TIMESTAMP LT ISZERO PUSH2 0x1DC5 JUMPI PUSH1 0x40 MLOAD PUSH32 0xA8A9EB6900000000000000000000000000000000000000000000000000000000 DUP2 MSTORE PUSH1 0x4 ADD PUSH1 0x40 MLOAD DUP1 SWAP2 SUB SWAP1 REVERT JUMPDEST DUP1 PUSH1 0x2 ADD PUSH1 0x8 SWAP1 SLOAD SWAP1 PUSH2 0x100 EXP SWAP1 DIV PUSH20 0xFFFFFFFFFFFFFFFFFFFFFFFFFFFFFFFFFFFFFFFF AND PUSH20 0xFFFFFFFFFFFFFFFFFFFFFFFFFFFFFFFFFFFFFFFF AND CALLER PUSH20 0xFFFFFFFFFFFFFFFFFFFFFFFFFFFFFFFFFFFFFFFF AND EQ PUSH2 0x1E4E JUMPI PUSH1 0x40 MLOAD PUSH32 0xBA2A9FC200000000000000000000000000000000000000000000000000000000 DUP2 MSTORE PUSH1 0x4 ADD PUSH1 0x40 MLOAD DUP1 SWAP2 SUB SWAP1 REVERT JUMPDEST PUSH1 0x1 DUP2 PUSH1 0xA ADD PUSH0 PUSH2 0x100 EXP DUP2 SLOAD DUP2 PUSH1 0xFF MUL NOT AND SWAP1 DUP4 ISZERO ISZERO MUL OR SWAP1 SSTORE POP DUP2 DUP2 PUSH1 0xA ADD PUSH1 0x1 PUSH2 0x100 EXP DUP2 SLOAD DUP2 PUSH1 0xFF MUL NOT AND SWAP1 DUP4 PUSH1 0x1 DUP2 GT ISZERO PUSH2 0x1E91 JUMPI PUSH2 0x1E90 PUSH2 0x3112 JUMP JUMPDEST JUMPDEST MUL OR SWAP1 SSTORE POP PUSH0 PUSH1 0x1 DUP2 GT ISZERO PUSH2 0x1EA9 JUMPI PUSH2 0x1EA8 PUSH2 0x3112 JUMP JUMPDEST JUMPDEST DUP3 PUSH1 0x1 DUP2 GT ISZERO PUSH2 0x1EBC JUMPI PUSH2 0x1EBB PUSH2 0x3112 JUMP JUMPDEST JUMPDEST EQ PUSH2 0x1ECB JUMPI DUP1 PUSH1 0x8 ADD SLOAD PUSH2 0x1ED1 JUMP JUMPDEST DUP1 PUSH1 0x7 ADD SLOAD JUMPDEST DUP2 PUSH1 0x9 ADD DUP2 SWAP1 SSTORE POP DUP1 PUSH1 0x6 ADD SLOAD DUP2 PUSH1 0x9 ADD SLOAD GT ISZERO PUSH2 0x1F1B JUMPI PUSH1 0x40 MLOAD PUSH32 0xBB55FD2700000000000000000000000000000000000000000000000000000000 DUP2 MSTORE PUSH1 0x4 ADD PUSH1 0x40 MLOAD DUP1 SWAP2 SUB SWAP1 REVERT JUMPDEST DUP2 PUSH1 0x1 DUP2 GT ISZERO PUSH2 0x1F2E JUMPI PUSH2 0x1F2D PUSH2 0x3112 JUMP JUMPDEST JUMPDEST DUP4 PUSH32 0x661CE16E44A34377FC37C19874F4B1BEC6E84B072CF8D318838FE17C20C58E44 DUP4 PUSH1 0x9 ADD SLOAD PUSH1 0x40 MLOAD PUSH2 0x1F62 SWAP2 SWAP1 PUSH2 0x2C93 JUMP JUMPDEST PUSH1 0x40 MLOAD DUP1 SWAP2 SUB SWAP1 LOG3 POP POP POP JUMP JUMPDEST PUSH0 PUSH0 SWAP1 SLOAD SWAP1 PUSH2 0x100 EXP SWAP1 DIV PUSH20 0xFFFFFFFFFFFFFFFFFFFFFFFFFFFFFFFFFFFFFFFF AND PUSH20 0xFFFFFFFFFFFFFFFFFFFFFFFFFFFFFFFFFFFFFFFF AND CALLER PUSH20 0xFFFFFFFFFFFFFFFFFFFFFFFFFFFFFFFFFFFFFFFF AND EQ PUSH2 0x1FF4 JUMPI PUSH1 0x40 MLOAD PUSH32 0x30CD747100000000000000000000000000000000000000000000000000000000 DUP2 MSTORE PUSH1 0x4 ADD PUSH1 0x40 MLOAD DUP1 SWAP2 SUB SWAP1 REVERT JUMPDEST PUSH0 PUSH20 0xFFFFFFFFFFFFFFFFFFFFFFFFFFFFFFFFFFFFFFFF AND DUP2 PUSH20 0xFFFFFFFFFFFFFFFFFFFFFFFFFFFFFFFFFFFFFFFF AND SUB PUSH2 0x2059 JUMPI PUSH1 0x40 MLOAD PUSH32 0xE6C4247B00000000000000000000000000000000000000000000000000000000 DUP2 MSTORE PUSH1 0x4 ADD PUSH1 0x40 MLOAD DUP1 SWAP2 SUB SWAP1 REVERT JUMPDEST PUSH0 PUSH1 0x1 PUSH0 SWAP1 SLOAD SWAP1 PUSH2 0x100 EXP SWAP1 DIV PUSH20 0xFFFFFFFFFFFFFFFFFFFFFFFFFFFFFFFFFFFFFFFF AND SWAP1 POP DUP2 PUSH1 0x1 PUSH0 PUSH2 0x100 EXP DUP2 SLOAD DUP2 PUSH20 0xFFFFFFFFFFFFFFFFFFFFFFFFFFFFFFFFFFFFFFFF MUL NOT AND SWAP1 DUP4 PUSH20 0xFFFFFFFFFFFFFFFFFFFFFFFFFFFFFFFFFFFFFFFF AND MUL OR SWAP1 SSTORE POP DUP2 PUSH20 0xFFFFFFFFFFFFFFFFFFFFFFFFFFFFFFFFFFFFFFFF AND DUP2 PUSH20 0xFFFFFFFFFFFFFFFFFFFFFFFFFFFFFFFFFFFFFFFF AND PUSH32 0xAAEBCF1BFA00580E41D966056B48521FA9F202645C86D4DDF28113E617C1B1D3 PUSH1 0x40 MLOAD PUSH1 0x40 MLOAD DUP1 SWAP2 SUB SWAP1 LOG3 POP POP JUMP JUMPDEST PUSH2 0x2124 PUSH2 0x2AF2 JUMP JUMPDEST PUSH2 0x212D DUP3 PUSH2 0x26BD JUMP JUMPDEST PUSH1 0x40 MLOAD DUP1 PUSH2 0x1C0 ADD PUSH1 0x40 MSTORE SWAP1 DUP2 PUSH0 DUP3 ADD DUP1 SLOAD PUSH2 0x2148 SWAP1 PUSH2 0x34EC JUMP JUMPDEST DUP1 PUSH1 0x1F ADD PUSH1 0x20 DUP1 SWAP2 DIV MUL PUSH1 0x20 ADD PUSH1 0x40 MLOAD SWAP1 DUP2 ADD PUSH1 0x40 MSTORE DUP1 SWAP3 SWAP2 SWAP1 DUP2 DUP2 MSTORE PUSH1 0x20 ADD DUP3 DUP1 SLOAD PUSH2 0x2174 SWAP1 PUSH2 0x34EC JUMP JUMPDEST DUP1 ISZERO PUSH2 0x21BF JUMPI DUP1 PUSH1 0x1F LT PUSH2 0x2196 JUMPI PUSH2 0x100 DUP1 DUP4 SLOAD DIV MUL DUP4 MSTORE SWAP2 PUSH1 0x20 ADD SWAP2 PUSH2 0x21BF JUMP JUMPDEST DUP3 ADD SWAP2 SWAP1 PUSH0 MSTORE PUSH1 0x20 PUSH0 KECCAK256 SWAP1 JUMPDEST DUP2 SLOAD DUP2 MSTORE SWAP1 PUSH1 0x1 ADD SWAP1 PUSH1 0x20 ADD DUP1 DUP4 GT PUSH2 0x21A2 JUMPI DUP3 SWAP1 SUB PUSH1 0x1F AND DUP3 ADD SWAP2 JUMPDEST POP POP POP POP POP DUP2 MSTORE PUSH1 0x20 ADD PUSH1 0x1 DUP3 ADD DUP1 SLOAD PUSH2 0x21D8 SWAP1 PUSH2 0x34EC JUMP JUMPDEST DUP1 PUSH1 0x1F ADD PUSH1 0x20 DUP1 SWAP2 DIV MUL PUSH1 0x20 ADD PUSH1 0x40 MLOAD SWAP1 DUP2 ADD PUSH1 0x40 MSTORE DUP1 SWAP3 SWAP2 SWAP1 DUP2 DUP2 MSTORE PUSH1 0x20 ADD DUP3 DUP1 SLOAD PUSH2 0x2204 SWAP1 PUSH2 0x34EC JUMP JUMPDEST DUP1 ISZERO PUSH2 0x224F JUMPI DUP1 PUSH1 0x1F LT PUSH2 0x2226 JUMPI PUSH2 0x100 DUP1 DUP4 SLOAD DIV MUL DUP4 MSTORE SWAP2 PUSH1 0x20 ADD SWAP2 PUSH2 0x224F JUMP JUMPDEST DUP3 ADD SWAP2 SWAP1 PUSH0 MSTORE PUSH1 0x20 PUSH0 KECCAK256 SWAP1 JUMPDEST DUP2 SLOAD DUP2 MSTORE SWAP1 PUSH1 0x1 ADD SWAP1 PUSH1 0x20 ADD DUP1 DUP4 GT PUSH2 0x2232 JUMPI DUP3 SWAP1 SUB PUSH1 0x1F AND DUP3 ADD SWAP2 JUMPDEST POP POP POP POP POP DUP2 MSTORE PUSH1 0x20 ADD PUSH1 0x2 DUP3 ADD PUSH0 SWAP1 SLOAD SWAP1 PUSH2 0x100 EXP SWAP1 DIV PUSH8 0xFFFFFFFFFFFFFFFF AND PUSH8 0xFFFFFFFFFFFFFFFF AND PUSH8 0xFFFFFFFFFFFFFFFF AND DUP2 MSTORE PUSH1 0x20 ADD PUSH1 0x2 DUP3 ADD PUSH1 0x8 SWAP1 SLOAD SWAP1 PUSH2 0x100 EXP SWAP1 DIV PUSH20 0xFFFFFFFFFFFFFFFFFFFFFFFFFFFFFFFFFFFFFFFF AND PUSH20 0xFFFFFFFFFFFFFFFFFFFFFFFFFFFFFFFFFFFFFFFF AND PUSH20 0xFFFFFFFFFFFFFFFFFFFFFFFFFFFFFFFFFFFFFFFF AND DUP2 MSTORE PUSH1 0x20 ADD PUSH1 0x3 DUP3 ADD PUSH0 SWAP1 SLOAD SWAP1 PUSH2 0x100 EXP SWAP1 DIV PUSH20 0xFFFFFFFFFFFFFFFFFFFFFFFFFFFFFFFFFFFFFFFF AND PUSH20 0xFFFFFFFFFFFFFFFFFFFFFFFFFFFFFFFFFFFFFFFF AND PUSH20 0xFFFFFFFFFFFFFFFFFFFFFFFFFFFFFFFFFFFFFFFF AND DUP2 MSTORE PUSH1 0x20 ADD PUSH1 0x4 DUP3 ADD SLOAD DUP2 MSTORE PUSH1 0x20 ADD PUSH1 0x5 DUP3 ADD SLOAD DUP2 MSTORE PUSH1 0x20 ADD PUSH1 0x6 DUP3 ADD SLOAD DUP2 MSTORE PUSH1 0x20 ADD PUSH1 0x7 DUP3 ADD SLOAD DUP2 MSTORE PUSH1 0x20 ADD PUSH1 0x8 DUP3 ADD SLOAD DUP2 MSTORE PUSH1 0x20 ADD PUSH1 0x9 DUP3 ADD SLOAD DUP2 MSTORE PUSH1 0x20 ADD PUSH1 0xA DUP3 ADD PUSH0 SWAP1 SLOAD SWAP1 PUSH2 0x100 EXP SWAP1 DIV PUSH1 0xFF AND ISZERO ISZERO ISZERO ISZERO DUP2 MSTORE PUSH1 0x20 ADD PUSH1 0xA DUP3 ADD PUSH1 0x1 SWAP1 SLOAD SWAP1 PUSH2 0x100 EXP SWAP1 DIV PUSH1 0xFF AND PUSH1 0x1 DUP2 GT ISZERO PUSH2 0x23AF JUMPI PUSH2 0x23AE PUSH2 0x3112 JUMP JUMPDEST JUMPDEST PUSH1 0x1 DUP2 GT ISZERO PUSH2 0x23C1 JUMPI PUSH2 0x23C0 PUSH2 0x3112 JUMP JUMPDEST JUMPDEST DUP2 MSTORE PUSH1 0x20 ADD PUSH1 0xA DUP3 ADD PUSH1 0x2 SWAP1 SLOAD SWAP1 PUSH2 0x100 EXP SWAP1 DIV PUSH1 0xFF AND ISZERO ISZERO ISZERO ISZERO DUP2 MSTORE POP POP SWAP1 POP SWAP2 SWAP1 POP JUMP JUMPDEST PUSH1 0x2 SLOAD DUP2 JUMP JUMPDEST PUSH0 PUSH0 PUSH0 PUSH0 PUSH2 0x23FA DUP8 PUSH2 0x26BD JUMP JUMPDEST SWAP1 POP PUSH0 DUP6 SUB PUSH2 0x241A JUMPI PUSH0 PUSH0 PUSH2 0x240E DUP4 PUSH2 0x28D0 JUMP JUMPDEST SWAP4 POP SWAP4 POP SWAP4 POP POP PUSH2 0x24E7 JUMP JUMPDEST PUSH2 0x2710 PUSH32 0x0 PUSH2 0xFFFF AND DUP7 PUSH2 0x244D SWAP2 SWAP1 PUSH2 0x3304 JUMP JUMPDEST PUSH2 0x2457 SWAP2 SWAP1 PUSH2 0x3372 JUMP JUMPDEST SWAP3 POP PUSH0 DUP4 DUP7 PUSH2 0x2466 SWAP2 SWAP1 PUSH2 0x33A2 JUMP JUMPDEST SWAP1 POP PUSH0 PUSH1 0x1 DUP2 GT ISZERO PUSH2 0x247B JUMPI PUSH2 0x247A PUSH2 0x3112 JUMP JUMPDEST JUMPDEST DUP8 PUSH1 0x1 DUP2 GT ISZERO PUSH2 0x248E JUMPI PUSH2 0x248D PUSH2 0x3112 JUMP JUMPDEST JUMPDEST SUB PUSH2 0x24B8 JUMPI PUSH2 0x24A6 DUP2 DUP4 PUSH1 0x5 ADD SLOAD DUP5 PUSH1 0x4 ADD SLOAD PUSH2 0x27C4 JUMP JUMPDEST DUP2 PUSH2 0x24B1 SWAP2 SWAP1 PUSH2 0x33D5 JUMP JUMPDEST SWAP5 POP PUSH2 0x24D9 JUMP JUMPDEST PUSH2 0x24CB DUP2 DUP4 PUSH1 0x4 ADD SLOAD DUP5 PUSH1 0x5 ADD SLOAD PUSH2 0x27C4 JUMP JUMPDEST DUP2 PUSH2 0x24D6 SWAP2 SWAP1 PUSH2 0x33D5 JUMP JUMPDEST SWAP5 POP JUMPDEST PUSH2 0x24E2 DUP3 PUSH2 0x28D0 JUMP JUMPDEST SWAP3 POP POP POP JUMPDEST SWAP4 POP SWAP4 POP SWAP4 SWAP1 POP JUMP JUMPDEST PUSH0 PUSH0 SWAP1 SLOAD SWAP1 PUSH2 0x100 EXP SWAP1 DIV PUSH20 0xFFFFFFFFFFFFFFFFFFFFFFFFFFFFFFFFFFFFFFFF AND PUSH20 0xFFFFFFFFFFFFFFFFFFFFFFFFFFFFFFFFFFFFFFFF AND CALLER PUSH20 0xFFFFFFFFFFFFFFFFFFFFFFFFFFFFFFFFFFFFFFFF AND EQ PUSH2 0x2575 JUMPI PUSH1 0x40 MLOAD PUSH32 0x30CD747100000000000000000000000000000000000000000000000000000000 DUP2 MSTORE PUSH1 0x4 ADD PUSH1 0x40 MLOAD DUP1 SWAP2 SUB SWAP1 REVERT JUMPDEST PUSH0 PUSH20 0xFFFFFFFFFFFFFFFFFFFFFFFFFFFFFFFFFFFFFFFF AND DUP2 PUSH20 0xFFFFFFFFFFFFFFFFFFFFFFFFFFFFFFFFFFFFFFFF AND SUB PUSH2 0x25DA JUMPI PUSH1 0x40 MLOAD PUSH32 0xE6C4247B00000000000000000000000000000000000000000000000000000000 DUP2 MSTORE PUSH1 0x4 ADD PUSH1 0x40 MLOAD DUP1 SWAP2 SUB SWAP1 REVERT JUMPDEST PUSH0 PUSH0 PUSH0 SWAP1 SLOAD SWAP1 PUSH2 0x100 EXP SWAP1 DIV PUSH20 0xFFFFFFFFFFFFFFFFFFFFFFFFFFFFFFFFFFFFFFFF AND SWAP1 POP DUP2 PUSH0 PUSH0 PUSH2 0x100 EXP DUP2 SLOAD DUP2 PUSH20 0xFFFFFFFFFFFFFFFFFFFFFFFFFFFFFFFFFFFFFFFF MUL NOT AND SWAP1 DUP4 PUSH20 0xFFFFFFFFFFFFFFFFFFFFFFFFFFFFFFFFFFFFFFFF AND MUL OR SWAP1 SSTORE POP DUP2 PUSH20 0xFFFFFFFFFFFFFFFFFFFFFFFFFFFFFFFFFFFFFFFF AND DUP2 PUSH20 0xFFFFFFFFFFFFFFFFFFFFFFFFFFFFFFFFFFFFFFFF AND PUSH32 0x8BE0079C531659141344CD1FD0A4F28419497F9722A3DAAFE3B4186F6B6457E0 PUSH1 0x40 MLOAD PUSH1 0x40 MLOAD DUP1 SWAP2 SUB SWAP1 LOG3 POP POP JUMP JUMPDEST PUSH2 0x26A3 PUSH2 0x2924 JUMP JUMPDEST PUSH1 0x2 PUSH2 0x26B5 PUSH2 0x26B0 PUSH2 0x2965 JUMP JUMPDEST PUSH2 0x298E JUMP JUMPDEST PUSH0 ADD DUP2 SWAP1 SSTORE POP JUMP JUMPDEST PUSH0 PUSH0 DUP3 EQ DUP1 PUSH2 0x26CD JUMPI POP PUSH1 0x2 SLOAD DUP3 GT JUMPDEST ISZERO PUSH2 0x2704 JUMPI PUSH1 0x40 MLOAD PUSH32 0x9DB8D5B100000000000000000000000000000000000000000000000000000000 DUP2 MSTORE PUSH1 0x4 ADD PUSH1 0x40 MLOAD DUP1 SWAP2 SUB SWAP1 REVERT JUMPDEST PUSH1 0x3 PUSH0 DUP4 DUP2 MSTORE PUSH1 0x20 ADD SWAP1 DUP2 MSTORE PUSH1 0x20 ADD PUSH0 KECCAK256 SWAP1 POP SWAP2 SWAP1 POP JUMP JUMPDEST PUSH2 0x272A DUP5 DUP5 DUP5 DUP5 PUSH1 0x1 PUSH2 0x2997 JUMP JUMPDEST PUSH2 0x276B JUMPI DUP4 PUSH1 0x40 MLOAD PUSH32 0x5274AFE700000000000000000000000000000000000000000000000000000000 DUP2 MSTORE PUSH1 0x4 ADD PUSH2 0x2762 SWAP2 SWAP1 PUSH2 0x2CEB JUMP JUMPDEST PUSH1 0x40 MLOAD DUP1 SWAP2 SUB SWAP1 REVERT JUMPDEST POP POP POP POP JUMP JUMPDEST PUSH2 0x277E DUP4 DUP4 DUP4 PUSH1 0x1 PUSH2 0x2A08 JUMP JUMPDEST PUSH2 0x27BF JUMPI DUP3 PUSH1 0x40 MLOAD PUSH32 0x5274AFE700000000000000000000000000000000000000000000000000000000 DUP2 MSTORE PUSH1 0x4 ADD PUSH2 0x27B6 SWAP2 SWAP1 PUSH2 0x2CEB JUMP JUMPDEST PUSH1 0x40 MLOAD DUP1 SWAP2 SUB SWAP1 REVERT JUMPDEST POP POP POP JUMP JUMPDEST PUSH0 PUSH0 DUP5 EQ DUP1 PUSH2 0x27D2 JUMPI POP PUSH0 DUP4 EQ JUMPDEST DUP1 PUSH2 0x27DC JUMPI POP PUSH0 DUP3 EQ JUMPDEST ISZERO PUSH2 0x27E9 JUMPI PUSH0 SWAP1 POP PUSH2 0x280E JUMP JUMPDEST DUP4 DUP4 PUSH2 0x27F5 SWAP2 SWAP1 PUSH2 0x33D5 JUMP JUMPDEST DUP5 DUP4 PUSH2 0x2801 SWAP2 SWAP1 PUSH2 0x3304 JUMP JUMPDEST PUSH2 0x280B SWAP2 SWAP1 PUSH2 0x3372 JUMP JUMPDEST SWAP1 POP JUMPDEST SWAP4 SWAP3 POP POP POP JUMP JUMPDEST PUSH1 0x1 PUSH2 0x2827 PUSH2 0x2822 PUSH2 0x2965 JUMP JUMPDEST PUSH2 0x298E JUMP JUMPDEST PUSH0 ADD DUP2 SWAP1 SSTORE POP JUMP JUMPDEST PUSH0 PUSH0 DUP3 EQ DUP1 PUSH2 0x283D JUMPI POP PUSH0 DUP5 EQ JUMPDEST DUP1 PUSH2 0x2847 JUMPI POP PUSH0 DUP4 EQ JUMPDEST ISZERO PUSH2 0x2854 JUMPI PUSH0 SWAP1 POP PUSH2 0x28C9 JUMP JUMPDEST PUSH0 DUP3 DUP5 DUP7 PUSH2 0x2862 SWAP2 SWAP1 PUSH2 0x33D5 JUMP JUMPDEST PUSH2 0x286C SWAP2 SWAP1 PUSH2 0x33D5 JUMP JUMPDEST SWAP1 POP PUSH0 DUP4 DUP6 PUSH1 0x4 PUSH2 0x287D SWAP2 SWAP1 PUSH2 0x3304 JUMP JUMPDEST PUSH2 0x2887 SWAP2 SWAP1 PUSH2 0x3304 JUMP JUMPDEST DUP3 DUP4 PUSH2 0x2893 SWAP2 SWAP1 PUSH2 0x3304 JUMP JUMPDEST PUSH2 0x289D SWAP2 SWAP1 PUSH2 0x33A2 JUMP JUMPDEST SWAP1 POP PUSH0 PUSH2 0x28A9 DUP3 PUSH2 0x2A6A JUMP JUMPDEST SWAP1 POP PUSH1 0x2 DUP2 DUP5 PUSH2 0x28B9 SWAP2 SWAP1 PUSH2 0x33A2 JUMP JUMPDEST PUSH2 0x28C3 SWAP2 SWAP1 PUSH2 0x3372 JUMP JUMPDEST SWAP4 POP POP POP POP JUMPDEST SWAP4 SWAP3 POP POP POP JUMP JUMPDEST PUSH0 PUSH0 DUP3 PUSH1 0x5 ADD SLOAD DUP4 PUSH1 0x4 ADD SLOAD PUSH2 0x28E6 SWAP2 SWAP1 PUSH2 0x33D5 JUMP JUMPDEST SWAP1 POP PUSH0 DUP2 SUB PUSH2 0x28F8 JUMPI PUSH0 SWAP2 POP POP PUSH2 0x291F JUMP JUMPDEST DUP1 PUSH8 0xDE0B6B3A7640000 DUP5 PUSH1 0x5 ADD SLOAD PUSH2 0x2911 SWAP2 SWAP1 PUSH2 0x3304 JUMP JUMPDEST PUSH2 0x291B SWAP2 SWAP1 PUSH2 0x3372 JUMP JUMPDEST SWAP2 POP POP JUMPDEST SWAP2 SWAP1 POP JUMP JUMPDEST PUSH2 0x292C PUSH2 0x2AD6 JUMP JUMPDEST ISZERO PUSH2 0x2963 JUMPI PUSH1 0x40 MLOAD PUSH32 0x3EE5AEB500000000000000000000000000000000000000000000000000000000 DUP2 MSTORE PUSH1 0x4 ADD PUSH1 0x40 MLOAD DUP1 SWAP2 SUB SWAP1 REVERT JUMPDEST JUMP JUMPDEST PUSH0 PUSH32 0x9B779B17422D0DF92223018B32B4D1FA46E071723D6817E2486D003BECC55F00 PUSH0 SHL SWAP1 POP SWAP1 JUMP JUMPDEST PUSH0 DUP2 SWAP1 POP SWAP2 SWAP1 POP JUMP JUMPDEST PUSH0 PUSH0 PUSH4 0x23B872DD PUSH1 0xE0 SHL SWAP1 POP PUSH1 0x40 MLOAD DUP2 PUSH0 MSTORE PUSH0 NOT PUSH1 0x60 SHR DUP8 AND PUSH1 0x4 MSTORE PUSH0 NOT PUSH1 0x60 SHR DUP7 AND PUSH1 0x24 MSTORE DUP5 PUSH1 0x44 MSTORE PUSH1 0x20 PUSH0 PUSH1 0x64 PUSH0 PUSH0 DUP13 GAS CALL SWAP3 POP PUSH1 0x1 PUSH0 MLOAD EQ DUP4 AND PUSH2 0x29F5 JUMPI DUP4 DUP4 ISZERO AND ISZERO PUSH2 0x29E9 JUMPI RETURNDATASIZE PUSH0 DUP3 RETURNDATACOPY RETURNDATASIZE DUP2 REVERT JUMPDEST PUSH0 DUP9 EXTCODESIZE GT RETURNDATASIZE ISZERO AND DUP4 AND SWAP3 POP JUMPDEST DUP1 PUSH1 0x40 MSTORE PUSH0 PUSH1 0x60 MSTORE POP POP SWAP6 SWAP5 POP POP POP POP POP JUMP JUMPDEST PUSH0 PUSH0 PUSH4 0xA9059CBB PUSH1 0xE0 SHL SWAP1 POP PUSH1 0x40 MLOAD DUP2 PUSH0 MSTORE PUSH0 NOT PUSH1 0x60 SHR DUP7 AND PUSH1 0x4 MSTORE DUP5 PUSH1 0x24 MSTORE PUSH1 0x20 PUSH0 PUSH1 0x44 PUSH0 PUSH0 DUP12 GAS CALL SWAP3 POP PUSH1 0x1 PUSH0 MLOAD EQ DUP4 AND PUSH2 0x2A5C JUMPI DUP4 DUP4 ISZERO AND ISZERO PUSH2 0x2A50 JUMPI RETURNDATASIZE PUSH0 DUP3 RETURNDATACOPY RETURNDATASIZE DUP2 REVERT JUMPDEST PUSH0 DUP8 EXTCODESIZE GT RETURNDATASIZE ISZERO AND DUP4 AND SWAP3 POP JUMPDEST DUP1 PUSH1 0x40 MSTORE POP POP SWAP5 SWAP4 POP POP POP POP JUMP JUMPDEST PUSH0 PUSH0 DUP3 SUB PUSH2 0x2A7A JUMPI PUSH0 SWAP1 POP PUSH2 0x2AD1 JUMP JUMPDEST PUSH0 PUSH1 0x2 PUSH1 0x1 DUP5 PUSH2 0x2A8A SWAP2 SWAP1 PUSH2 0x33D5 JUMP JUMPDEST PUSH2 0x2A94 SWAP2 SWAP1 PUSH2 0x3372 JUMP JUMPDEST SWAP1 POP DUP3 SWAP2 POP JUMPDEST DUP2 DUP2 LT ISZERO PUSH2 0x2ACF JUMPI DUP1 SWAP2 POP PUSH1 0x2 DUP2 DUP3 DUP6 PUSH2 0x2AB4 SWAP2 SWAP1 PUSH2 0x3372 JUMP JUMPDEST PUSH2 0x2ABE SWAP2 SWAP1 PUSH2 0x33D5 JUMP JUMPDEST PUSH2 0x2AC8 SWAP2 SWAP1 PUSH2 0x3372 JUMP JUMPDEST SWAP1 POP PUSH2 0x2A9A JUMP JUMPDEST POP JUMPDEST SWAP2 SWAP1 POP JUMP JUMPDEST PUSH0 PUSH1 0x2 PUSH2 0x2AE9 PUSH2 0x2AE4 PUSH2 0x2965 JUMP JUMPDEST PUSH2 0x298E JUMP JUMPDEST PUSH0 ADD SLOAD EQ SWAP1 POP SWAP1 JUMP JUMPDEST PUSH1 0x40 MLOAD DUP1 PUSH2 0x1C0 ADD PUSH1 0x40 MSTORE DUP1 PUSH1 0x60 DUP2 MSTORE PUSH1 0x20 ADD PUSH1 0x60 DUP2 MSTORE PUSH1 0x20 ADD PUSH0 PUSH8 0xFFFFFFFFFFFFFFFF AND DUP2 MSTORE PUSH1 0x20 ADD PUSH0 PUSH20 0xFFFFFFFFFFFFFFFFFFFFFFFFFFFFFFFFFFFFFFFF AND DUP2 MSTORE PUSH1 0x20 ADD PUSH0 PUSH20 0xFFFFFFFFFFFFFFFFFFFFFFFFFFFFFFFFFFFFFFFF AND DUP2 MSTORE PUSH1 0x20 ADD PUSH0 DUP2 MSTORE PUSH1 0x20 ADD PUSH0 DUP2 MSTORE PUSH1 0x20 ADD PUSH0 DUP2 MSTORE PUSH1 0x20 ADD PUSH0 DUP2 MSTORE PUSH1 0x20 ADD PUSH0 DUP2 MSTORE PUSH1 0x20 ADD PUSH0 DUP2 MSTORE PUSH1 0x20 ADD PUSH0 ISZERO ISZERO DUP2 MSTORE PUSH1 0x20 ADD PUSH0 PUSH1 0x1 DUP2 GT ISZERO PUSH2 0x2B93 JUMPI PUSH2 0x2B92 PUSH2 0x3112 JUMP JUMPDEST JUMPDEST DUP2 MSTORE PUSH1 0x20 ADD PUSH0 ISZERO ISZERO DUP2 MSTORE POP SWAP1 JUMP JUMPDEST PUSH0 PUSH2 0xFFFF DUP3 AND SWAP1 POP SWAP2 SWAP1 POP JUMP JUMPDEST PUSH2 0x2BB7 DUP2 PUSH2 0x2BA1 JUMP JUMPDEST DUP3 MSTORE POP POP JUMP JUMPDEST PUSH0 PUSH1 0x20 DUP3 ADD SWAP1 POP PUSH2 0x2BD0 PUSH0 DUP4 ADD DUP5 PUSH2 0x2BAE JUMP JUMPDEST SWAP3 SWAP2 POP POP JUMP JUMPDEST PUSH0 PUSH0 REVERT JUMPDEST PUSH0 PUSH0 REVERT JUMPDEST PUSH0 DUP2 SWAP1 POP SWAP2 SWAP1 POP JUMP JUMPDEST PUSH2 0x2BF0 DUP2 PUSH2 0x2BDE JUMP JUMPDEST DUP2 EQ PUSH2 0x2BFA JUMPI PUSH0 PUSH0 REVERT JUMPDEST POP JUMP JUMPDEST PUSH0 DUP2 CALLDATALOAD SWAP1 POP PUSH2 0x2C0B DUP2 PUSH2 0x2BE7 JUMP JUMPDEST SWAP3 SWAP2 POP POP JUMP JUMPDEST PUSH1 0x2 DUP2 LT PUSH2 0x2C1D JUMPI PUSH0 PUSH0 REVERT JUMPDEST POP JUMP JUMPDEST PUSH0 DUP2 CALLDATALOAD SWAP1 POP PUSH2 0x2C2E DUP2 PUSH2 0x2C11 JUMP JUMPDEST SWAP3 SWAP2 POP POP JUMP JUMPDEST PUSH0 PUSH0 PUSH0 PUSH1 0x60 DUP5 DUP7 SUB SLT ISZERO PUSH2 0x2C4B JUMPI PUSH2 0x2C4A PUSH2 0x2BD6 JUMP JUMPDEST JUMPDEST PUSH0 PUSH2 0x2C58 DUP7 DUP3 DUP8 ADD PUSH2 0x2BFD JUMP JUMPDEST SWAP4 POP POP PUSH1 0x20 PUSH2 0x2C69 DUP7 DUP3 DUP8 ADD PUSH2 0x2C20 JUMP JUMPDEST SWAP3 POP POP PUSH1 0x40 PUSH2 0x2C7A DUP7 DUP3 DUP8 ADD PUSH2 0x2BFD JUMP JUMPDEST SWAP2 POP POP SWAP3 POP SWAP3 POP SWAP3 JUMP JUMPDEST PUSH2 0x2C8D DUP2 PUSH2 0x2BDE JUMP JUMPDEST DUP3 MSTORE POP POP JUMP JUMPDEST PUSH0 PUSH1 0x20 DUP3 ADD SWAP1 POP PUSH2 0x2CA6 PUSH0 DUP4 ADD DUP5 PUSH2 0x2C84 JUMP JUMPDEST SWAP3 SWAP2 POP POP JUMP JUMPDEST PUSH0 PUSH20 0xFFFFFFFFFFFFFFFFFFFFFFFFFFFFFFFFFFFFFFFF DUP3 AND SWAP1 POP SWAP2 SWAP1 POP JUMP JUMPDEST PUSH0 PUSH2 0x2CD5 DUP3 PUSH2 0x2CAC JUMP JUMPDEST SWAP1 POP SWAP2 SWAP1 POP JUMP JUMPDEST PUSH2 0x2CE5 DUP2 PUSH2 0x2CCB JUMP JUMPDEST DUP3 MSTORE POP POP JUMP JUMPDEST PUSH0 PUSH1 0x20 DUP3 ADD SWAP1 POP PUSH2 0x2CFE PUSH0 DUP4 ADD DUP5 PUSH2 0x2CDC JUMP JUMPDEST SWAP3 SWAP2 POP POP JUMP JUMPDEST PUSH0 PUSH1 0x20 DUP3 DUP5 SUB SLT ISZERO PUSH2 0x2D19 JUMPI PUSH2 0x2D18 PUSH2 0x2BD6 JUMP JUMPDEST JUMPDEST PUSH0 PUSH2 0x2D26 DUP5 DUP3 DUP6 ADD PUSH2 0x2BFD JUMP JUMPDEST SWAP2 POP POP SWAP3 SWAP2 POP POP JUMP JUMPDEST PUSH0 DUP2 SWAP1 POP SWAP2 SWAP1 POP JUMP JUMPDEST PUSH0 PUSH2 0x2D52 PUSH2 0x2D4D PUSH2 0x2D48 DUP5 PUSH2 0x2CAC JUMP JUMPDEST PUSH2 0x2D2F JUMP JUMPDEST PUSH2 0x2CAC JUMP JUMPDEST SWAP1 POP SWAP2 SWAP1 POP JUMP JUMPDEST PUSH0 PUSH2 0x2D63 DUP3 PUSH2 0x2D38 JUMP JUMPDEST SWAP1 POP SWAP2 SWAP1 POP JUMP JUMPDEST PUSH0 PUSH2 0x2D74 DUP3 PUSH2 0x2D59 JUMP JUMPDEST SWAP1 POP SWAP2 SWAP1 POP JUMP JUMPDEST PUSH2 0x2D84 DUP2 PUSH2 0x2D6A JUMP JUMPDEST DUP3 MSTORE POP POP JUMP JUMPDEST PUSH0 PUSH1 0x20 DUP3 ADD SWAP1 POP PUSH2 0x2D9D PUSH0 DUP4 ADD DUP5 PUSH2 0x2D7B JUMP JUMPDEST SWAP3 SWAP2 POP POP JUMP JUMPDEST PUSH0 PUSH1 0x60 DUP3 ADD SWAP1 POP PUSH2 0x2DB6 PUSH0 DUP4 ADD DUP7 PUSH2 0x2C84 JUMP JUMPDEST PUSH2 0x2DC3 PUSH1 0x20 DUP4 ADD DUP6 PUSH2 0x2C84 JUMP JUMPDEST PUSH2 0x2DD0 PUSH1 0x40 DUP4 ADD DUP5 PUSH2 0x2C84 JUMP JUMPDEST SWAP5 SWAP4 POP POP POP POP JUMP JUMPDEST PUSH0 PUSH0 REVERT JUMPDEST PUSH0 PUSH0 REVERT JUMPDEST PUSH0 PUSH0 REVERT JUMPDEST PUSH0 PUSH0 DUP4 PUSH1 0x1F DUP5 ADD SLT PUSH2 0x2DF9 JUMPI PUSH2 0x2DF8 PUSH2 0x2DD8 JUMP JUMPDEST JUMPDEST DUP3 CALLDATALOAD SWAP1 POP PUSH8 0xFFFFFFFFFFFFFFFF DUP2 GT ISZERO PUSH2 0x2E16 JUMPI PUSH2 0x2E15 PUSH2 0x2DDC JUMP JUMPDEST JUMPDEST PUSH1 0x20 DUP4 ADD SWAP2 POP DUP4 PUSH1 0x1 DUP3 MUL DUP4 ADD GT ISZERO PUSH2 0x2E32 JUMPI PUSH2 0x2E31 PUSH2 0x2DE0 JUMP JUMPDEST JUMPDEST SWAP3 POP SWAP3 SWAP1 POP JUMP JUMPDEST PUSH0 PUSH8 0xFFFFFFFFFFFFFFFF DUP3 AND SWAP1 POP SWAP2 SWAP1 POP JUMP JUMPDEST PUSH2 0x2E55 DUP2 PUSH2 0x2E39 JUMP JUMPDEST DUP2 EQ PUSH2 0x2E5F JUMPI PUSH0 PUSH0 REVERT JUMPDEST POP JUMP JUMPDEST PUSH0 DUP2 CALLDATALOAD SWAP1 POP PUSH2 0x2E70 DUP2 PUSH2 0x2E4C JUMP JUMPDEST SWAP3 SWAP2 POP POP JUMP JUMPDEST PUSH2 0x2E7F DUP2 PUSH2 0x2CCB JUMP JUMPDEST DUP2 EQ PUSH2 0x2E89 JUMPI PUSH0 PUSH0 REVERT JUMPDEST POP JUMP JUMPDEST PUSH0 DUP2 CALLDATALOAD SWAP1 POP PUSH2 0x2E9A DUP2 PUSH2 0x2E76 JUMP JUMPDEST SWAP3 SWAP2 POP POP JUMP JUMPDEST PUSH0 PUSH0 PUSH0 PUSH0 PUSH0 PUSH0 PUSH0 PUSH1 0xA0 DUP9 DUP11 SUB SLT ISZERO PUSH2 0x2EBB JUMPI PUSH2 0x2EBA PUSH2 0x2BD6 JUMP JUMPDEST JUMPDEST PUSH0 DUP9 ADD CALLDATALOAD PUSH8 0xFFFFFFFFFFFFFFFF DUP2 GT ISZERO PUSH2 0x2ED8 JUMPI PUSH2 0x2ED7 PUSH2 0x2BDA JUMP JUMPDEST JUMPDEST PUSH2 0x2EE4 DUP11 DUP3 DUP12 ADD PUSH2 0x2DE4 JUMP JUMPDEST SWAP8 POP SWAP8 POP POP PUSH1 0x20 DUP9 ADD CALLDATALOAD PUSH8 0xFFFFFFFFFFFFFFFF DUP2 GT ISZERO PUSH2 0x2F07 JUMPI PUSH2 0x2F06 PUSH2 0x2BDA JUMP JUMPDEST JUMPDEST PUSH2 0x2F13 DUP11 DUP3 DUP12 ADD PUSH2 0x2DE4 JUMP JUMPDEST SWAP6 POP SWAP6 POP POP PUSH1 0x40 PUSH2 0x2F26 DUP11 DUP3 DUP12 ADD PUSH2 0x2E62 JUMP JUMPDEST SWAP4 POP POP PUSH1 0x60 PUSH2 0x2F37 DUP11 DUP3 DUP12 ADD PUSH2 0x2E8C JUMP JUMPDEST SWAP3 POP POP PUSH1 0x80 PUSH2 0x2F48 DUP11 DUP3 DUP12 ADD PUSH2 0x2BFD JUMP JUMPDEST SWAP2 POP POP SWAP3 SWAP6 SWAP9 SWAP2 SWAP5 SWAP8 POP SWAP3 SWAP6 POP JUMP JUMPDEST PUSH0 PUSH0 PUSH1 0x40 DUP4 DUP6 SUB SLT ISZERO PUSH2 0x2F6D JUMPI PUSH2 0x2F6C PUSH2 0x2BD6 JUMP JUMPDEST JUMPDEST PUSH0 PUSH2 0x2F7A DUP6 DUP3 DUP7 ADD PUSH2 0x2BFD JUMP JUMPDEST SWAP3 POP POP PUSH1 0x20 PUSH2 0x2F8B DUP6 DUP3 DUP7 ADD PUSH2 0x2E8C JUMP JUMPDEST SWAP2 POP POP SWAP3 POP SWAP3 SWAP1 POP JUMP JUMPDEST PUSH0 DUP2 ISZERO ISZERO SWAP1 POP SWAP2 SWAP1 POP JUMP JUMPDEST PUSH2 0x2FA9 DUP2 PUSH2 0x2F95 JUMP JUMPDEST DUP3 MSTORE POP POP JUMP JUMPDEST PUSH0 PUSH1 0x60 DUP3 ADD SWAP1 POP PUSH2 0x2FC2 PUSH0 DUP4 ADD DUP7 PUSH2 0x2C84 JUMP JUMPDEST PUSH2 0x2FCF PUSH1 0x20 DUP4 ADD DUP6 PUSH2 0x2C84 JUMP JUMPDEST PUSH2 0x2FDC PUSH1 0x40 DUP4 ADD DUP5 PUSH2 0x2FA0 JUMP JUMPDEST SWAP5 SWAP4 POP POP POP POP JUMP JUMPDEST PUSH0 PUSH1 0x20 DUP3 ADD SWAP1 POP PUSH2 0x2FF7 PUSH0 DUP4 ADD DUP5 PUSH2 0x2FA0 JUMP JUMPDEST SWAP3 SWAP2 POP POP JUMP JUMPDEST PUSH0 PUSH0 PUSH1 0x40 DUP4 DUP6 SUB SLT ISZERO PUSH2 0x3013 JUMPI PUSH2 0x3012 PUSH2 0x2BD6 JUMP JUMPDEST JUMPDEST PUSH0 PUSH2 0x3020 DUP6 DUP3 DUP7 ADD PUSH2 0x2BFD JUMP JUMPDEST SWAP3 POP POP PUSH1 0x20 PUSH2 0x3031 DUP6 DUP3 DUP7 ADD PUSH2 0x2C20 JUMP JUMPDEST SWAP2 POP POP SWAP3 POP SWAP3 SWAP1 POP JUMP JUMPDEST PUSH0 PUSH1 0x20 DUP3 DUP5 SUB SLT ISZERO PUSH2 0x3050 JUMPI PUSH2 0x304F PUSH2 0x2BD6 JUMP JUMPDEST JUMPDEST PUSH0 PUSH2 0x305D DUP5 DUP3 DUP6 ADD PUSH2 0x2E8C JUMP JUMPDEST SWAP2 POP POP SWAP3 SWAP2 POP POP JUMP JUMPDEST PUSH0 DUP2 MLOAD SWAP1 POP SWAP2 SWAP1 POP JUMP JUMPDEST PUSH0 DUP3 DUP3 MSTORE PUSH1 0x20 DUP3 ADD SWAP1 POP SWAP3 SWAP2 POP POP JUMP JUMPDEST DUP3 DUP2 DUP4 MCOPY PUSH0 DUP4 DUP4 ADD MSTORE POP POP POP JUMP JUMPDEST PUSH0 PUSH1 0x1F NOT PUSH1 0x1F DUP4 ADD AND SWAP1 POP SWAP2 SWAP1 POP JUMP JUMPDEST PUSH0 PUSH2 0x30A8 DUP3 PUSH2 0x3066 JUMP JUMPDEST PUSH2 0x30B2 DUP2 DUP6 PUSH2 0x3070 JUMP JUMPDEST SWAP4 POP PUSH2 0x30C2 DUP2 DUP6 PUSH1 0x20 DUP7 ADD PUSH2 0x3080 JUMP JUMPDEST PUSH2 0x30CB DUP2 PUSH2 0x308E JUMP JUMPDEST DUP5 ADD SWAP2 POP POP SWAP3 SWAP2 POP POP JUMP JUMPDEST PUSH2 0x30DF DUP2 PUSH2 0x2E39 JUMP JUMPDEST DUP3 MSTORE POP POP JUMP JUMPDEST PUSH2 0x30EE DUP2 PUSH2 0x2CCB JUMP JUMPDEST DUP3 MSTORE POP POP JUMP JUMPDEST PUSH2 0x30FD DUP2 PUSH2 0x2BDE JUMP JUMPDEST DUP3 MSTORE POP POP JUMP JUMPDEST PUSH2 0x310C DUP2 PUSH2 0x2F95 JUMP JUMPDEST DUP3 MSTORE POP POP JUMP JUMPDEST PUSH32 0x4E487B7100000000000000000000000000000000000000000000000000000000 PUSH0 MSTORE PUSH1 0x21 PUSH1 0x4 MSTORE PUSH1 0x24 PUSH0 REVERT JUMPDEST PUSH1 0x2 DUP2 LT PUSH2 0x3150 JUMPI PUSH2 0x314F PUSH2 0x3112 JUMP JUMPDEST JUMPDEST POP JUMP JUMPDEST PUSH0 DUP2 SWAP1 POP PUSH2 0x3160 DUP3 PUSH2 0x313F JUMP JUMPDEST SWAP2 SWAP1 POP JUMP JUMPDEST PUSH0 PUSH2 0x316F DUP3 PUSH2 0x3153 JUMP JUMPDEST SWAP1 POP SWAP2 SWAP1 POP JUMP JUMPDEST PUSH2 0x317F DUP2 PUSH2 0x3165 JUMP JUMPDEST DUP3 MSTORE POP POP JUMP JUMPDEST PUSH0 PUSH2 0x1C0 DUP4 ADD PUSH0 DUP4 ADD MLOAD DUP5 DUP3 SUB PUSH0 DUP7 ADD MSTORE PUSH2 0x31A0 DUP3 DUP3 PUSH2 0x309E JUMP JUMPDEST SWAP2 POP POP PUSH1 0x20 DUP4 ADD MLOAD DUP5 DUP3 SUB PUSH1 0x20 DUP7 ADD MSTORE PUSH2 0x31BA DUP3 DUP3 PUSH2 0x309E JUMP JUMPDEST SWAP2 POP POP PUSH1 0x40 DUP4 ADD MLOAD PUSH2 0x31CF PUSH1 0x40 DUP7 ADD DUP3 PUSH2 0x30D6 JUMP JUMPDEST POP PUSH1 0x60 DUP4 ADD MLOAD PUSH2 0x31E2 PUSH1 0x60 DUP7 ADD DUP3 PUSH2 0x30E5 JUMP JUMPDEST POP PUSH1 0x80 DUP4 ADD MLOAD PUSH2 0x31F5 PUSH1 0x80 DUP7 ADD DUP3 PUSH2 0x30E5 JUMP JUMPDEST POP PUSH1 0xA0 DUP4 ADD MLOAD PUSH2 0x3208 PUSH1 0xA0 DUP7 ADD DUP3 PUSH2 0x30F4 JUMP JUMPDEST POP PUSH1 0xC0 DUP4 ADD MLOAD PUSH2 0x321B PUSH1 0xC0 DUP7 ADD DUP3 PUSH2 0x30F4 JUMP JUMPDEST POP PUSH1 0xE0 DUP4 ADD MLOAD PUSH2 0x322E PUSH1 0xE0 DUP7 ADD DUP3 PUSH2 0x30F4 JUMP JUMPDEST POP PUSH2 0x100 DUP4 ADD MLOAD PUSH2 0x3243 PUSH2 0x100 DUP7 ADD DUP3 PUSH2 0x30F4 JUMP JUMPDEST POP PUSH2 0x120 DUP4 ADD MLOAD PUSH2 0x3258 PUSH2 0x120 DUP7 ADD DUP3 PUSH2 0x30F4 JUMP JUMPDEST POP PUSH2 0x140 DUP4 ADD MLOAD PUSH2 0x326D PUSH2 0x140 DUP7 ADD DUP3 PUSH2 0x30F4 JUMP JUMPDEST POP PUSH2 0x160 DUP4 ADD MLOAD PUSH2 0x3282 PUSH2 0x160 DUP7 ADD DUP3 PUSH2 0x3103 JUMP JUMPDEST POP PUSH2 0x180 DUP4 ADD MLOAD PUSH2 0x3297 PUSH2 0x180 DUP7 ADD DUP3 PUSH2 0x3176 JUMP JUMPDEST POP PUSH2 0x1A0 DUP4 ADD MLOAD PUSH2 0x32AC PUSH2 0x1A0 DUP7 ADD DUP3 PUSH2 0x3103 JUMP JUMPDEST POP DUP1 SWAP2 POP POP SWAP3 SWAP2 POP POP JUMP JUMPDEST PUSH0 PUSH1 0x20 DUP3 ADD SWAP1 POP DUP2 DUP2 SUB PUSH0 DUP4 ADD MSTORE PUSH2 0x32CF DUP2 DUP5 PUSH2 0x3185 JUMP JUMPDEST SWAP1 POP SWAP3 SWAP2 POP POP JUMP JUMPDEST PUSH32 0x4E487B7100000000000000000000000000000000000000000000000000000000 PUSH0 MSTORE PUSH1 0x11 PUSH1 0x4 MSTORE PUSH1 0x24 PUSH0 REVERT JUMPDEST PUSH0 PUSH2 0x330E DUP3 PUSH2 0x2BDE JUMP JUMPDEST SWAP2 POP PUSH2 0x3319 DUP4 PUSH2 0x2BDE JUMP JUMPDEST SWAP3 POP DUP3 DUP3 MUL PUSH2 0x3327 DUP2 PUSH2 0x2BDE JUMP JUMPDEST SWAP2 POP DUP3 DUP3 DIV DUP5 EQ DUP4 ISZERO OR PUSH2 0x333E JUMPI PUSH2 0x333D PUSH2 0x32D7 JUMP JUMPDEST JUMPDEST POP SWAP3 SWAP2 POP POP JUMP JUMPDEST PUSH32 0x4E487B7100000000000000000000000000000000000000000000000000000000 PUSH0 MSTORE PUSH1 0x12 PUSH1 0x4 MSTORE PUSH1 0x24 PUSH0 REVERT JUMPDEST PUSH0 PUSH2 0x337C DUP3 PUSH2 0x2BDE JUMP JUMPDEST SWAP2 POP PUSH2 0x3387 DUP4 PUSH2 0x2BDE JUMP JUMPDEST SWAP3 POP DUP3 PUSH2 0x3397 JUMPI PUSH2 0x3396 PUSH2 0x3345 JUMP JUMPDEST JUMPDEST DUP3 DUP3 DIV SWAP1 POP SWAP3 SWAP2 POP POP JUMP JUMPDEST PUSH0 PUSH2 0x33AC DUP3 PUSH2 0x2BDE JUMP JUMPDEST SWAP2 POP PUSH2 0x33B7 DUP4 PUSH2 0x2BDE JUMP JUMPDEST SWAP3 POP DUP3 DUP3 SUB SWAP1 POP DUP2 DUP2 GT ISZERO PUSH2 0x33CF JUMPI PUSH2 0x33CE PUSH2 0x32D7 JUMP JUMPDEST JUMPDEST SWAP3 SWAP2 POP POP JUMP JUMPDEST PUSH0 PUSH2 0x33DF DUP3 PUSH2 0x2BDE JUMP JUMPDEST SWAP2 POP PUSH2 0x33EA DUP4 PUSH2 0x2BDE JUMP JUMPDEST SWAP3 POP DUP3 DUP3 ADD SWAP1 POP DUP1 DUP3 GT ISZERO PUSH2 0x3402 JUMPI PUSH2 0x3401 PUSH2 0x32D7 JUMP JUMPDEST JUMPDEST SWAP3 SWAP2 POP POP JUMP JUMPDEST PUSH0 PUSH1 0x80 DUP3 ADD SWAP1 POP PUSH2 0x341B PUSH0 DUP4 ADD DUP8 PUSH2 0x2C84 JUMP JUMPDEST PUSH2 0x3428 PUSH1 0x20 DUP4 ADD DUP7 PUSH2 0x2C84 JUMP JUMPDEST PUSH2 0x3435 PUSH1 0x40 DUP4 ADD DUP6 PUSH2 0x2C84 JUMP JUMPDEST PUSH2 0x3442 PUSH1 0x60 DUP4 ADD DUP5 PUSH2 0x2C84 JUMP JUMPDEST SWAP6 SWAP5 POP POP POP POP POP JUMP JUMPDEST PUSH0 PUSH2 0x3455 DUP3 PUSH2 0x2BDE JUMP JUMPDEST SWAP2 POP PUSH32 0xFFFFFFFFFFFFFFFFFFFFFFFFFFFFFFFFFFFFFFFFFFFFFFFFFFFFFFFFFFFFFFFF DUP3 SUB PUSH2 0x3487 JUMPI PUSH2 0x3486 PUSH2 0x32D7 JUMP JUMPDEST JUMPDEST PUSH1 0x1 DUP3 ADD SWAP1 POP SWAP2 SWAP1 POP JUMP JUMPDEST PUSH32 0x4E487B7100000000000000000000000000000000000000000000000000000000 PUSH0 MSTORE PUSH1 0x41 PUSH1 0x4 MSTORE PUSH1 0x24 PUSH0 REVERT JUMPDEST PUSH32 0x4E487B7100000000000000000000000000000000000000000000000000000000 PUSH0 MSTORE PUSH1 0x22 PUSH1 0x4 MSTORE PUSH1 0x24 PUSH0 REVERT JUMPDEST PUSH0 PUSH1 0x2 DUP3 DIV SWAP1 POP PUSH1 0x1 DUP3 AND DUP1 PUSH2 0x3503 JUMPI PUSH1 0x7F DUP3 AND SWAP2 POP JUMPDEST PUSH1 0x20 DUP3 LT DUP2 SUB PUSH2 0x3516 JUMPI PUSH2 0x3515 PUSH2 0x34BF JUMP JUMPDEST JUMPDEST POP SWAP2 SWAP1 POP JUMP JUMPDEST PUSH0 DUP2 SWAP1 POP DUP2 PUSH0 MSTORE PUSH1 0x20 PUSH0 KECCAK256 SWAP1 POP SWAP2 SWAP1 POP JUMP JUMPDEST PUSH0 PUSH1 0x20 PUSH1 0x1F DUP4 ADD DIV SWAP1 POP SWAP2 SWAP1 POP JUMP JUMPDEST PUSH0 DUP3 DUP3 SHL SWAP1 POP SWAP3 SWAP2 POP POP JUMP JUMPDEST PUSH0 PUSH1 0x8 DUP4 MUL PUSH2 0x3578 PUSH32 0xFFFFFFFFFFFFFFFFFFFFFFFFFFFFFFFFFFFFFFFFFFFFFFFFFFFFFFFFFFFFFFFF DUP3 PUSH2 0x353D JUMP JUMPDEST PUSH2 0x3582 DUP7 DUP4 PUSH2 0x353D JUMP JUMPDEST SWAP6 POP DUP1 NOT DUP5 AND SWAP4 POP DUP1 DUP7 AND DUP5 OR SWAP3 POP POP POP SWAP4 SWAP3 POP POP POP JUMP JUMPDEST PUSH0 PUSH2 0x35B4 PUSH2 0x35AF PUSH2 0x35AA DUP5 PUSH2 0x2BDE JUMP JUMPDEST PUSH2 0x2D2F JUMP JUMPDEST PUSH2 0x2BDE JUMP JUMPDEST SWAP1 POP SWAP2 SWAP1 POP JUMP JUMPDEST PUSH0 DUP2 SWAP1 POP SWAP2 SWAP1 POP JUMP JUMPDEST PUSH2 0x35CD DUP4 PUSH2 0x359A JUMP JUMPDEST PUSH2 0x35E1 PUSH2 0x35D9 DUP3 PUSH2 0x35BB JUMP JUMPDEST DUP5 DUP5 SLOAD PUSH2 0x3549 JUMP JUMPDEST DUP3 SSTORE POP POP POP POP JUMP JUMPDEST PUSH0 PUSH0 SWAP1 POP SWAP1 JUMP JUMPDEST PUSH2 0x35F8 PUSH2 0x35E9 JUMP JUMPDEST PUSH2 0x3603 DUP2 DUP5 DUP5 PUSH2 0x35C4 JUMP JUMPDEST POP POP POP JUMP JUMPDEST JUMPDEST DUP2 DUP2 LT ISZERO PUSH2 0x3626 JUMPI PUSH2 0x361B PUSH0 DUP3 PUSH2 0x35F0 JUMP JUMPDEST PUSH1 0x1 DUP2 ADD SWAP1 POP PUSH2 0x3609 JUMP JUMPDEST POP POP JUMP JUMPDEST PUSH1 0x1F DUP3 GT ISZERO PUSH2 0x366B JUMPI PUSH2 0x363C DUP2 PUSH2 0x351C JUMP JUMPDEST PUSH2 0x3645 DUP5 PUSH2 0x352E JUMP JUMPDEST DUP2 ADD PUSH1 0x20 DUP6 LT ISZERO PUSH2 0x3654 JUMPI DUP2 SWAP1 POP JUMPDEST PUSH2 0x3668 PUSH2 0x3660 DUP6 PUSH2 0x352E JUMP JUMPDEST DUP4 ADD DUP3 PUSH2 0x3608 JUMP JUMPDEST POP POP JUMPDEST POP POP POP JUMP JUMPDEST PUSH0 DUP3 DUP3 SHR SWAP1 POP SWAP3 SWAP2 POP POP JUMP JUMPDEST PUSH0 PUSH2 0x368B PUSH0 NOT DUP5 PUSH1 0x8 MUL PUSH2 0x3670 JUMP JUMPDEST NOT DUP1 DUP4 AND SWAP2 POP POP SWAP3 SWAP2 POP POP JUMP JUMPDEST PUSH0 PUSH2 0x36A3 DUP4 DUP4 PUSH2 0x367C JUMP JUMPDEST SWAP2 POP DUP3 PUSH1 0x2 MUL DUP3 OR SWAP1 POP SWAP3 SWAP2 POP POP JUMP JUMPDEST PUSH2 0x36BC DUP3 PUSH2 0x3066 JUMP JUMPDEST PUSH8 0xFFFFFFFFFFFFFFFF DUP2 GT ISZERO PUSH2 0x36D5 JUMPI PUSH2 0x36D4 PUSH2 0x3492 JUMP JUMPDEST JUMPDEST PUSH2 0x36DF DUP3 SLOAD PUSH2 0x34EC JUMP JUMPDEST PUSH2 0x36EA DUP3 DUP3 DUP6 PUSH2 0x362A JUMP JUMPDEST PUSH0 PUSH1 0x20 SWAP1 POP PUSH1 0x1F DUP4 GT PUSH1 0x1 DUP2 EQ PUSH2 0x371B JUMPI PUSH0 DUP5 ISZERO PUSH2 0x3709 JUMPI DUP3 DUP8 ADD MLOAD SWAP1 POP JUMPDEST PUSH2 0x3713 DUP6 DUP3 PUSH2 0x3698 JUMP JUMPDEST DUP7 SSTORE POP PUSH2 0x377A JUMP JUMPDEST PUSH1 0x1F NOT DUP5 AND PUSH2 0x3729 DUP7 PUSH2 0x351C JUMP JUMPDEST PUSH0 JUMPDEST DUP3 DUP2 LT ISZERO PUSH2 0x3750 JUMPI DUP5 DUP10 ADD MLOAD DUP3 SSTORE PUSH1 0x1 DUP3 ADD SWAP2 POP PUSH1 0x20 DUP6 ADD SWAP5 POP PUSH1 0x20 DUP2 ADD SWAP1 POP PUSH2 0x372B JUMP JUMPDEST DUP7 DUP4 LT ISZERO PUSH2 0x376D JUMPI DUP5 DUP10 ADD MLOAD PUSH2 0x3769 PUSH1 0x1F DUP10 AND DUP3 PUSH2 0x367C JUMP JUMPDEST DUP4 SSTORE POP JUMPDEST PUSH1 0x1 PUSH1 0x2 DUP9 MUL ADD DUP9 SSTORE POP POP POP JUMPDEST POP POP POP POP POP POP JUMP JUMPDEST PUSH0 DUP3 DUP3 MSTORE PUSH1 0x20 DUP3 ADD SWAP1 POP SWAP3 SWAP2 POP POP JUMP JUMPDEST DUP3 DUP2 DUP4 CALLDATACOPY PUSH0 DUP4 DUP4 ADD MSTORE POP POP POP JUMP JUMPDEST PUSH0 PUSH2 0x37AB DUP4 DUP6 PUSH2 0x3782 JUMP JUMPDEST SWAP4 POP PUSH2 0x37B8 DUP4 DUP6 DUP5 PUSH2 0x3792 JUMP JUMPDEST PUSH2 0x37C1 DUP4 PUSH2 0x308E JUMP JUMPDEST DUP5 ADD SWAP1 POP SWAP4 SWAP3 POP POP POP JUMP JUMPDEST PUSH2 0x37D5 DUP2 PUSH2 0x2E39 JUMP JUMPDEST DUP3 MSTORE POP POP JUMP JUMPDEST PUSH0 PUSH1 0x60 DUP3 ADD SWAP1 POP DUP2 DUP2 SUB PUSH0 DUP4 ADD MSTORE PUSH2 0x37F4 DUP2 DUP7 DUP9 PUSH2 0x37A0 JUMP JUMPDEST SWAP1 POP PUSH2 0x3803 PUSH1 0x20 DUP4 ADD DUP6 PUSH2 0x37CC JUMP JUMPDEST PUSH2 0x3810 PUSH1 0x40 DUP4 ADD DUP5 PUSH2 0x2C84 JUMP JUMPDEST SWAP6 SWAP5 POP POP POP POP POP JUMP INVALID LOG2 PUSH5 0x6970667358 0x22 SLT KECCAK256 PUSH10 0x18DB86C5401C727098AF SWAP13 POP 0xEC EXTCODEHASH 0x21 0xE COINBASE 0xC3 SSTORE SWAP8 PUSH18 0xD9BA39B245D0C86FC0CA64736F6C63430008 SHR STOP CALLER "},"methodIdentifiers":{"buy(uint256,uint8,uint256)":"39b61811","claimCreatorResidual(uint256)":"81723535","claimPayout(uint256)":"8a69614e","collateralToken()":"b2016bd4","createMarket(string,string,uint64,address,uint256)":"d21fb764","feeBps()":"24a9d853","feeRecipient()":"46904840","getMarket(uint256)":"eb44fdd3","getPosition(uint256,address)":"d29f541d","getYesPriceE18(uint256)":"9d42026f","marketCount()":"ec979082","owner()":"8da5cb5b","payoutClaimed(uint256,address)":"dda8744d","quoteBuy(uint256,uint8,uint256)":"ed5a13a2","quoteSell(uint256,uint8,uint256)":"b6c77d67","resolveMarket(uint256,uint8)":"df55406e","sell(uint256,uint8,uint256)":"5f90dc6e","setFeeRecipient(address)":"e74b981b","transferOwnership(address)":"f2fde38b"}}}}}