{
  "_format": "hh3-artifact-1",
  "contractName": "GiwaForecastTestToken",
  "sourceName": "contracts/GiwaForecastTestToken.sol",
  "abi": [
    {
      "inputs": [],
      "stateMutability": "nonpayable",
      "type": "constructor"
    },
    {
      "inputs": [
        {
          "internalType": "address",
          "name": "spender",
          "type": "address"
        },
        {
          "internalType": "uint256",
          "name": "allowance",
          "type": "uint256"
        },
        {
          "internalType": "uint256",
          "name": "needed",
          "type": "uint256"
        }
      ],
      "name": "ERC20InsufficientAllowance",
      "type": "error"
    },
    {
      "inputs": [
        {
          "internalType": "address",
          "name": "sender",
          "type": "address"
        },
        {
          "internalType": "uint256",
          "name": "balance",
          "type": "uint256"
        },
        {
          "internalType": "uint256",
          "name": "needed",
          "type": "uint256"
        }
      ],
      "name": "ERC20InsufficientBalance",
      "type": "error"
    },
    {
      "inputs": [
        {
          "internalType": "address",
          "name": "approver",
          "type": "address"
        }
      ],
      "name": "ERC20InvalidApprover",
      "type": "error"
    },
    {
      "inputs": [
        {
          "internalType": "address",
          "name": "receiver",
          "type": "address"
        }
      ],
      "name": "ERC20InvalidReceiver",
      "type": "error"
    },
    {
      "inputs": [
        {
          "internalType": "address",
          "name": "sender",
          "type": "address"
        }
      ],
      "name": "ERC20InvalidSender",
      "type": "error"
    },
    {
      "inputs": [
        {
          "internalType": "address",
          "name": "spender",
          "type": "address"
        }
      ],
      "name": "ERC20InvalidSpender",
      "type": "error"
    },
    {
      "inputs": [
        {
          "internalType": "uint256",
          "name": "nextClaimAt",
          "type": "uint256"
        }
      ],
      "name": "FaucetCooldownActive",
      "type": "error"
    },
    {
      "inputs": [],
      "name": "InvalidRecipient",
      "type": "error"
    },
    {
      "inputs": [
        {
          "internalType": "address",
          "name": "owner",
          "type": "address"
        }
      ],
      "name": "OwnableInvalidOwner",
      "type": "error"
    },
    {
      "inputs": [
        {
          "internalType": "address",
          "name": "account",
          "type": "address"
        }
      ],
      "name": "OwnableUnauthorizedAccount",
      "type": "error"
    },
    {
      "anonymous": false,
      "inputs": [
        {
          "indexed": true,
          "internalType": "address",
          "name": "owner",
          "type": "address"
        },
        {
          "indexed": true,
          "internalType": "address",
          "name": "spender",
          "type": "address"
        },
        {
          "indexed": false,
          "internalType": "uint256",
          "name": "value",
          "type": "uint256"
        }
      ],
      "name": "Approval",
      "type": "event"
    },
    {
      "anonymous": false,
      "inputs": [
        {
          "indexed": true,
          "internalType": "address",
          "name": "account",
          "type": "address"
        },
        {
          "indexed": false,
          "internalType": "uint256",
          "name": "amount",
          "type": "uint256"
        },
        {
          "indexed": false,
          "internalType": "uint256",
          "name": "nextClaimAt",
          "type": "uint256"
        }
      ],
      "name": "FaucetClaimed",
      "type": "event"
    },
    {
      "anonymous": false,
      "inputs": [
        {
          "indexed": true,
          "internalType": "address",
          "name": "previousOwner",
          "type": "address"
        },
        {
          "indexed": true,
          "internalType": "address",
          "name": "newOwner",
          "type": "address"
        }
      ],
      "name": "OwnershipTransferred",
      "type": "event"
    },
    {
      "anonymous": false,
      "inputs": [
        {
          "indexed": true,
          "internalType": "address",
          "name": "from",
          "type": "address"
        },
        {
          "indexed": true,
          "internalType": "address",
          "name": "to",
          "type": "address"
        },
        {
          "indexed": false,
          "internalType": "uint256",
          "name": "value",
          "type": "uint256"
        }
      ],
      "name": "Transfer",
      "type": "event"
    },
    {
      "inputs": [],
      "name": "FAUCET_AMOUNT",
      "outputs": [
        {
          "internalType": "uint256",
          "name": "",
          "type": "uint256"
        }
      ],
      "stateMutability": "view",
      "type": "function"
    },
    {
      "inputs": [],
      "name": "FAUCET_COOLDOWN",
      "outputs": [
        {
          "internalType": "uint256",
          "name": "",
          "type": "uint256"
        }
      ],
      "stateMutability": "view",
      "type": "function"
    },
    {
      "inputs": [],
      "name": "INITIAL_SUPPLY",
      "outputs": [
        {
          "internalType": "uint256",
          "name": "",
          "type": "uint256"
        }
      ],
      "stateMutability": "view",
      "type": "function"
    },
    {
      "inputs": [
        {
          "internalType": "address",
          "name": "owner",
          "type": "address"
        },
        {
          "internalType": "address",
          "name": "spender",
          "type": "address"
        }
      ],
      "name": "allowance",
      "outputs": [
        {
          "internalType": "uint256",
          "name": "",
          "type": "uint256"
        }
      ],
      "stateMutability": "view",
      "type": "function"
    },
    {
      "inputs": [
        {
          "internalType": "address",
          "name": "spender",
          "type": "address"
        },
        {
          "internalType": "uint256",
          "name": "value",
          "type": "uint256"
        }
      ],
      "name": "approve",
      "outputs": [
        {
          "internalType": "bool",
          "name": "",
          "type": "bool"
        }
      ],
      "stateMutability": "nonpayable",
      "type": "function"
    },
    {
      "inputs": [
        {
          "internalType": "address",
          "name": "account",
          "type": "address"
        }
      ],
      "name": "balanceOf",
      "outputs": [
        {
          "internalType": "uint256",
          "name": "",
          "type": "uint256"
        }
      ],
      "stateMutability": "view",
      "type": "function"
    },
    {
      "inputs": [],
      "name": "claim",
      "outputs": [],
      "stateMutability": "nonpayable",
      "type": "function"
    },
    {
      "inputs": [],
      "name": "decimals",
      "outputs": [
        {
          "internalType": "uint8",
          "name": "",
          "type": "uint8"
        }
      ],
      "stateMutability": "view",
      "type": "function"
    },
    {
      "inputs": [
        {
          "internalType": "address",
          "name": "to",
          "type": "address"
        },
        {
          "internalType": "uint256",
          "name": "amount",
          "type": "uint256"
        }
      ],
      "name": "mint",
      "outputs": [],
      "stateMutability": "nonpayable",
      "type": "function"
    },
    {
      "inputs": [],
      "name": "name",
      "outputs": [
        {
          "internalType": "string",
          "name": "",
          "type": "string"
        }
      ],
      "stateMutability": "view",
      "type": "function"
    },
    {
      "inputs": [
        {
          "internalType": "address",
          "name": "account",
          "type": "address"
        }
      ],
      "name": "nextClaimAt",
      "outputs": [
        {
          "internalType": "uint256",
          "name": "timestamp",
          "type": "uint256"
        }
      ],
      "stateMutability": "view",
      "type": "function"
    },
    {
      "inputs": [],
      "name": "owner",
      "outputs": [
        {
          "internalType": "address",
          "name": "",
          "type": "address"
        }
      ],
      "stateMutability": "view",
      "type": "function"
    },
    {
      "inputs": [],
      "name": "renounceOwnership",
      "outputs": [],
      "stateMutability": "nonpayable",
      "type": "function"
    },
    {
      "inputs": [],
      "name": "symbol",
      "outputs": [
        {
          "internalType": "string",
          "name": "",
          "type": "string"
        }
      ],
      "stateMutability": "view",
      "type": "function"
    },
    {
      "inputs": [],
      "name": "totalSupply",
      "outputs": [
        {
          "internalType": "uint256",
          "name": "",
          "type": "uint256"
        }
      ],
      "stateMutability": "view",
      "type": "function"
    },
    {
      "inputs": [
        {
          "internalType": "address",
          "name": "to",
          "type": "address"
        },
        {
          "internalType": "uint256",
          "name": "value",
          "type": "uint256"
        }
      ],
      "name": "transfer",
      "outputs": [
        {
          "internalType": "bool",
          "name": "",
          "type": "bool"
        }
      ],
      "stateMutability": "nonpayable",
      "type": "function"
    },
    {
      "inputs": [
        {
          "internalType": "address",
          "name": "from",
          "type": "address"
        },
        {
          "internalType": "address",
          "name": "to",
          "type": "address"
        },
        {
          "internalType": "uint256",
          "name": "value",
          "type": "uint256"
        }
      ],
      "name": "transferFrom",
      "outputs": [
        {
          "internalType": "bool",
          "name": "",
          "type": "bool"
        }
      ],
      "stateMutability": "nonpayable",
      "type": "function"
    },
    {
      "inputs": [
        {
          "internalType": "address",
          "name": "newOwner",
          "type": "address"
        }
      ],
      "name": "transferOwnership",
      "outputs": [],
      "stateMutability": "nonpayable",
      "type": "function"
    }
  ],
  "bytecode": "0x608060405234801561000f575f5ffd5b50336040518060400160405280601881526020017f4749574120466f726563617374205465737420546f6b656e00000000000000008152506040518060400160405280600381526020017f4746540000000000000000000000000000000000000000000000000000000000815250816003908161008c91906106dc565b50806004908161009c91906106dc565b5050505f73ffffffffffffffffffffffffffffffffffffffff168173ffffffffffffffffffffffffffffffffffffffff160361010f575f6040517f1e4fbdf700000000000000000000000000000000000000000000000000000000815260040161010691906107ea565b60405180910390fd5b61011e8161013e60201b60201c565b506101393369d3c21bcecceda100000061020160201b60201c565b6108c0565b5f60055f9054906101000a900473ffffffffffffffffffffffffffffffffffffffff1690508160055f6101000a81548173ffffffffffffffffffffffffffffffffffffffff021916908373ffffffffffffffffffffffffffffffffffffffff1602179055508173ffffffffffffffffffffffffffffffffffffffff168173ffffffffffffffffffffffffffffffffffffffff167f8be0079c531659141344cd1fd0a4f28419497f9722a3daafe3b4186f6b6457e060405160405180910390a35050565b5f73ffffffffffffffffffffffffffffffffffffffff168273ffffffffffffffffffffffffffffffffffffffff1603610271575f6040517fec442f0500000000000000000000000000000000000000000000000000000000815260040161026891906107ea565b60405180910390fd5b6102825f838361028660201b60201c565b5050565b5f73ffffffffffffffffffffffffffffffffffffffff168373ffffffffffffffffffffffffffffffffffffffff16036102d6578060025f8282546102ca9190610830565b925050819055506103a4565b5f5f5f8573ffffffffffffffffffffffffffffffffffffffff1673ffffffffffffffffffffffffffffffffffffffff1681526020019081526020015f205490508181101561035f578381836040517fe450d38c00000000000000000000000000000000000000000000000000000000815260040161035693929190610872565b60405180910390fd5b8181035f5f8673ffffffffffffffffffffffffffffffffffffffff1673ffffffffffffffffffffffffffffffffffffffff1681526020019081526020015f2081905550505b5f73ffffffffffffffffffffffffffffffffffffffff168273ffffffffffffffffffffffffffffffffffffffff16036103eb578060025f8282540392505081905550610435565b805f5f8473ffffffffffffffffffffffffffffffffffffffff1673ffffffffffffffffffffffffffffffffffffffff1681526020019081526020015f205f82825401925050819055505b8173ffffffffffffffffffffffffffffffffffffffff168373ffffffffffffffffffffffffffffffffffffffff167fddf252ad1be2c89b69c2b068fc378daa952ba7f163c4a11628f55a4df523b3ef8360405161049291906108a7565b60405180910390a3505050565b5f81519050919050565b7f4e487b71000000000000000000000000000000000000000000000000000000005f52604160045260245ffd5b7f4e487b71000000000000000000000000000000000000000000000000000000005f52602260045260245ffd5b5f600282049050600182168061051a57607f821691505b60208210810361052d5761052c6104d6565b5b50919050565b5f819050815f5260205f209050919050565b5f6020601f8301049050919050565b5f82821b905092915050565b5f6008830261058f7fffffffffffffffffffffffffffffffffffffffffffffffffffffffffffffffff82610554565b6105998683610554565b95508019841693508086168417925050509392505050565b5f819050919050565b5f819050919050565b5f6105dd6105d86105d3846105b1565b6105ba565b6105b1565b9050919050565b5f819050919050565b6105f6836105c3565b61060a610602826105e4565b848454610560565b825550505050565b5f5f905090565b610621610612565b61062c8184846105ed565b505050565b5b8181101561064f576106445f82610619565b600181019050610632565b5050565b601f8211156106945761066581610533565b61066e84610545565b8101602085101561067d578190505b61069161068985610545565b830182610631565b50505b505050565b5f82821c905092915050565b5f6106b45f1984600802610699565b1980831691505092915050565b5f6106cc83836106a5565b9150826002028217905092915050565b6106e58261049f565b67ffffffffffffffff8111156106fe576106fd6104a9565b5b6107088254610503565b610713828285610653565b5f60209050601f831160018114610744575f8415610732578287015190505b61073c85826106c1565b8655506107a3565b601f19841661075286610533565b5f5b8281101561077957848901518255600182019150602085019450602081019050610754565b868310156107965784890151610792601f8916826106a5565b8355505b6001600288020188555050505b505050505050565b5f73ffffffffffffffffffffffffffffffffffffffff82169050919050565b5f6107d4826107ab565b9050919050565b6107e4816107ca565b82525050565b5f6020820190506107fd5f8301846107db565b92915050565b7f4e487b71000000000000000000000000000000000000000000000000000000005f52601160045260245ffd5b5f61083a826105b1565b9150610845836105b1565b925082820190508082111561085d5761085c610803565b5b92915050565b61086c816105b1565b82525050565b5f6060820190506108855f8301866107db565b6108926020830185610863565b61089f6040830184610863565b949350505050565b5f6020820190506108ba5f830184610863565b92915050565b611404806108cd5f395ff3fe608060405234801561000f575f5ffd5b5060043610610114575f3560e01c806370a08231116100a05780638da5cb5b1161006f5780638da5cb5b146102bc57806395d89b41146102da578063a9059cbb146102f8578063dd62ed3e14610328578063f2fde38b1461035857610114565b806370a0823114610246578063715018a61461027657806376697640146102805780637d1d5d191461029e57610114565b806323b872dd116100e757806323b872dd146101b45780632ff2e9dc146101e4578063313ce5671461020257806340c10f19146102205780634e71d92d1461023c57610114565b806306fdde0314610118578063095ea7b31461013657806311a163e91461016657806318160ddd14610196575b5f5ffd5b610120610374565b60405161012d9190611056565b60405180910390f35b610150600480360381019061014b9190611107565b610404565b60405161015d919061115f565b60405180910390f35b610180600480360381019061017b9190611178565b610426565b60405161018d91906111b2565b60405180910390f35b61019e61043b565b6040516101ab91906111b2565b60405180910390f35b6101ce60048036038101906101c991906111cb565b610444565b6040516101db919061115f565b60405180910390f35b6101ec610472565b6040516101f991906111b2565b60405180910390f35b61020a610480565b6040516102179190611236565b60405180910390f35b61023a60048036038101906102359190611107565b610488565b005b610244610503565b005b610260600480360381019061025b9190611178565b61064d565b60405161026d91906111b2565b60405180910390f35b61027e610692565b005b6102886106a5565b60405161029591906111b2565b60405180910390f35b6102a66106b2565b6040516102b391906111b2565b60405180910390f35b6102c46106b9565b6040516102d1919061125e565b60405180910390f35b6102e26106e1565b6040516102ef9190611056565b60405180910390f35b610312600480360381019061030d9190611107565b610771565b60405161031f919061115f565b60405180910390f35b610342600480360381019061033d9190611277565b610793565b60405161034f91906111b2565b60405180910390f35b610372600480360381019061036d9190611178565b610815565b005b606060038054610383906112e2565b80601f01602080910402602001604051908101604052809291908181526020018280546103af906112e2565b80156103fa5780601f106103d1576101008083540402835291602001916103fa565b820191905f5260205f20905b8154815290600101906020018083116103dd57829003601f168201915b5050505050905090565b5f5f61040e610899565b905061041b8185856108a0565b600191505092915050565b6006602052805f5260405f205f915090505481565b5f600254905090565b5f5f61044e610899565b905061045b8582856108b2565b610466858585610945565b60019150509392505050565b69d3c21bcecceda100000081565b5f6012905090565b610490610a35565b5f73ffffffffffffffffffffffffffffffffffffffff168273ffffffffffffffffffffffffffffffffffffffff16036104f5576040517f9c8d2cd200000000000000000000000000000000000000000000000000000000815260040160405180910390fd5b6104ff8282610abc565b5050565b5f60065f3373ffffffffffffffffffffffffffffffffffffffff1673ffffffffffffffffffffffffffffffffffffffff1681526020019081526020015f205490508042101561058957806040517f9ad22e0f00000000000000000000000000000000000000000000000000000000815260040161058091906111b2565b60405180910390fd5b5f6201518042610599919061133f565b90508060065f3373ffffffffffffffffffffffffffffffffffffffff1673ffffffffffffffffffffffffffffffffffffffff1681526020019081526020015f20819055506105f033683635c9adc5dea00000610abc565b3373ffffffffffffffffffffffffffffffffffffffff167fa19a7d2b5bf6a987a66e0eac8a6eb2dbd34ae6a43285849af788b224268ec022683635c9adc5dea0000083604051610641929190611372565b60405180910390a25050565b5f5f5f8373ffffffffffffffffffffffffffffffffffffffff1673ffffffffffffffffffffffffffffffffffffffff1681526020019081526020015f20549050919050565b61069a610a35565b6106a35f610b3b565b565b683635c9adc5dea0000081565b6201518081565b5f60055f9054906101000a900473ffffffffffffffffffffffffffffffffffffffff16905090565b6060600480546106f0906112e2565b80601f016020809104026020016040519081016040528092919081815260200182805461071c906112e2565b80156107675780601f1061073e57610100808354040283529160200191610767565b820191905f5260205f20905b81548152906001019060200180831161074a57829003601f168201915b5050505050905090565b5f5f61077b610899565b9050610788818585610945565b600191505092915050565b5f60015f8473ffffffffffffffffffffffffffffffffffffffff1673ffffffffffffffffffffffffffffffffffffffff1681526020019081526020015f205f8373ffffffffffffffffffffffffffffffffffffffff1673ffffffffffffffffffffffffffffffffffffffff1681526020019081526020015f2054905092915050565b61081d610a35565b5f73ffffffffffffffffffffffffffffffffffffffff168173ffffffffffffffffffffffffffffffffffffffff160361088d575f6040517f1e4fbdf7000000000000000000000000000000000000000000000000000000008152600401610884919061125e565b60405180910390fd5b61089681610b3b565b50565b5f33905090565b6108ad8383836001610bfe565b505050565b5f6108bd8484610793565b90507fffffffffffffffffffffffffffffffffffffffffffffffffffffffffffffffff81101561093f5781811015610930578281836040517ffb8f41b200000000000000000000000000000000000000000000000000000000815260040161092793929190611399565b60405180910390fd5b61093e84848484035f610bfe565b5b50505050565b5f73ffffffffffffffffffffffffffffffffffffffff168373ffffffffffffffffffffffffffffffffffffffff16036109b5575f6040517f96c6fd1e0000000000000000000000000000000000000000000000000000000081526004016109ac919061125e565b60405180910390fd5b5f73ffffffffffffffffffffffffffffffffffffffff168273ffffffffffffffffffffffffffffffffffffffff1603610a25575f6040517fec442f05000000000000000000000000000000000000000000000000000000008152600401610a1c919061125e565b60405180910390fd5b610a30838383610dcd565b505050565b610a3d610899565b73ffffffffffffffffffffffffffffffffffffffff16610a5b6106b9565b73ffffffffffffffffffffffffffffffffffffffff1614610aba57610a7e610899565b6040517f118cdaa7000000000000000000000000000000000000000000000000000000008152600401610ab1919061125e565b60405180910390fd5b565b5f73ffffffffffffffffffffffffffffffffffffffff168273ffffffffffffffffffffffffffffffffffffffff1603610b2c575f6040517fec442f05000000000000000000000000000000000000000000000000000000008152600401610b23919061125e565b60405180910390fd5b610b375f8383610dcd565b5050565b5f60055f9054906101000a900473ffffffffffffffffffffffffffffffffffffffff1690508160055f6101000a81548173ffffffffffffffffffffffffffffffffffffffff021916908373ffffffffffffffffffffffffffffffffffffffff1602179055508173ffffffffffffffffffffffffffffffffffffffff168173ffffffffffffffffffffffffffffffffffffffff167f8be0079c531659141344cd1fd0a4f28419497f9722a3daafe3b4186f6b6457e060405160405180910390a35050565b5f73ffffffffffffffffffffffffffffffffffffffff168473ffffffffffffffffffffffffffffffffffffffff1603610c6e575f6040517fe602df05000000000000000000000000000000000000000000000000000000008152600401610c65919061125e565b60405180910390fd5b5f73ffffffffffffffffffffffffffffffffffffffff168373ffffffffffffffffffffffffffffffffffffffff1603610cde575f6040517f94280d62000000000000000000000000000000000000000000000000000000008152600401610cd5919061125e565b60405180910390fd5b8160015f8673ffffffffffffffffffffffffffffffffffffffff1673ffffffffffffffffffffffffffffffffffffffff1681526020019081526020015f205f8573ffffffffffffffffffffffffffffffffffffffff1673ffffffffffffffffffffffffffffffffffffffff1681526020019081526020015f20819055508015610dc7578273ffffffffffffffffffffffffffffffffffffffff168473ffffffffffffffffffffffffffffffffffffffff167f8c5be1e5ebec7d5bd14f71427d1e84f3dd0314c0f7b2291e5b200ac8c7c3b92584604051610dbe91906111b2565b60405180910390a35b50505050565b5f73ffffffffffffffffffffffffffffffffffffffff168373ffffffffffffffffffffffffffffffffffffffff1603610e1d578060025f828254610e11919061133f565b92505081905550610eeb565b5f5f5f8573ffffffffffffffffffffffffffffffffffffffff1673ffffffffffffffffffffffffffffffffffffffff1681526020019081526020015f2054905081811015610ea6578381836040517fe450d38c000000000000000000000000000000000000000000000000000000008152600401610e9d93929190611399565b60405180910390fd5b8181035f5f8673ffffffffffffffffffffffffffffffffffffffff1673ffffffffffffffffffffffffffffffffffffffff1681526020019081526020015f2081905550505b5f73ffffffffffffffffffffffffffffffffffffffff168273ffffffffffffffffffffffffffffffffffffffff1603610f32578060025f8282540392505081905550610f7c565b805f5f8473ffffffffffffffffffffffffffffffffffffffff1673ffffffffffffffffffffffffffffffffffffffff1681526020019081526020015f205f82825401925050819055505b8173ffffffffffffffffffffffffffffffffffffffff168373ffffffffffffffffffffffffffffffffffffffff167fddf252ad1be2c89b69c2b068fc378daa952ba7f163c4a11628f55a4df523b3ef83604051610fd991906111b2565b60405180910390a3505050565b5f81519050919050565b5f82825260208201905092915050565b8281835e5f83830152505050565b5f601f19601f8301169050919050565b5f61102882610fe6565b6110328185610ff0565b9350611042818560208601611000565b61104b8161100e565b840191505092915050565b5f6020820190508181035f83015261106e818461101e565b905092915050565b5f5ffd5b5f73ffffffffffffffffffffffffffffffffffffffff82169050919050565b5f6110a38261107a565b9050919050565b6110b381611099565b81146110bd575f5ffd5b50565b5f813590506110ce816110aa565b92915050565b5f819050919050565b6110e6816110d4565b81146110f0575f5ffd5b50565b5f81359050611101816110dd565b92915050565b5f5f6040838503121561111d5761111c611076565b5b5f61112a858286016110c0565b925050602061113b858286016110f3565b9150509250929050565b5f8115159050919050565b61115981611145565b82525050565b5f6020820190506111725f830184611150565b92915050565b5f6020828403121561118d5761118c611076565b5b5f61119a848285016110c0565b91505092915050565b6111ac816110d4565b82525050565b5f6020820190506111c55f8301846111a3565b92915050565b5f5f5f606084860312156111e2576111e1611076565b5b5f6111ef868287016110c0565b9350506020611200868287016110c0565b9250506040611211868287016110f3565b9150509250925092565b5f60ff82169050919050565b6112308161121b565b82525050565b5f6020820190506112495f830184611227565b92915050565b61125881611099565b82525050565b5f6020820190506112715f83018461124f565b92915050565b5f5f6040838503121561128d5761128c611076565b5b5f61129a858286016110c0565b92505060206112ab858286016110c0565b9150509250929050565b7f4e487b71000000000000000000000000000000000000000000000000000000005f52602260045260245ffd5b5f60028204905060018216806112f957607f821691505b60208210810361130c5761130b6112b5565b5b50919050565b7f4e487b71000000000000000000000000000000000000000000000000000000005f52601160045260245ffd5b5f611349826110d4565b9150611354836110d4565b925082820190508082111561136c5761136b611312565b5b92915050565b5f6040820190506113855f8301856111a3565b61139260208301846111a3565b9392505050565b5f6060820190506113ac5f83018661124f565b6113b960208301856111a3565b6113c660408301846111a3565b94935050505056fea2646970667358221220cb6329b937651fff49c3e329bda667f1053695655cc7fe5be01eacfe42050bfb64736f6c634300081c0033",
  "linkReferences": {},
  "deployedLinkReferences": {},
  "immutableReferences": {},
  "inputSourceName": "project/contracts/GiwaForecastTestToken.sol",
  "buildInfoId": "solc-0_8_28-4c5c6ba9e12933a525faead116211fd405349f58"
}