{
  "_format": "hh3-artifact-1",
  "contractName": "GiwaForecastMarket",
  "sourceName": "contracts/GiwaForecastMarket.sol",
  "abi": [
    {
      "inputs": [
        {
          "internalType": "address",
          "name": "collateralToken_",
          "type": "address"
        },
        {
          "internalType": "address",
          "name": "feeRecipient_",
          "type": "address"
        },
        {
          "internalType": "uint16",
          "name": "feeBps_",
          "type": "uint16"
        }
      ],
      "stateMutability": "nonpayable",
      "type": "constructor"
    },
    {
      "inputs": [],
      "name": "AlreadyClaimed",
      "type": "error"
    },
    {
      "inputs": [],
      "name": "InsufficientLiquidity",
      "type": "error"
    },
    {
      "inputs": [],
      "name": "InsufficientShares",
      "type": "error"
    },
    {
      "inputs": [],
      "name": "InvalidAddress",
      "type": "error"
    },
    {
      "inputs": [],
      "name": "InvalidAmount",
      "type": "error"
    },
    {
      "inputs": [],
      "name": "InvalidFee",
      "type": "error"
    },
    {
      "inputs": [],
      "name": "InvalidMarket",
      "type": "error"
    },
    {
      "inputs": [],
      "name": "MarketAlreadyResolved",
      "type": "error"
    },
    {
      "inputs": [],
      "name": "MarketClosed",
      "type": "error"
    },
    {
      "inputs": [],
      "name": "MarketNotClosed",
      "type": "error"
    },
    {
      "inputs": [],
      "name": "MarketNotResolved",
      "type": "error"
    },
    {
      "inputs": [],
      "name": "NotOwner",
      "type": "error"
    },
    {
      "inputs": [],
      "name": "NotResolver",
      "type": "error"
    },
    {
      "inputs": [],
      "name": "NothingToClaim",
      "type": "error"
    },
    {
      "inputs": [],
      "name": "OnlyCreator",
      "type": "error"
    },
    {
      "inputs": [],
      "name": "ReentrancyGuardReentrantCall",
      "type": "error"
    },
    {
      "inputs": [],
      "name": "ResidualAlreadyClaimed",
      "type": "error"
    },
    {
      "inputs": [
        {
          "internalType": "address",
          "name": "token",
          "type": "address"
        }
      ],
      "name": "SafeERC20FailedOperation",
      "type": "error"
    },
    {
      "anonymous": false,
      "inputs": [
        {
          "indexed": true,
          "internalType": "uint256",
          "name": "marketId",
          "type": "uint256"
        },
        {
          "indexed": true,
          "internalType": "address",
          "name": "creator",
          "type": "address"
        },
        {
          "indexed": false,
          "internalType": "uint256",
          "name": "payout",
          "type": "uint256"
        }
      ],
      "name": "CreatorResidualClaimed",
      "type": "event"
    },
    {
      "anonymous": false,
      "inputs": [
        {
          "indexed": true,
          "internalType": "address",
          "name": "previousRecipient",
          "type": "address"
        },
        {
          "indexed": true,
          "internalType": "address",
          "name": "newRecipient",
          "type": "address"
        }
      ],
      "name": "FeeRecipientUpdated",
      "type": "event"
    },
    {
      "anonymous": false,
      "inputs": [
        {
          "indexed": true,
          "internalType": "uint256",
          "name": "marketId",
          "type": "uint256"
        },
        {
          "indexed": true,
          "internalType": "address",
          "name": "creator",
          "type": "address"
        },
        {
          "indexed": true,
          "internalType": "address",
          "name": "resolver",
          "type": "address"
        },
        {
          "indexed": false,
          "internalType": "string",
          "name": "question",
          "type": "string"
        },
        {
          "indexed": false,
          "internalType": "uint64",
          "name": "closeTime",
          "type": "uint64"
        },
        {
          "indexed": false,
          "internalType": "uint256",
          "name": "seedLiquidity",
          "type": "uint256"
        }
      ],
      "name": "MarketCreated",
      "type": "event"
    },
    {
      "anonymous": false,
      "inputs": [
        {
          "indexed": true,
          "internalType": "uint256",
          "name": "marketId",
          "type": "uint256"
        },
        {
          "indexed": true,
          "internalType": "enum GiwaForecastMarket.Outcome",
          "name": "outcome",
          "type": "uint8"
        },
        {
          "indexed": false,
          "internalType": "uint256",
          "name": "winningUserShares",
          "type": "uint256"
        }
      ],
      "name": "MarketResolved",
      "type": "event"
    },
    {
      "anonymous": false,
      "inputs": [
        {
          "indexed": true,
          "internalType": "address",
          "name": "previousOwner",
          "type": "address"
        },
        {
          "indexed": true,
          "internalType": "address",
          "name": "newOwner",
          "type": "address"
        }
      ],
      "name": "OwnershipTransferred",
      "type": "event"
    },
    {
      "anonymous": false,
      "inputs": [
        {
          "indexed": true,
          "internalType": "uint256",
          "name": "marketId",
          "type": "uint256"
        },
        {
          "indexed": true,
          "internalType": "address",
          "name": "user",
          "type": "address"
        },
        {
          "indexed": false,
          "internalType": "uint256",
          "name": "payout",
          "type": "uint256"
        }
      ],
      "name": "PayoutClaimed",
      "type": "event"
    },
    {
      "anonymous": false,
      "inputs": [
        {
          "indexed": true,
          "internalType": "uint256",
          "name": "marketId",
          "type": "uint256"
        },
        {
          "indexed": true,
          "internalType": "address",
          "name": "trader",
          "type": "address"
        },
        {
          "indexed": true,
          "internalType": "enum GiwaForecastMarket.Outcome",
          "name": "outcome",
          "type": "uint8"
        },
        {
          "indexed": false,
          "internalType": "uint256",
          "name": "collateralIn",
          "type": "uint256"
        },
        {
          "indexed": false,
          "internalType": "uint256",
          "name": "fee",
          "type": "uint256"
        },
        {
          "indexed": false,
          "internalType": "uint256",
          "name": "sharesOut",
          "type": "uint256"
        }
      ],
      "name": "SharesBought",
      "type": "event"
    },
    {
      "anonymous": false,
      "inputs": [
        {
          "indexed": true,
          "internalType": "uint256",
          "name": "marketId",
          "type": "uint256"
        },
        {
          "indexed": true,
          "internalType": "address",
          "name": "trader",
          "type": "address"
        },
        {
          "indexed": true,
          "internalType": "enum GiwaForecastMarket.Outcome",
          "name": "outcome",
          "type": "uint8"
        },
        {
          "indexed": false,
          "internalType": "uint256",
          "name": "sharesIn",
          "type": "uint256"
        },
        {
          "indexed": false,
          "internalType": "uint256",
          "name": "grossCollateralOut",
          "type": "uint256"
        },
        {
          "indexed": false,
          "internalType": "uint256",
          "name": "fee",
          "type": "uint256"
        },
        {
          "indexed": false,
          "internalType": "uint256",
          "name": "netCollateralOut",
          "type": "uint256"
        }
      ],
      "name": "SharesSold",
      "type": "event"
    },
    {
      "inputs": [
        {
          "internalType": "uint256",
          "name": "marketId",
          "type": "uint256"
        },
        {
          "internalType": "enum GiwaForecastMarket.Outcome",
          "name": "outcome",
          "type": "uint8"
        },
        {
          "internalType": "uint256",
          "name": "collateralIn",
          "type": "uint256"
        }
      ],
      "name": "buy",
      "outputs": [
        {
          "internalType": "uint256",
          "name": "sharesOut",
          "type": "uint256"
        }
      ],
      "stateMutability": "nonpayable",
      "type": "function"
    },
    {
      "inputs": [
        {
          "internalType": "uint256",
          "name": "marketId",
          "type": "uint256"
        }
      ],
      "name": "claimCreatorResidual",
      "outputs": [
        {
          "internalType": "uint256",
          "name": "payout",
          "type": "uint256"
        }
      ],
      "stateMutability": "nonpayable",
      "type": "function"
    },
    {
      "inputs": [
        {
          "internalType": "uint256",
          "name": "marketId",
          "type": "uint256"
        }
      ],
      "name": "claimPayout",
      "outputs": [
        {
          "internalType": "uint256",
          "name": "payout",
          "type": "uint256"
        }
      ],
      "stateMutability": "nonpayable",
      "type": "function"
    },
    {
      "inputs": [],
      "name": "collateralToken",
      "outputs": [
        {
          "internalType": "contract IERC20",
          "name": "",
          "type": "address"
        }
      ],
      "stateMutability": "view",
      "type": "function"
    },
    {
      "inputs": [
        {
          "internalType": "string",
          "name": "question",
          "type": "string"
        },
        {
          "internalType": "string",
          "name": "category",
          "type": "string"
        },
        {
          "internalType": "uint64",
          "name": "closeTime",
          "type": "uint64"
        },
        {
          "internalType": "address",
          "name": "resolver",
          "type": "address"
        },
        {
          "internalType": "uint256",
          "name": "seedLiquidity",
          "type": "uint256"
        }
      ],
      "name": "createMarket",
      "outputs": [
        {
          "internalType": "uint256",
          "name": "marketId",
          "type": "uint256"
        }
      ],
      "stateMutability": "nonpayable",
      "type": "function"
    },
    {
      "inputs": [],
      "name": "feeBps",
      "outputs": [
        {
          "internalType": "uint16",
          "name": "",
          "type": "uint16"
        }
      ],
      "stateMutability": "view",
      "type": "function"
    },
    {
      "inputs": [],
      "name": "feeRecipient",
      "outputs": [
        {
          "internalType": "address",
          "name": "",
          "type": "address"
        }
      ],
      "stateMutability": "view",
      "type": "function"
    },
    {
      "inputs": [
        {
          "internalType": "uint256",
          "name": "marketId",
          "type": "uint256"
        }
      ],
      "name": "getMarket",
      "outputs": [
        {
          "components": [
            {
              "internalType": "string",
              "name": "question",
              "type": "string"
            },
            {
              "internalType": "string",
              "name": "category",
              "type": "string"
            },
            {
              "internalType": "uint64",
              "name": "closeTime",
              "type": "uint64"
            },
            {
              "internalType": "address",
              "name": "resolver",
              "type": "address"
            },
            {
              "internalType": "address",
              "name": "creator",
              "type": "address"
            },
            {
              "internalType": "uint256",
              "name": "yesReserve",
              "type": "uint256"
            },
            {
              "internalType": "uint256",
              "name": "noReserve",
              "type": "uint256"
            },
            {
              "internalType": "uint256",
              "name": "collateralPool",
              "type": "uint256"
            },
            {
              "internalType": "uint256",
              "name": "yesUserShares",
              "type": "uint256"
            },
            {
              "internalType": "uint256",
              "name": "noUserShares",
              "type": "uint256"
            },
            {
              "internalType": "uint256",
              "name": "winningUserShares",
              "type": "uint256"
            },
            {
              "internalType": "bool",
              "name": "resolved",
              "type": "bool"
            },
            {
              "internalType": "enum GiwaForecastMarket.Outcome",
              "name": "resolvedOutcome",
              "type": "uint8"
            },
            {
              "internalType": "bool",
              "name": "residualClaimed",
              "type": "bool"
            }
          ],
          "internalType": "struct GiwaForecastMarket.Market",
          "name": "",
          "type": "tuple"
        }
      ],
      "stateMutability": "view",
      "type": "function"
    },
    {
      "inputs": [
        {
          "internalType": "uint256",
          "name": "marketId",
          "type": "uint256"
        },
        {
          "internalType": "address",
          "name": "user",
          "type": "address"
        }
      ],
      "name": "getPosition",
      "outputs": [
        {
          "internalType": "uint256",
          "name": "yesShares",
          "type": "uint256"
        },
        {
          "internalType": "uint256",
          "name": "noShares",
          "type": "uint256"
        },
        {
          "internalType": "bool",
          "name": "hasClaimed",
          "type": "bool"
        }
      ],
      "stateMutability": "view",
      "type": "function"
    },
    {
      "inputs": [
        {
          "internalType": "uint256",
          "name": "marketId",
          "type": "uint256"
        }
      ],
      "name": "getYesPriceE18",
      "outputs": [
        {
          "internalType": "uint256",
          "name": "",
          "type": "uint256"
        }
      ],
      "stateMutability": "view",
      "type": "function"
    },
    {
      "inputs": [],
      "name": "marketCount",
      "outputs": [
        {
          "internalType": "uint256",
          "name": "",
          "type": "uint256"
        }
      ],
      "stateMutability": "view",
      "type": "function"
    },
    {
      "inputs": [],
      "name": "owner",
      "outputs": [
        {
          "internalType": "address",
          "name": "",
          "type": "address"
        }
      ],
      "stateMutability": "view",
      "type": "function"
    },
    {
      "inputs": [
        {
          "internalType": "uint256",
          "name": "",
          "type": "uint256"
        },
        {
          "internalType": "address",
          "name": "",
          "type": "address"
        }
      ],
      "name": "payoutClaimed",
      "outputs": [
        {
          "internalType": "bool",
          "name": "",
          "type": "bool"
        }
      ],
      "stateMutability": "view",
      "type": "function"
    },
    {
      "inputs": [
        {
          "internalType": "uint256",
          "name": "marketId",
          "type": "uint256"
        },
        {
          "internalType": "enum GiwaForecastMarket.Outcome",
          "name": "outcome",
          "type": "uint8"
        },
        {
          "internalType": "uint256",
          "name": "collateralIn",
          "type": "uint256"
        }
      ],
      "name": "quoteBuy",
      "outputs": [
        {
          "internalType": "uint256",
          "name": "sharesOut",
          "type": "uint256"
        },
        {
          "internalType": "uint256",
          "name": "fee",
          "type": "uint256"
        },
        {
          "internalType": "uint256",
          "name": "yesPriceE18",
          "type": "uint256"
        }
      ],
      "stateMutability": "view",
      "type": "function"
    },
    {
      "inputs": [
        {
          "internalType": "uint256",
          "name": "marketId",
          "type": "uint256"
        },
        {
          "internalType": "enum GiwaForecastMarket.Outcome",
          "name": "outcome",
          "type": "uint8"
        },
        {
          "internalType": "uint256",
          "name": "sharesIn",
          "type": "uint256"
        }
      ],
      "name": "quoteSell",
      "outputs": [
        {
          "internalType": "uint256",
          "name": "netCollateralOut",
          "type": "uint256"
        },
        {
          "internalType": "uint256",
          "name": "fee",
          "type": "uint256"
        },
        {
          "internalType": "uint256",
          "name": "yesPriceE18",
          "type": "uint256"
        }
      ],
      "stateMutability": "view",
      "type": "function"
    },
    {
      "inputs": [
        {
          "internalType": "uint256",
          "name": "marketId",
          "type": "uint256"
        },
        {
          "internalType": "enum GiwaForecastMarket.Outcome",
          "name": "outcome",
          "type": "uint8"
        }
      ],
      "name": "resolveMarket",
      "outputs": [],
      "stateMutability": "nonpayable",
      "type": "function"
    },
    {
      "inputs": [
        {
          "internalType": "uint256",
          "name": "marketId",
          "type": "uint256"
        },
        {
          "internalType": "enum GiwaForecastMarket.Outcome",
          "name": "outcome",
          "type": "uint8"
        },
        {
          "internalType": "uint256",
          "name": "sharesIn",
          "type": "uint256"
        }
      ],
      "name": "sell",
      "outputs": [
        {
          "internalType": "uint256",
          "name": "netCollateralOut",
          "type": "uint256"
        }
      ],
      "stateMutability": "nonpayable",
      "type": "function"
    },
    {
      "inputs": [
        {
          "internalType": "address",
          "name": "newRecipient",
          "type": "address"
        }
      ],
      "name": "setFeeRecipient",
      "outputs": [],
      "stateMutability": "nonpayable",
      "type": "function"
    },
    {
      "inputs": [
        {
          "internalType": "address",
          "name": "newOwner",
          "type": "address"
        }
      ],
      "name": "transferOwnership",
      "outputs": [],
      "stateMutability": "nonpayable",
      "type": "function"
    }
  ],
  "bytecode": "0x60c060405234801561000f575f5ffd5b50604051613c2a380380613c2a8339818101604052810190610031919061031d565b600161004f61004461025660201b60201c565b61027f60201b60201c565b5f01819055505f73ffffffffffffffffffffffffffffffffffffffff168373ffffffffffffffffffffffffffffffffffffffff1614806100ba57505f73ffffffffffffffffffffffffffffffffffffffff168273ffffffffffffffffffffffffffffffffffffffff16145b156100f1576040517fe6c4247b00000000000000000000000000000000000000000000000000000000815260040160405180910390fd5b6101f48161ffff161115610131576040517f58d620b300000000000000000000000000000000000000000000000000000000815260040160405180910390fd5b8273ffffffffffffffffffffffffffffffffffffffff1660808173ffffffffffffffffffffffffffffffffffffffff16815250508160015f6101000a81548173ffffffffffffffffffffffffffffffffffffffff021916908373ffffffffffffffffffffffffffffffffffffffff1602179055508061ffff1660a08161ffff1681525050335f5f6101000a81548173ffffffffffffffffffffffffffffffffffffffff021916908373ffffffffffffffffffffffffffffffffffffffff1602179055503373ffffffffffffffffffffffffffffffffffffffff165f73ffffffffffffffffffffffffffffffffffffffff167f8be0079c531659141344cd1fd0a4f28419497f9722a3daafe3b4186f6b6457e060405160405180910390a350505061036d565b5f7f9b779b17422d0df92223018b32b4d1fa46e071723d6817e2486d003becc55f005f1b905090565b5f819050919050565b5f5ffd5b5f73ffffffffffffffffffffffffffffffffffffffff82169050919050565b5f6102b58261028c565b9050919050565b6102c5816102ab565b81146102cf575f5ffd5b50565b5f815190506102e0816102bc565b92915050565b5f61ffff82169050919050565b6102fc816102e6565b8114610306575f5ffd5b50565b5f81519050610317816102f3565b92915050565b5f5f5f6060848603121561033457610333610288565b5b5f610341868287016102d2565b9350506020610352868287016102d2565b925050604061036386828701610309565b9150509250925092565b60805160a05161384f6103db5f395f81816104250152818161053d01528181610e2f015281816116bc015261241f01525f81816105c70152818161063c01528181610e9801528181610f0c0152818161113a0152818161152e0152818161160e015261182b015261384f5ff3fe608060405234801561000f575f5ffd5b506004361061011f575f3560e01c8063b6c77d67116100ab578063e74b981b1161006f578063e74b981b1461036b578063eb44fdd314610387578063ec979082146103b7578063ed5a13a2146103d5578063f2fde38b146104075761011f565b8063b6c77d671461028b578063d21fb764146102bd578063d29f541d146102ed578063dda8744d1461031f578063df55406e1461034f5761011f565b806381723535116100f257806381723535146101bf5780638a69614e146101ef5780638da5cb5b1461021f5780639d42026f1461023d578063b2016bd41461026d5761011f565b806324a9d8531461012357806339b618111461014157806346904840146101715780635f90dc6e1461018f575b5f5ffd5b61012b610423565b6040516101389190612bbd565b60405180910390f35b61015b60048036038101906101569190612c34565b610447565b6040516101689190612c93565b60405180910390f35b610179610966565b6040516101869190612ceb565b60405180910390f35b6101a960048036038101906101a49190612c34565b61098b565b6040516101b69190612c93565b60405180910390f35b6101d960048036038101906101d49190612d04565b610fcb565b6040516101e69190612c93565b60405180910390f35b61020960048036038101906102049190612d04565b6111dc565b6040516102169190612c93565b60405180910390f35b6102276115cf565b6040516102349190612ceb565b60405180910390f35b61025760048036038101906102529190612d04565b6115f3565b6040516102649190612c93565b60405180910390f35b61027561160c565b6040516102829190612d8a565b60405180910390f35b6102a560048036038101906102a09190612c34565b611630565b6040516102b493929190612da3565b60405180910390f35b6102d760048036038101906102d29190612ea0565b61171b565b6040516102e49190612c93565b60405180910390f35b61030760048036038101906103029190612f57565b611bdf565b60405161031693929190612faf565b60405180910390f35b61033960048036038101906103349190612f57565b611cec565b6040516103469190612fe4565b60405180910390f35b61036960048036038101906103649190612ffd565b611d16565b005b6103856004803603810190610380919061303b565b611f6f565b005b6103a1600480360381019061039c9190612d04565b61211c565b6040516103ae91906132b7565b60405180910390f35b6103bf6123e7565b6040516103cc9190612c93565b60405180910390f35b6103ef60048036038101906103ea9190612c34565b6123ed565b6040516103fe93929190612da3565b60405180910390f35b610421600480360381019061041c919061303b565b6124f0565b005b7f000000000000000000000000000000000000000000000000000000000000000081565b5f61045061269b565b5f61045a856126bd565b905080600a015f9054906101000a900460ff16156104a4576040517faa43cb2d00000000000000000000000000000000000000000000000000000000815260040160405180910390fd5b806002015f9054906101000a900467ffffffffffffffff1667ffffffffffffffff1642106104fe576040517f0b5f6bf000000000000000000000000000000000000000000000000000000000815260040160405180910390fd5b5f8303610537576040517f2c5211c600000000000000000000000000000000000000000000000000000000815260040160405180910390fd5b5f6127107f000000000000000000000000000000000000000000000000000000000000000061ffff168561056b9190613304565b6105759190613372565b90505f818561058491906133a2565b90505f81036105bf576040517f2c5211c600000000000000000000000000000000000000000000000000000000815260040160405180910390fd5b61060c3330877f000000000000000000000000000000000000000000000000000000000000000073ffffffffffffffffffffffffffffffffffffffff1661271c909392919063ffffffff16565b5f8211156106815761068060015f9054906101000a900473ffffffffffffffffffffffffffffffffffffffff16837f000000000000000000000000000000000000000000000000000000000000000073ffffffffffffffffffffffffffffffffffffffff166127719092919063ffffffff16565b5b5f5f600181111561069557610694613112565b5b8760018111156106a8576106a7613112565b5b036107c2576106c082856005015486600401546127c4565b9050836004015481106106ff576040517fbb55fd2700000000000000000000000000000000000000000000000000000000815260040160405180910390fd5b81846005015f82825461071291906133d5565b9250508190555080846004015f82825461072c91906133a2565b92505081905550808261073f91906133d5565b94508460045f8a81526020019081526020015f205f3373ffffffffffffffffffffffffffffffffffffffff1673ffffffffffffffffffffffffffffffffffffffff1681526020019081526020015f205f82825461079c91906133d5565b9250508190555084846007015f8282546107b691906133d5565b925050819055506108d3565b6107d582856004015486600501546127c4565b905083600501548110610814576040517fbb55fd2700000000000000000000000000000000000000000000000000000000815260040160405180910390fd5b81846004015f82825461082791906133d5565b9250508190555080846005015f82825461084191906133a2565b92505081905550808261085491906133d5565b94508460055f8a81526020019081526020015f205f3373ffffffffffffffffffffffffffffffffffffffff1673ffffffffffffffffffffffffffffffffffffffff1681526020019081526020015f205f8282546108b191906133d5565b9250508190555084846008015f8282546108cb91906133d5565b925050819055505b81846006015f8282546108e691906133d5565b92505081905550866001811115610900576108ff613112565b5b3373ffffffffffffffffffffffffffffffffffffffff16897f9be864738dd20c4cee14975891a144fe600ee582661407c3532c0ff0251216dc89878a60405161094b93929190612da3565b60405180910390a45050505061095f612815565b9392505050565b60015f9054906101000a900473ffffffffffffffffffffffffffffffffffffffff1681565b5f61099461269b565b5f61099e856126bd565b905080600a015f9054906101000a900460ff16156109e8576040517faa43cb2d00000000000000000000000000000000000000000000000000000000815260040160405180910390fd5b806002015f9054906101000a900467ffffffffffffffff1667ffffffffffffffff164210610a42576040517f0b5f6bf000000000000000000000000000000000000000000000000000000000815260040160405180910390fd5b5f8303610a7b576040517f2c5211c600000000000000000000000000000000000000000000000000000000815260040160405180910390fd5b5f5f6001811115610a8f57610a8e613112565b5b856001811115610aa257610aa1613112565b5b03610c4b578360045f8881526020019081526020015f205f3373ffffffffffffffffffffffffffffffffffffffff1673ffffffffffffffffffffffffffffffffffffffff1681526020019081526020015f20541015610b2d576040517f3999656700000000000000000000000000000000000000000000000000000000815260040160405180910390fd5b610b40826004015483600501548661282f565b90505f811480610b54575081600501548110155b15610b8b576040517fbb55fd2700000000000000000000000000000000000000000000000000000000815260040160405180910390fd5b8360045f8881526020019081526020015f205f3373ffffffffffffffffffffffffffffffffffffffff1673ffffffffffffffffffffffffffffffffffffffff1681526020019081526020015f205f828254610be691906133a2565b9250508190555083826007015f828254610c0091906133a2565b925050819055508084610c1391906133a2565b826004015f828254610c2591906133d5565b9250508190555080826005015f828254610c3f91906133a2565b92505081905550610deb565b8360055f8881526020019081526020015f205f3373ffffffffffffffffffffffffffffffffffffffff1673ffffffffffffffffffffffffffffffffffffffff1681526020019081526020015f20541015610cd1576040517f3999656700000000000000000000000000000000000000000000000000000000815260040160405180910390fd5b610ce4826005015483600401548661282f565b90505f811480610cf8575081600401548110155b15610d2f576040517fbb55fd2700000000000000000000000000000000000000000000000000000000815260040160405180910390fd5b8360055f8881526020019081526020015f205f3373ffffffffffffffffffffffffffffffffffffffff1673ffffffffffffffffffffffffffffffffffffffff1681526020019081526020015f205f828254610d8a91906133a2565b9250508190555083826008015f828254610da491906133a2565b925050819055508084610db791906133a2565b826005015f828254610dc991906133d5565b9250508190555080826004015f828254610de391906133a2565b925050819055505b8160060154811115610e29576040517fbb55fd2700000000000000000000000000000000000000000000000000000000815260040160405180910390fd5b5f6127107f000000000000000000000000000000000000000000000000000000000000000061ffff1683610e5d9190613304565b610e679190613372565b90508082610e7591906133a2565b935081836006015f828254610e8a91906133a2565b92505081905550610edc33857f000000000000000000000000000000000000000000000000000000000000000073ffffffffffffffffffffffffffffffffffffffff166127719092919063ffffffff16565b5f811115610f5157610f5060015f9054906101000a900473ffffffffffffffffffffffffffffffffffffffff16827f000000000000000000000000000000000000000000000000000000000000000073ffffffffffffffffffffffffffffffffffffffff166127719092919063ffffffff16565b5b856001811115610f6457610f63613112565b5b3373ffffffffffffffffffffffffffffffffffffffff16887fb62a4504befd6b99464affdb6bd0d6528dd160f73ce088071d37c731e650d7798886868a604051610fb19493929190613408565b60405180910390a4505050610fc4612815565b9392505050565b5f610fd461269b565b5f610fde836126bd565b905080600a015f9054906101000a900460ff16611027576040517f2e96c72600000000000000000000000000000000000000000000000000000000815260040160405180910390fd5b806003015f9054906101000a900473ffffffffffffffffffffffffffffffffffffffff1673ffffffffffffffffffffffffffffffffffffffff163373ffffffffffffffffffffffffffffffffffffffff16146110af576040517f47bc7cc800000000000000000000000000000000000000000000000000000000815260040160405180910390fd5b80600a0160029054906101000a900460ff16156110f8576040517f738c807b00000000000000000000000000000000000000000000000000000000815260040160405180910390fd5b600181600a0160026101000a81548160ff0219169083151502179055508060090154816006015461112991906133a2565b91505f82111561117f5761117e33837f000000000000000000000000000000000000000000000000000000000000000073ffffffffffffffffffffffffffffffffffffffff166127719092919063ffffffff16565b5b3373ffffffffffffffffffffffffffffffffffffffff16837f3e6a65695df4386c7d851e9604846372769fb1f6e1f21650ad0085600b68c6f7846040516111c69190612c93565b60405180910390a3506111d7612815565b919050565b5f6111e561269b565b5f6111ef836126bd565b905080600a015f9054906101000a900460ff16611238576040517f2e96c72600000000000000000000000000000000000000000000000000000000815260040160405180910390fd5b60065f8481526020019081526020015f205f3373ffffffffffffffffffffffffffffffffffffffff1673ffffffffffffffffffffffffffffffffffffffff1681526020019081526020015f205f9054906101000a900460ff16156112c8576040517f646cf55800000000000000000000000000000000000000000000000000000000815260040160405180910390fd5b600160065f8581526020019081526020015f205f3373ffffffffffffffffffffffffffffffffffffffff1673ffffffffffffffffffffffffffffffffffffffff1681526020019081526020015f205f6101000a81548160ff0219169083151502179055505f600181111561133f5761133e613112565b5b81600a0160019054906101000a900460ff16600181111561136357611362613112565b5b146113ba5760055f8481526020019081526020015f205f3373ffffffffffffffffffffffffffffffffffffffff1673ffffffffffffffffffffffffffffffffffffffff1681526020019081526020015f2054611408565b60045f8481526020019081526020015f205f3373ffffffffffffffffffffffffffffffffffffffff1673ffffffffffffffffffffffffffffffffffffffff1681526020019081526020015f20545b91505f8203611443576040517f969bf72800000000000000000000000000000000000000000000000000000000815260040160405180910390fd5b5f600181111561145657611455613112565b5b81600a0160019054906101000a900460ff16600181111561147a57611479613112565b5b036114d5575f60045f8581526020019081526020015f205f3373ffffffffffffffffffffffffffffffffffffffff1673ffffffffffffffffffffffffffffffffffffffff1681526020019081526020015f2081905550611527565b5f60055f8581526020019081526020015f205f3373ffffffffffffffffffffffffffffffffffffffff1673ffffffffffffffffffffffffffffffffffffffff1681526020019081526020015f20819055505b61157233837f000000000000000000000000000000000000000000000000000000000000000073ffffffffffffffffffffffffffffffffffffffff166127719092919063ffffffff16565b3373ffffffffffffffffffffffffffffffffffffffff16837fe97cee5a4c0549d3fdc81e322b718ddf0aeb3418ec87dce4f9a7fb28d117c312846040516115b99190612c93565b60405180910390a3506115ca612815565b919050565b5f5f9054906101000a900473ffffffffffffffffffffffffffffffffffffffff1681565b5f611605611600836126bd565b6128d0565b9050919050565b7f000000000000000000000000000000000000000000000000000000000000000081565b5f5f5f5f61163d876126bd565b90505f850361165d575f5f611651836128d0565b93509350935050611712565b5f5f600181111561167157611670613112565b5b87600181111561168457611683613112565b5b146116a15761169c826005015483600401548861282f565b6116b5565b6116b4826004015483600501548861282f565b5b90506127107f000000000000000000000000000000000000000000000000000000000000000061ffff16826116ea9190613304565b6116f49190613372565b9350838161170291906133a2565b945061170d826128d0565b925050505b93509350939050565b5f61172461269b565b5f888890501480611738575060f088889050115b1561176f576040517f2c5211c600000000000000000000000000000000000000000000000000000000815260040160405180910390fd5b428467ffffffffffffffff161115806117b357505f73ffffffffffffffffffffffffffffffffffffffff168373ffffffffffffffffffffffffffffffffffffffff16145b156117ea576040517fe6c4247b00000000000000000000000000000000000000000000000000000000815260040160405180910390fd5b5f8203611823576040517f2c5211c600000000000000000000000000000000000000000000000000000000815260040160405180910390fd5b6118703330847f000000000000000000000000000000000000000000000000000000000000000073ffffffffffffffffffffffffffffffffffffffff1661271c909392919063ffffffff16565b60025f815461187e9061344b565b9190508190559050604051806101c0016040528089898080601f0160208091040260200160405190810160405280939291908181526020018383808284375f81840152601f19601f82011690508083019250505050505050815260200187878080601f0160208091040260200160405190810160405280939291908181526020018383808284375f81840152601f19601f8201169050808301925050505050505081526020018567ffffffffffffffff1681526020018473ffffffffffffffffffffffffffffffffffffffff1681526020013373ffffffffffffffffffffffffffffffffffffffff1681526020018381526020018381526020018381526020015f81526020015f81526020015f81526020015f151581526020015f60018111156119ab576119aa613112565b5b81526020015f151581525060035f8381526020019081526020015f205f820151815f0190816119da91906136b3565b5060208201518160010190816119f091906136b3565b506040820151816002015f6101000a81548167ffffffffffffffff021916908367ffffffffffffffff16021790555060608201518160020160086101000a81548173ffffffffffffffffffffffffffffffffffffffff021916908373ffffffffffffffffffffffffffffffffffffffff1602179055506080820151816003015f6101000a81548173ffffffffffffffffffffffffffffffffffffffff021916908373ffffffffffffffffffffffffffffffffffffffff16021790555060a0820151816004015560c0820151816005015560e0820151816006015561010082015181600701556101208201518160080155610140820151816009015561016082015181600a015f6101000a81548160ff02191690831515021790555061018082015181600a0160016101000a81548160ff02191690836001811115611b3757611b36613112565b5b02179055506101a082015181600a0160026101000a81548160ff0219169083151502179055509050508273ffffffffffffffffffffffffffffffffffffffff163373ffffffffffffffffffffffffffffffffffffffff16827f597681e274cac1ad1a54a0ae01083e0a1429c2eeba20be8724a988d357207fae8b8b8988604051611bc494939291906137db565b60405180910390a4611bd4612815565b979650505050505050565b5f5f5f611beb856126bd565b5060045f8681526020019081526020015f205f8573ffffffffffffffffffffffffffffffffffffffff1673ffffffffffffffffffffffffffffffffffffffff1681526020019081526020015f205460055f8781526020019081526020015f205f8673ffffffffffffffffffffffffffffffffffffffff1673ffffffffffffffffffffffffffffffffffffffff1681526020019081526020015f205460065f8881526020019081526020015f205f8773ffffffffffffffffffffffffffffffffffffffff1673ffffffffffffffffffffffffffffffffffffffff1681526020019081526020015f205f9054906101000a900460ff169250925092509250925092565b6006602052815f5260405f20602052805f5260405f205f915091509054906101000a900460ff1681565b5f611d20836126bd565b905080600a015f9054906101000a900460ff1615611d6a576040517faa43cb2d00000000000000000000000000000000000000000000000000000000815260040160405180910390fd5b806002015f9054906101000a900467ffffffffffffffff1667ffffffffffffffff16421015611dc5576040517fa8a9eb6900000000000000000000000000000000000000000000000000000000815260040160405180910390fd5b8060020160089054906101000a900473ffffffffffffffffffffffffffffffffffffffff1673ffffffffffffffffffffffffffffffffffffffff163373ffffffffffffffffffffffffffffffffffffffff1614611e4e576040517fba2a9fc200000000000000000000000000000000000000000000000000000000815260040160405180910390fd5b600181600a015f6101000a81548160ff0219169083151502179055508181600a0160016101000a81548160ff02191690836001811115611e9157611e90613112565b5b02179055505f6001811115611ea957611ea8613112565b5b826001811115611ebc57611ebb613112565b5b14611ecb578060080154611ed1565b80600701545b8160090181905550806006015481600901541115611f1b576040517fbb55fd2700000000000000000000000000000000000000000000000000000000815260040160405180910390fd5b816001811115611f2e57611f2d613112565b5b837f661ce16e44a34377fc37c19874f4b1bec6e84b072cf8d318838fe17c20c58e448360090154604051611f629190612c93565b60405180910390a3505050565b5f5f9054906101000a900473ffffffffffffffffffffffffffffffffffffffff1673ffffffffffffffffffffffffffffffffffffffff163373ffffffffffffffffffffffffffffffffffffffff1614611ff4576040517f30cd747100000000000000000000000000000000000000000000000000000000815260040160405180910390fd5b5f73ffffffffffffffffffffffffffffffffffffffff168173ffffffffffffffffffffffffffffffffffffffff1603612059576040517fe6c4247b00000000000000000000000000000000000000000000000000000000815260040160405180910390fd5b5f60015f9054906101000a900473ffffffffffffffffffffffffffffffffffffffff1690508160015f6101000a81548173ffffffffffffffffffffffffffffffffffffffff021916908373ffffffffffffffffffffffffffffffffffffffff1602179055508173ffffffffffffffffffffffffffffffffffffffff168173ffffffffffffffffffffffffffffffffffffffff167faaebcf1bfa00580e41d966056b48521fa9f202645c86d4ddf28113e617c1b1d360405160405180910390a35050565b612124612af2565b61212d826126bd565b604051806101c00160405290815f82018054612148906134ec565b80601f0160208091040260200160405190810160405280929190818152602001828054612174906134ec565b80156121bf5780601f10612196576101008083540402835291602001916121bf565b820191905f5260205f20905b8154815290600101906020018083116121a257829003601f168201915b505050505081526020016001820180546121d8906134ec565b80601f0160208091040260200160405190810160405280929190818152602001828054612204906134ec565b801561224f5780601f106122265761010080835404028352916020019161224f565b820191905f5260205f20905b81548152906001019060200180831161223257829003601f168201915b50505050508152602001600282015f9054906101000a900467ffffffffffffffff1667ffffffffffffffff1667ffffffffffffffff1681526020016002820160089054906101000a900473ffffffffffffffffffffffffffffffffffffffff1673ffffffffffffffffffffffffffffffffffffffff1673ffffffffffffffffffffffffffffffffffffffff168152602001600382015f9054906101000a900473ffffffffffffffffffffffffffffffffffffffff1673ffffffffffffffffffffffffffffffffffffffff1673ffffffffffffffffffffffffffffffffffffffff168152602001600482015481526020016005820154815260200160068201548152602001600782015481526020016008820154815260200160098201548152602001600a82015f9054906101000a900460ff16151515158152602001600a820160019054906101000a900460ff1660018111156123af576123ae613112565b5b60018111156123c1576123c0613112565b5b8152602001600a820160029054906101000a900460ff1615151515815250509050919050565b60025481565b5f5f5f5f6123fa876126bd565b90505f850361241a575f5f61240e836128d0565b935093509350506124e7565b6127107f000000000000000000000000000000000000000000000000000000000000000061ffff168661244d9190613304565b6124579190613372565b92505f838661246691906133a2565b90505f600181111561247b5761247a613112565b5b87600181111561248e5761248d613112565b5b036124b8576124a681836005015484600401546127c4565b816124b191906133d5565b94506124d9565b6124cb81836004015484600501546127c4565b816124d691906133d5565b94505b6124e2826128d0565b925050505b93509350939050565b5f5f9054906101000a900473ffffffffffffffffffffffffffffffffffffffff1673ffffffffffffffffffffffffffffffffffffffff163373ffffffffffffffffffffffffffffffffffffffff1614612575576040517f30cd747100000000000000000000000000000000000000000000000000000000815260040160405180910390fd5b5f73ffffffffffffffffffffffffffffffffffffffff168173ffffffffffffffffffffffffffffffffffffffff16036125da576040517fe6c4247b00000000000000000000000000000000000000000000000000000000815260040160405180910390fd5b5f5f5f9054906101000a900473ffffffffffffffffffffffffffffffffffffffff169050815f5f6101000a81548173ffffffffffffffffffffffffffffffffffffffff021916908373ffffffffffffffffffffffffffffffffffffffff1602179055508173ffffffffffffffffffffffffffffffffffffffff168173ffffffffffffffffffffffffffffffffffffffff167f8be0079c531659141344cd1fd0a4f28419497f9722a3daafe3b4186f6b6457e060405160405180910390a35050565b6126a3612924565b60026126b56126b0612965565b61298e565b5f0181905550565b5f5f8214806126cd575060025482115b15612704576040517f9db8d5b100000000000000000000000000000000000000000000000000000000815260040160405180910390fd5b60035f8381526020019081526020015f209050919050565b61272a848484846001612997565b61276b57836040517f5274afe70000000000000000000000000000000000000000000000000000000081526004016127629190612ceb565b60405180910390fd5b50505050565b61277e8383836001612a08565b6127bf57826040517f5274afe70000000000000000000000000000000000000000000000000000000081526004016127b69190612ceb565b60405180910390fd5b505050565b5f5f8414806127d257505f83145b806127dc57505f82145b156127e9575f905061280e565b83836127f591906133d5565b84836128019190613304565b61280b9190613372565b90505b9392505050565b6001612827612822612965565b61298e565b5f0181905550565b5f5f82148061283d57505f84145b8061284757505f83145b15612854575f90506128c9565b5f82848661286291906133d5565b61286c91906133d5565b90505f8385600461287d9190613304565b6128879190613304565b82836128939190613304565b61289d91906133a2565b90505f6128a982612a6a565b9050600281846128b991906133a2565b6128c39190613372565b93505050505b9392505050565b5f5f826005015483600401546128e691906133d5565b90505f81036128f8575f91505061291f565b80670de0b6b3a764000084600501546129119190613304565b61291b9190613372565b9150505b919050565b61292c612ad6565b15612963576040517f3ee5aeb500000000000000000000000000000000000000000000000000000000815260040160405180910390fd5b565b5f7f9b779b17422d0df92223018b32b4d1fa46e071723d6817e2486d003becc55f005f1b905090565b5f819050919050565b5f5f6323b872dd60e01b9050604051815f525f1960601c87166004525f1960601c86166024528460445260205f60645f5f8c5af1925060015f511483166129f55783831516156129e9573d5f823e3d81fd5b5f883b113d1516831692505b806040525f606052505095945050505050565b5f5f63a9059cbb60e01b9050604051815f525f1960601c86166004528460245260205f60445f5f8b5af1925060015f51148316612a5c578383151615612a50573d5f823e3d81fd5b5f873b113d1516831692505b806040525050949350505050565b5f5f8203612a7a575f9050612ad1565b5f6002600184612a8a91906133d5565b612a949190613372565b90508291505b81811015612acf578091506002818285612ab49190613372565b612abe91906133d5565b612ac89190613372565b9050612a9a565b505b919050565b5f6002612ae9612ae4612965565b61298e565b5f015414905090565b604051806101c0016040528060608152602001606081526020015f67ffffffffffffffff1681526020015f73ffffffffffffffffffffffffffffffffffffffff1681526020015f73ffffffffffffffffffffffffffffffffffffffff1681526020015f81526020015f81526020015f81526020015f81526020015f81526020015f81526020015f151581526020015f6001811115612b9357612b92613112565b5b81526020015f151581525090565b5f61ffff82169050919050565b612bb781612ba1565b82525050565b5f602082019050612bd05f830184612bae565b92915050565b5f5ffd5b5f5ffd5b5f819050919050565b612bf081612bde565b8114612bfa575f5ffd5b50565b5f81359050612c0b81612be7565b92915050565b60028110612c1d575f5ffd5b50565b5f81359050612c2e81612c11565b92915050565b5f5f5f60608486031215612c4b57612c4a612bd6565b5b5f612c5886828701612bfd565b9350506020612c6986828701612c20565b9250506040612c7a86828701612bfd565b9150509250925092565b612c8d81612bde565b82525050565b5f602082019050612ca65f830184612c84565b92915050565b5f73ffffffffffffffffffffffffffffffffffffffff82169050919050565b5f612cd582612cac565b9050919050565b612ce581612ccb565b82525050565b5f602082019050612cfe5f830184612cdc565b92915050565b5f60208284031215612d1957612d18612bd6565b5b5f612d2684828501612bfd565b91505092915050565b5f819050919050565b5f612d52612d4d612d4884612cac565b612d2f565b612cac565b9050919050565b5f612d6382612d38565b9050919050565b5f612d7482612d59565b9050919050565b612d8481612d6a565b82525050565b5f602082019050612d9d5f830184612d7b565b92915050565b5f606082019050612db65f830186612c84565b612dc36020830185612c84565b612dd06040830184612c84565b949350505050565b5f5ffd5b5f5ffd5b5f5ffd5b5f5f83601f840112612df957612df8612dd8565b5b8235905067ffffffffffffffff811115612e1657612e15612ddc565b5b602083019150836001820283011115612e3257612e31612de0565b5b9250929050565b5f67ffffffffffffffff82169050919050565b612e5581612e39565b8114612e5f575f5ffd5b50565b5f81359050612e7081612e4c565b92915050565b612e7f81612ccb565b8114612e89575f5ffd5b50565b5f81359050612e9a81612e76565b92915050565b5f5f5f5f5f5f5f60a0888a031215612ebb57612eba612bd6565b5b5f88013567ffffffffffffffff811115612ed857612ed7612bda565b5b612ee48a828b01612de4565b9750975050602088013567ffffffffffffffff811115612f0757612f06612bda565b5b612f138a828b01612de4565b95509550506040612f268a828b01612e62565b9350506060612f378a828b01612e8c565b9250506080612f488a828b01612bfd565b91505092959891949750929550565b5f5f60408385031215612f6d57612f6c612bd6565b5b5f612f7a85828601612bfd565b9250506020612f8b85828601612e8c565b9150509250929050565b5f8115159050919050565b612fa981612f95565b82525050565b5f606082019050612fc25f830186612c84565b612fcf6020830185612c84565b612fdc6040830184612fa0565b949350505050565b5f602082019050612ff75f830184612fa0565b92915050565b5f5f6040838503121561301357613012612bd6565b5b5f61302085828601612bfd565b925050602061303185828601612c20565b9150509250929050565b5f602082840312156130505761304f612bd6565b5b5f61305d84828501612e8c565b91505092915050565b5f81519050919050565b5f82825260208201905092915050565b8281835e5f83830152505050565b5f601f19601f8301169050919050565b5f6130a882613066565b6130b28185613070565b93506130c2818560208601613080565b6130cb8161308e565b840191505092915050565b6130df81612e39565b82525050565b6130ee81612ccb565b82525050565b6130fd81612bde565b82525050565b61310c81612f95565b82525050565b7f4e487b71000000000000000000000000000000000000000000000000000000005f52602160045260245ffd5b600281106131505761314f613112565b5b50565b5f8190506131608261313f565b919050565b5f61316f82613153565b9050919050565b61317f81613165565b82525050565b5f6101c083015f8301518482035f8601526131a0828261309e565b915050602083015184820360208601526131ba828261309e565b91505060408301516131cf60408601826130d6565b5060608301516131e260608601826130e5565b5060808301516131f560808601826130e5565b5060a083015161320860a08601826130f4565b5060c083015161321b60c08601826130f4565b5060e083015161322e60e08601826130f4565b506101008301516132436101008601826130f4565b506101208301516132586101208601826130f4565b5061014083015161326d6101408601826130f4565b50610160830151613282610160860182613103565b50610180830151613297610180860182613176565b506101a08301516132ac6101a0860182613103565b508091505092915050565b5f6020820190508181035f8301526132cf8184613185565b905092915050565b7f4e487b71000000000000000000000000000000000000000000000000000000005f52601160045260245ffd5b5f61330e82612bde565b915061331983612bde565b925082820261332781612bde565b9150828204841483151761333e5761333d6132d7565b5b5092915050565b7f4e487b71000000000000000000000000000000000000000000000000000000005f52601260045260245ffd5b5f61337c82612bde565b915061338783612bde565b92508261339757613396613345565b5b828204905092915050565b5f6133ac82612bde565b91506133b783612bde565b92508282039050818111156133cf576133ce6132d7565b5b92915050565b5f6133df82612bde565b91506133ea83612bde565b9250828201905080821115613402576134016132d7565b5b92915050565b5f60808201905061341b5f830187612c84565b6134286020830186612c84565b6134356040830185612c84565b6134426060830184612c84565b95945050505050565b5f61345582612bde565b91507fffffffffffffffffffffffffffffffffffffffffffffffffffffffffffffffff8203613487576134866132d7565b5b600182019050919050565b7f4e487b71000000000000000000000000000000000000000000000000000000005f52604160045260245ffd5b7f4e487b71000000000000000000000000000000000000000000000000000000005f52602260045260245ffd5b5f600282049050600182168061350357607f821691505b602082108103613516576135156134bf565b5b50919050565b5f819050815f5260205f209050919050565b5f6020601f8301049050919050565b5f82821b905092915050565b5f600883026135787fffffffffffffffffffffffffffffffffffffffffffffffffffffffffffffffff8261353d565b613582868361353d565b95508019841693508086168417925050509392505050565b5f6135b46135af6135aa84612bde565b612d2f565b612bde565b9050919050565b5f819050919050565b6135cd8361359a565b6135e16135d9826135bb565b848454613549565b825550505050565b5f5f905090565b6135f86135e9565b6136038184846135c4565b505050565b5b818110156136265761361b5f826135f0565b600181019050613609565b5050565b601f82111561366b5761363c8161351c565b6136458461352e565b81016020851015613654578190505b6136686136608561352e565b830182613608565b50505b505050565b5f82821c905092915050565b5f61368b5f1984600802613670565b1980831691505092915050565b5f6136a3838361367c565b9150826002028217905092915050565b6136bc82613066565b67ffffffffffffffff8111156136d5576136d4613492565b5b6136df82546134ec565b6136ea82828561362a565b5f60209050601f83116001811461371b575f8415613709578287015190505b6137138582613698565b86555061377a565b601f1984166137298661351c565b5f5b828110156137505784890151825560018201915060208501945060208101905061372b565b8683101561376d5784890151613769601f89168261367c565b8355505b6001600288020188555050505b505050505050565b5f82825260208201905092915050565b828183375f83830152505050565b5f6137ab8385613782565b93506137b8838584613792565b6137c18361308e565b840190509392505050565b6137d581612e39565b82525050565b5f6060820190508181035f8301526137f48186886137a0565b905061380360208301856137cc565b6138106040830184612c84565b9594505050505056fea26469706673582212206918db86c5401c727098af9c50ec3f210e41c3559771d9ba39b245d0c86fc0ca64736f6c634300081c0033",
  "linkReferences": {},
  "deployedLinkReferences": {},
  "immutableReferences": {
    "1778": [
      {
        "length": 32,
        "start": 1479
      },
      {
        "length": 32,
        "start": 1596
      },
      {
        "length": 32,
        "start": 3736
      },
      {
        "length": 32,
        "start": 3852
      },
      {
        "length": 32,
        "start": 4410
      },
      {
        "length": 32,
        "start": 5422
      },
      {
        "length": 32,
        "start": 5646
      },
      {
        "length": 32,
        "start": 6187
      }
    ],
    "1784": [
      {
        "length": 32,
        "start": 1061
      },
      {
        "length": 32,
        "start": 1341
      },
      {
        "length": 32,
        "start": 3631
      },
      {
        "length": 32,
        "start": 5820
      },
      {
        "length": 32,
        "start": 9247
      }
    ]
  },
  "inputSourceName": "project/contracts/GiwaForecastMarket.sol",
  "buildInfoId": "solc-0_8_28-4c5c6ba9e12933a525faead116211fd405349f58"
}